{
  "contractName": "WMFStake",
  "abi": [
    {
      "inputs": [
        {
          "internalType": "contract We_Made_Future",
          "name": "_WMF",
          "type": "address"
        },
        {
          "internalType": "address",
          "name": "_devaddr",
          "type": "address"
        },
        {
          "internalType": "uint256",
          "name": "_WMFPerTime",
          "type": "uint256"
        },
        {
          "internalType": "uint256",
          "name": "_startTime",
          "type": "uint256"
        }
      ],
      "stateMutability": "nonpayable",
      "type": "constructor"
    },
    {
      "anonymous": false,
      "inputs": [
        {
          "indexed": true,
          "internalType": "address",
          "name": "user",
          "type": "address"
        },
        {
          "indexed": true,
          "internalType": "uint256",
          "name": "sid",
          "type": "uint256"
        },
        {
          "indexed": false,
          "internalType": "uint256",
          "name": "amount",
          "type": "uint256"
        }
      ],
      "name": "Deposit",
      "type": "event"
    },
    {
      "anonymous": false,
      "inputs": [
        {
          "indexed": true,
          "internalType": "address",
          "name": "user",
          "type": "address"
        },
        {
          "indexed": true,
          "internalType": "uint256",
          "name": "sid",
          "type": "uint256"
        },
        {
          "indexed": false,
          "internalType": "uint256",
          "name": "amount",
          "type": "uint256"
        }
      ],
      "name": "EmergencyWithdraw",
      "type": "event"
    },
    {
      "anonymous": false,
      "inputs": [
        {
          "indexed": true,
          "internalType": "address",
          "name": "previousOwner",
          "type": "address"
        },
        {
          "indexed": true,
          "internalType": "address",
          "name": "newOwner",
          "type": "address"
        }
      ],
      "name": "OwnershipTransferred",
      "type": "event"
    },
    {
      "anonymous": false,
      "inputs": [
        {
          "indexed": true,
          "internalType": "address",
          "name": "user",
          "type": "address"
        },
        {
          "indexed": true,
          "internalType": "address",
          "name": "newAddress",
          "type": "address"
        }
      ],
      "name": "SetDevAddress",
      "type": "event"
    },
    {
      "anonymous": false,
      "inputs": [
        {
          "indexed": true,
          "internalType": "address",
          "name": "user",
          "type": "address"
        },
        {
          "indexed": false,
          "internalType": "uint256",
          "name": "WMFPerSecond",
          "type": "uint256"
        }
      ],
      "name": "UpdateEmissionRate",
      "type": "event"
    },
    {
      "anonymous": false,
      "inputs": [
        {
          "indexed": false,
          "internalType": "uint256",
          "name": "newStartTime",
          "type": "uint256"
        }
      ],
      "name": "UpdateStartTime",
      "type": "event"
    },
    {
      "anonymous": false,
      "inputs": [
        {
          "indexed": false,
          "internalType": "bytes",
          "name": "reason",
          "type": "bytes"
        }
      ],
      "name": "WMFMintError",
      "type": "event"
    },
    {
      "anonymous": false,
      "inputs": [
        {
          "indexed": true,
          "internalType": "address",
          "name": "user",
          "type": "address"
        },
        {
          "indexed": true,
          "internalType": "uint256",
          "name": "sid",
          "type": "uint256"
        },
        {
          "indexed": false,
          "internalType": "uint256",
          "name": "amount",
          "type": "uint256"
        }
      ],
      "name": "Withdraw",
      "type": "event"
    },
    {
      "inputs": [],
      "name": "MAX_EMISSION_RATE",
      "outputs": [
        {
          "internalType": "uint256",
          "name": "",
          "type": "uint256"
        }
      ],
      "stateMutability": "view",
      "type": "function"
    },
    {
      "inputs": [],
      "name": "WMF",
      "outputs": [
        {
          "internalType": "contract We_Made_Future",
          "name": "",
          "type": "address"
        }
      ],
      "stateMutability": "view",
      "type": "function"
    },
    {
      "inputs": [],
      "name": "WMFPerSecond",
      "outputs": [
        {
          "internalType": "uint256",
          "name": "",
          "type": "uint256"
        }
      ],
      "stateMutability": "view",
      "type": "function"
    },
    {
      "inputs": [],
      "name": "devaddr",
      "outputs": [
        {
          "internalType": "address",
          "name": "",
          "type": "address"
        }
      ],
      "stateMutability": "view",
      "type": "function"
    },
    {
      "inputs": [],
      "name": "lock_time_min",
      "outputs": [
        {
          "internalType": "uint256",
          "name": "",
          "type": "uint256"
        }
      ],
      "stateMutability": "view",
      "type": "function"
    },
    {
      "inputs": [],
      "name": "owner",
      "outputs": [
        {
          "internalType": "address",
          "name": "",
          "type": "address"
        }
      ],
      "stateMutability": "view",
      "type": "function"
    },
    {
      "inputs": [],
      "name": "renounceOwnership",
      "outputs": [],
      "stateMutability": "nonpayable",
      "type": "function"
    },
    {
      "inputs": [
        {
          "internalType": "uint256",
          "name": "",
          "type": "uint256"
        }
      ],
      "name": "stakeInfo",
      "outputs": [
        {
          "internalType": "contract IERC20",
          "name": "StakeToken",
          "type": "address"
        },
        {
          "internalType": "uint256",
          "name": "lastRewardSecond",
          "type": "uint256"
        },
        {
          "internalType": "uint256",
          "name": "accWMFPerShare",
          "type": "uint256"
        },
        {
          "internalType": "uint256",
          "name": "totalSupply",
          "type": "uint256"
        }
      ],
      "stateMutability": "view",
      "type": "function"
    },
    {
      "inputs": [],
      "name": "startTime",
      "outputs": [
        {
          "internalType": "uint256",
          "name": "",
          "type": "uint256"
        }
      ],
      "stateMutability": "view",
      "type": "function"
    },
    {
      "inputs": [
        {
          "internalType": "address",
          "name": "newOwner",
          "type": "address"
        }
      ],
      "name": "transferOwnership",
      "outputs": [],
      "stateMutability": "nonpayable",
      "type": "function"
    },
    {
      "inputs": [
        {
          "internalType": "uint256",
          "name": "",
          "type": "uint256"
        },
        {
          "internalType": "address",
          "name": "",
          "type": "address"
        }
      ],
      "name": "userInfo",
      "outputs": [
        {
          "internalType": "uint256",
          "name": "amount",
          "type": "uint256"
        },
        {
          "internalType": "uint256",
          "name": "rewardDebt",
          "type": "uint256"
        }
      ],
      "stateMutability": "view",
      "type": "function"
    },
    {
      "inputs": [],
      "name": "stakeLength",
      "outputs": [
        {
          "internalType": "uint256",
          "name": "",
          "type": "uint256"
        }
      ],
      "stateMutability": "view",
      "type": "function"
    },
    {
      "inputs": [
        {
          "internalType": "uint256",
          "name": "_from",
          "type": "uint256"
        },
        {
          "internalType": "uint256",
          "name": "_to",
          "type": "uint256"
        }
      ],
      "name": "getMultiplier",
      "outputs": [
        {
          "internalType": "uint256",
          "name": "",
          "type": "uint256"
        }
      ],
      "stateMutability": "pure",
      "type": "function"
    },
    {
      "inputs": [
        {
          "internalType": "uint256",
          "name": "_sid",
          "type": "uint256"
        },
        {
          "internalType": "address",
          "name": "_user",
          "type": "address"
        }
      ],
      "name": "pendingWMF",
      "outputs": [
        {
          "internalType": "uint256",
          "name": "",
          "type": "uint256"
        }
      ],
      "stateMutability": "view",
      "type": "function"
    },
    {
      "inputs": [
        {
          "internalType": "uint256",
          "name": "_sid",
          "type": "uint256"
        }
      ],
      "name": "updateStake",
      "outputs": [],
      "stateMutability": "nonpayable",
      "type": "function"
    },
    {
      "inputs": [
        {
          "internalType": "uint256",
          "name": "_sid",
          "type": "uint256"
        },
        {
          "internalType": "uint256",
          "name": "_amount",
          "type": "uint256"
        }
      ],
      "name": "deposit",
      "outputs": [],
      "stateMutability": "nonpayable",
      "type": "function"
    },
    {
      "inputs": [
        {
          "internalType": "uint256",
          "name": "_sid",
          "type": "uint256"
        },
        {
          "internalType": "uint256",
          "name": "_amount",
          "type": "uint256"
        },
        {
          "internalType": "uint256",
          "name": "secs",
          "type": "uint256"
        }
      ],
      "name": "withdraw",
      "outputs": [],
      "stateMutability": "nonpayable",
      "type": "function"
    },
    {
      "inputs": [
        {
          "internalType": "uint256",
          "name": "_sid",
          "type": "uint256"
        }
      ],
      "name": "emergencyWithdraw",
      "outputs": [],
      "stateMutability": "nonpayable",
      "type": "function"
    },
    {
      "inputs": [
        {
          "internalType": "address",
          "name": "_devaddr",
          "type": "address"
        }
      ],
      "name": "setDevAddress",
      "outputs": [],
      "stateMutability": "nonpayable",
      "type": "function"
    },
    {
      "inputs": [
        {
          "internalType": "uint256",
          "name": "_WMFPerSecond",
          "type": "uint256"
        }
      ],
      "name": "updateEmissionRate",
      "outputs": [],
      "stateMutability": "nonpayable",
      "type": "function"
    },
    {
      "inputs": [
        {
          "internalType": "uint256",
          "name": "_newStartTime",
          "type": "uint256"
        }
      ],
      "name": "updateStartTime",
      "outputs": [],
      "stateMutability": "nonpayable",
      "type": "function"
    }
  ],
  "bytecode": "0x60a0604052620151806007553480156200001857600080fd5b5060405162002e9938038062002e99833981810160405260808110156200003e57600080fd5b810190808051906020019092919080519060200190929190805190602001909291908051906020019092919050505060006200007f620001b460201b60201c565b9050806000806101000a81548173ffffffffffffffffffffffffffffffffffffffff021916908373ffffffffffffffffffffffffffffffffffffffff1602179055508073ffffffffffffffffffffffffffffffffffffffff16600073ffffffffffffffffffffffffffffffffffffffff167f8be0079c531659141344cd1fd0a4f28419497f9722a3daafe3b4186f6b6457e060405160405180910390a350600180819055508373ffffffffffffffffffffffffffffffffffffffff1660808173ffffffffffffffffffffffffffffffffffffffff1660601b8152505082600260006101000a81548173ffffffffffffffffffffffffffffffffffffffff021916908373ffffffffffffffffffffffffffffffffffffffff160217905550816003819055508060068190555050505050620001bc565b600033905090565b60805160601c612ca6620001f360003980610d545280610f83528061114d5280612256528061233d52806124265250612ca66000f3fe608060405234801561001057600080fd5b50600436106101375760003560e01c806378e97925116100b8578063a41fe49f1161007c578063a41fe49f146104a4578063d0d41fe1146104e6578063d49672821461052a578063d49e77cd14610548578063e2bbb15814610592578063f2fde38b146105ca57610137565b806378e97925146103595780637c1f751f146103775780638da5cb5b146103a55780638dbb1e3a146103ef57806393f1a40b1461043b57610137565b80634e533572116100ff5780634e533572146102365780635312ea8e146102b95780635f38a26b146102e75780636e27cef914610331578063715018a61461034f57610137565b806306bcf02f1461013c5780630ba84cd21461016a5780632fd87a4c14610198578063436cc3d6146101b65780634c47834a146101d4575b600080fd5b6101686004803603602081101561015257600080fd5b810190808035906020019092919050505061060e565b005b6101966004803603602081101561018057600080fd5b810190808035906020019092919050505061081a565b005b6101a06109b9565b6040518082815260200191505060405180910390f35b6101be6109bf565b6040518082815260200191505060405180910390f35b610220600480360360408110156101ea57600080fd5b8101908080359060200190929190803573ffffffffffffffffffffffffffffffffffffffff1690602001909291905050506109cb565b6040518082815260200191505060405180910390f35b6102626004803603602081101561024c57600080fd5b8101908080359060200190929190505050610aff565b604051808573ffffffffffffffffffffffffffffffffffffffff1673ffffffffffffffffffffffffffffffffffffffff16815260200184815260200183815260200182815260200194505050505060405180910390f35b6102e5600480360360208110156102cf57600080fd5b8101908080359060200190929190505050610b5c565b005b6102ef610d52565b604051808273ffffffffffffffffffffffffffffffffffffffff1673ffffffffffffffffffffffffffffffffffffffff16815260200191505060405180910390f35b610339610d76565b6040518082815260200191505060405180910390f35b610357610d7c565b005b610361610f04565b6040518082815260200191505060405180910390f35b6103a36004803603602081101561038d57600080fd5b8101908080359060200190929190505050610f0a565b005b6103ad61133f565b604051808273ffffffffffffffffffffffffffffffffffffffff1673ffffffffffffffffffffffffffffffffffffffff16815260200191505060405180910390f35b6104256004803603604081101561040557600080fd5b810190808035906020019092919080359060200190929190505050611368565b6040518082815260200191505060405180910390f35b6104876004803603604081101561045157600080fd5b8101908080359060200190929190803573ffffffffffffffffffffffffffffffffffffffff169060200190929190505050611385565b604051808381526020018281526020019250505060405180910390f35b6104e4600480360360608110156104ba57600080fd5b810190808035906020019092919080359060200190929190803590602001909291905050506113b6565b005b610528600480360360208110156104fc57600080fd5b81019080803573ffffffffffffffffffffffffffffffffffffffff16906020019092919050505061173a565b005b61053261193e565b6040518082815260200191505060405180910390f35b61055061194b565b604051808273ffffffffffffffffffffffffffffffffffffffff1673ffffffffffffffffffffffffffffffffffffffff16815260200191505060405180910390f35b6105c8600480360360408110156105a857600080fd5b810190808035906020019092919080359060200190929190505050611971565b005b61060c600480360360208110156105e057600080fd5b81019080803573ffffffffffffffffffffffffffffffffffffffff169060200190929190505050611de3565b005b610616611ff0565b73ffffffffffffffffffffffffffffffffffffffff166000809054906101000a900473ffffffffffffffffffffffffffffffffffffffff1673ffffffffffffffffffffffffffffffffffffffff16146106d7576040517f08c379a00000000000000000000000000000000000000000000000000000000081526004018080602001828103825260208152602001807f4f776e61626c653a2063616c6c6572206973206e6f7420746865206f776e657281525060200191505060405180910390fd5b6006544210610731576040517f08c379a0000000000000000000000000000000000000000000000000000000008152600401808060200182810382526034815260200180612bf26034913960400191505060405180910390fd5b804210610789576040517f08c379a0000000000000000000000000000000000000000000000000000000008152600401808060200182810382526021815260200180612bd16021913960400191505060405180910390fd5b6000600480549050905060008090505b818110156107d5576000600482815481106107b057fe5b9060005260206000209060040201905083816001018190555050806001019050610799565b50816006819055507fa09018266c541576eb124551c9c57c82a8129add3ba6777a5974b1d0e6252e996006546040518082815260200191505060405180910390a15050565b610822611ff0565b73ffffffffffffffffffffffffffffffffffffffff166000809054906101000a900473ffffffffffffffffffffffffffffffffffffffff1673ffffffffffffffffffffffffffffffffffffffff16146108e3576040517f08c379a00000000000000000000000000000000000000000000000000000000081526004018080602001828103825260208152602001807f4f776e61626c653a2063616c6c6572206973206e6f7420746865206f776e657281525060200191505060405180910390fd5b6706f05b59d3b20000811115610961576040517f08c379a00000000000000000000000000000000000000000000000000000000081526004018080602001828103825260088152602001807f546f6f206869676800000000000000000000000000000000000000000000000081525060200191505060405180910390fd5b806003819055503373ffffffffffffffffffffffffffffffffffffffff167fe2492e003bbe8afa53088b406f0c1cb5d9e280370fc72a74cf116ffd343c4053826040518082815260200191505060405180910390a250565b60035481565b6706f05b59d3b2000081565b600080600484815481106109db57fe5b9060005260206000209060040201905060006005600086815260200190815260200160002060008573ffffffffffffffffffffffffffffffffffffffff1673ffffffffffffffffffffffffffffffffffffffff1681526020019081526020016000209050600082600201549050826001015442118015610a6057506000836003015414155b15610aad57610aaa610a9b8460030154610a8d670de0b6b3a7640000600354611ff890919063ffffffff16565b61207e90919063ffffffff16565b826120c890919063ffffffff16565b90505b610af48260010154610ae6670de0b6b3a7640000610ad8858760000154611ff890919063ffffffff16565b61207e90919063ffffffff16565b61215090919063ffffffff16565b935050505092915050565b60048181548110610b0c57fe5b90600052602060002090600402016000915090508060000160009054906101000a900473ffffffffffffffffffffffffffffffffffffffff16908060010154908060020154908060030154905084565b60026001541415610bd5576040517f08c379a000000000000000000000000000000000000000000000000000000000815260040180806020018281038252601f8152602001807f5265656e7472616e637947756172643a207265656e7472616e742063616c6c0081525060200191505060405180910390fd5b6002600181905550600060048281548110610bec57fe5b9060005260206000209060040201905060006005600084815260200190815260200160002060003373ffffffffffffffffffffffffffffffffffffffff1673ffffffffffffffffffffffffffffffffffffffff16815260200190815260200160002090506000816000015490506000826000018190555060008260010181905550610cbc33828560000160009054906101000a900473ffffffffffffffffffffffffffffffffffffffff1673ffffffffffffffffffffffffffffffffffffffff1661219a9092919063ffffffff16565b80836003015410610ceb57610cde81846003015461215090919063ffffffff16565b8360030181905550610cf6565b600083600301819055505b833373ffffffffffffffffffffffffffffffffffffffff167fbb757047c2b5f3974fe26b7c10f732e7bce710b0952a71082702781e62ae0595836040518082815260200191505060405180910390a35050506001808190555050565b7f000000000000000000000000000000000000000000000000000000000000000081565b60075481565b610d84611ff0565b73ffffffffffffffffffffffffffffffffffffffff166000809054906101000a900473ffffffffffffffffffffffffffffffffffffffff1673ffffffffffffffffffffffffffffffffffffffff1614610e45576040517f08c379a00000000000000000000000000000000000000000000000000000000081526004018080602001828103825260208152602001807f4f776e61626c653a2063616c6c6572206973206e6f7420746865206f776e657281525060200191505060405180910390fd5b600073ffffffffffffffffffffffffffffffffffffffff166000809054906101000a900473ffffffffffffffffffffffffffffffffffffffff1673ffffffffffffffffffffffffffffffffffffffff167f8be0079c531659141344cd1fd0a4f28419497f9722a3daafe3b4186f6b6457e060405160405180910390a360008060006101000a81548173ffffffffffffffffffffffffffffffffffffffff021916908373ffffffffffffffffffffffffffffffffffffffff160217905550565b60065481565b600060048281548110610f1957fe5b9060005260206000209060040201905080600101544211610f3a575061133c565b600081600301541415610f56574281600101819055505061133c565b6000610f66826001015442611368565b90506000610f7f60035483611ff890919063ffffffff16565b90507f000000000000000000000000000000000000000000000000000000000000000073ffffffffffffffffffffffffffffffffffffffff1663b4f56b26600260009054906101000a900473ffffffffffffffffffffffffffffffffffffffff16610ff4600a8561207e90919063ffffffff16565b6040518363ffffffff1660e01b8152600401808373ffffffffffffffffffffffffffffffffffffffff1673ffffffffffffffffffffffffffffffffffffffff16815260200182815260200192505050600060405180830381600087803b15801561105d57600080fd5b505af192505050801561106e575060015b61114a573d806000811461109e576040519150601f19603f3d011682016040523d82523d6000602084013e6110a3565b606091505b50600091507f674ea87f0367f6873904f93c7357350b680a45c46f08203d20c873909b41660d816040518080602001828103825283818151815260200191508051906020019080838360005b8381101561110a5780820151818401526020810190506110ef565b50505050905090810190601f1680156111375780820380516001836020036101000a031916815260200191505b509250505060405180910390a15061114b565b5b7f000000000000000000000000000000000000000000000000000000000000000073ffffffffffffffffffffffffffffffffffffffff1663b4f56b2630836040518363ffffffff1660e01b8152600401808373ffffffffffffffffffffffffffffffffffffffff1673ffffffffffffffffffffffffffffffffffffffff16815260200182815260200192505050600060405180830381600087803b1580156111f257600080fd5b505af1925050508015611203575060015b6112df573d8060008114611233576040519150601f19603f3d011682016040523d82523d6000602084013e611238565b606091505b50600091507f674ea87f0367f6873904f93c7357350b680a45c46f08203d20c873909b41660d816040518080602001828103825283818151815260200191508051906020019080838360005b8381101561129f578082015181840152602081019050611284565b50505050905090810190601f1680156112cc5780820380516001836020036101000a031916815260200191505b509250505060405180910390a1506112e0565b5b6113276113148460030154611306670de0b6b3a764000085611ff890919063ffffffff16565b61207e90919063ffffffff16565b84600201546120c890919063ffffffff16565b83600201819055504283600101819055505050505b50565b60008060009054906101000a900473ffffffffffffffffffffffffffffffffffffffff16905090565b600061137d838361215090919063ffffffff16565b905092915050565b6005602052816000526040600020602052806000526040600020600091509150508060000154908060010154905082565b6002600154141561142f576040517f08c379a000000000000000000000000000000000000000000000000000000000815260040180806020018281038252601f8152602001807f5265656e7472616e637947756172643a207265656e7472616e742063616c6c0081525060200191505060405180910390fd5b600260018190555060006004848154811061144657fe5b9060005260206000209060040201905060006005600086815260200190815260200160002060003373ffffffffffffffffffffffffffffffffffffffff1673ffffffffffffffffffffffffffffffffffffffff16815260200190815260200160002090508381600001541015611524576040517f08c379a00000000000000000000000000000000000000000000000000000000081526004018080602001828103825260128152602001807f77697468647261773a206e6f7420676f6f64000000000000000000000000000081525060200191505060405180910390fd5b60075483101561159c576040517f08c379a000000000000000000000000000000000000000000000000000000000815260040180806020018281038252601a8152602001807f4d696e696d756d207374616b652074696d65206e6f74206d657400000000000081525060200191505060405180910390fd5b6115a585610f0a565b60006115f282600101546115e4670de0b6b3a76400006115d687600201548760000154611ff890919063ffffffff16565b61207e90919063ffffffff16565b61215090919063ffffffff16565b90506000811115611608576116073382612252565b5b600085111561169f5761162885836000015461215090919063ffffffff16565b826000018190555061167f33868560000160009054906101000a900473ffffffffffffffffffffffffffffffffffffffff1673ffffffffffffffffffffffffffffffffffffffff1661219a9092919063ffffffff16565b61169685846003015461215090919063ffffffff16565b83600301819055505b6116d4670de0b6b3a76400006116c685600201548560000154611ff890919063ffffffff16565b61207e90919063ffffffff16565b8260010181905550853373ffffffffffffffffffffffffffffffffffffffff167ff279e6a1f5e320cca91135676d9cb6e44ca8a08c0b88342bcdb1144f6511b568876040518082815260200191505060405180910390a350505060018081905550505050565b600260009054906101000a900473ffffffffffffffffffffffffffffffffffffffff1673ffffffffffffffffffffffffffffffffffffffff163373ffffffffffffffffffffffffffffffffffffffff16146117fd576040517f08c379a00000000000000000000000000000000000000000000000000000000081526004018080602001828103825260098152602001807f6465763a207775743f000000000000000000000000000000000000000000000081525060200191505060405180910390fd5b600073ffffffffffffffffffffffffffffffffffffffff168173ffffffffffffffffffffffffffffffffffffffff1614156118a0576040517f08c379a00000000000000000000000000000000000000000000000000000000081526004018080602001828103825260088152602001807f216e6f6e7a65726f00000000000000000000000000000000000000000000000081525060200191505060405180910390fd5b80600260006101000a81548173ffffffffffffffffffffffffffffffffffffffff021916908373ffffffffffffffffffffffffffffffffffffffff1602179055508073ffffffffffffffffffffffffffffffffffffffff163373ffffffffffffffffffffffffffffffffffffffff167f618c54559e94f1499a808aad71ee8729f8e74e8c48e979616328ce493a1a52e760405160405180910390a350565b6000600480549050905090565b600260009054906101000a900473ffffffffffffffffffffffffffffffffffffffff1681565b600260015414156119ea576040517f08c379a000000000000000000000000000000000000000000000000000000000815260040180806020018281038252601f8152602001807f5265656e7472616e637947756172643a207265656e7472616e742063616c6c0081525060200191505060405180910390fd5b6002600181905550600060048381548110611a0157fe5b9060005260206000209060040201905060006005600085815260200190815260200160002060003373ffffffffffffffffffffffffffffffffffffffff1673ffffffffffffffffffffffffffffffffffffffff1681526020019081526020016000209050611a6e84610f0a565b600081600001541115611ae0576000611ac88260010154611aba670de0b6b3a7640000611aac87600201548760000154611ff890919063ffffffff16565b61207e90919063ffffffff16565b61215090919063ffffffff16565b90506000811115611ade57611add3382612252565b5b505b6000831115611d4a5760008260000160009054906101000a900473ffffffffffffffffffffffffffffffffffffffff1673ffffffffffffffffffffffffffffffffffffffff166370a08231306040518263ffffffff1660e01b8152600401808273ffffffffffffffffffffffffffffffffffffffff1673ffffffffffffffffffffffffffffffffffffffff16815260200191505060206040518083038186803b158015611b8c57600080fd5b505afa158015611ba0573d6000803e3d6000fd5b505050506040513d6020811015611bb657600080fd5b81019080805190602001909291905050509050611c1a3330868660000160009054906101000a900473ffffffffffffffffffffffffffffffffffffffff1673ffffffffffffffffffffffffffffffffffffffff16612582909392919063ffffffff16565b611d08818460000160009054906101000a900473ffffffffffffffffffffffffffffffffffffffff1673ffffffffffffffffffffffffffffffffffffffff166370a08231306040518263ffffffff1660e01b8152600401808273ffffffffffffffffffffffffffffffffffffffff1673ffffffffffffffffffffffffffffffffffffffff16815260200191505060206040518083038186803b158015611cbf57600080fd5b505afa158015611cd3573d6000803e3d6000fd5b505050506040513d6020811015611ce957600080fd5b810190808051906020019092919050505061215090919063ffffffff16565b9350611d218483600001546120c890919063ffffffff16565b8260000181905550611d408484600301546120c890919063ffffffff16565b8360030181905550505b611d7f670de0b6b3a7640000611d7184600201548460000154611ff890919063ffffffff16565b61207e90919063ffffffff16565b8160010181905550833373ffffffffffffffffffffffffffffffffffffffff167f90890809c654f11d6e72a28fa60149770a0d11ec6c92319d6ceb2bb0a4ea1a15856040518082815260200191505060405180910390a35050600180819055505050565b611deb611ff0565b73ffffffffffffffffffffffffffffffffffffffff166000809054906101000a900473ffffffffffffffffffffffffffffffffffffffff1673ffffffffffffffffffffffffffffffffffffffff1614611eac576040517f08c379a00000000000000000000000000000000000000000000000000000000081526004018080602001828103825260208152602001807f4f776e61626c653a2063616c6c6572206973206e6f7420746865206f776e657281525060200191505060405180910390fd5b600073ffffffffffffffffffffffffffffffffffffffff168173ffffffffffffffffffffffffffffffffffffffff161415611f32576040517f08c379a0000000000000000000000000000000000000000000000000000000008152600401808060200182810382526026815260200180612b856026913960400191505060405180910390fd5b8073ffffffffffffffffffffffffffffffffffffffff166000809054906101000a900473ffffffffffffffffffffffffffffffffffffffff1673ffffffffffffffffffffffffffffffffffffffff167f8be0079c531659141344cd1fd0a4f28419497f9722a3daafe3b4186f6b6457e060405160405180910390a3806000806101000a81548173ffffffffffffffffffffffffffffffffffffffff021916908373ffffffffffffffffffffffffffffffffffffffff16021790555050565b600033905090565b60008083141561200b5760009050612078565b600082840290508284828161201c57fe5b0414612073576040517f08c379a0000000000000000000000000000000000000000000000000000000008152600401808060200182810382526021815260200180612c266021913960400191505060405180910390fd5b809150505b92915050565b60006120c083836040518060400160405280601a81526020017f536166654d6174683a206469766973696f6e206279207a65726f00000000000081525061266f565b905092915050565b600080828401905083811015612146576040517f08c379a000000000000000000000000000000000000000000000000000000000815260040180806020018281038252601b8152602001807f536166654d6174683a206164646974696f6e206f766572666c6f77000000000081525060200191505060405180910390fd5b8091505092915050565b600061219283836040518060400160405280601e81526020017f536166654d6174683a207375627472616374696f6e206f766572666c6f770000815250612735565b905092915050565b61224d8363a9059cbb60e01b8484604051602401808373ffffffffffffffffffffffffffffffffffffffff1673ffffffffffffffffffffffffffffffffffffffff16815260200182815260200192505050604051602081830303815290604052907bffffffffffffffffffffffffffffffffffffffffffffffffffffffff19166020820180517bffffffffffffffffffffffffffffffffffffffffffffffffffffffff83818316178352505050506127f5565b505050565b60007f000000000000000000000000000000000000000000000000000000000000000073ffffffffffffffffffffffffffffffffffffffff166370a08231306040518263ffffffff1660e01b8152600401808273ffffffffffffffffffffffffffffffffffffffff1673ffffffffffffffffffffffffffffffffffffffff16815260200191505060206040518083038186803b1580156122f157600080fd5b505afa158015612305573d6000803e3d6000fd5b505050506040513d602081101561231b57600080fd5b81019080805190602001909291905050509050600080905081831115612424577f000000000000000000000000000000000000000000000000000000000000000073ffffffffffffffffffffffffffffffffffffffff1663a9059cbb85846040518363ffffffff1660e01b8152600401808373ffffffffffffffffffffffffffffffffffffffff1673ffffffffffffffffffffffffffffffffffffffff16815260200182815260200192505050602060405180830381600087803b1580156123e257600080fd5b505af11580156123f6573d6000803e3d6000fd5b505050506040513d602081101561240c57600080fd5b81019080805190602001909291905050509050612509565b7f000000000000000000000000000000000000000000000000000000000000000073ffffffffffffffffffffffffffffffffffffffff1663a9059cbb85856040518363ffffffff1660e01b8152600401808373ffffffffffffffffffffffffffffffffffffffff1673ffffffffffffffffffffffffffffffffffffffff16815260200182815260200192505050602060405180830381600087803b1580156124cb57600080fd5b505af11580156124df573d6000803e3d6000fd5b505050506040513d60208110156124f557600080fd5b810190808051906020019092919050505090505b8061257c576040517f08c379a00000000000000000000000000000000000000000000000000000000081526004018080602001828103825260208152602001807f73616665574d465472616e736665723a207472616e73666572206661696c656481525060200191505060405180910390fd5b50505050565b612669846323b872dd60e01b858585604051602401808473ffffffffffffffffffffffffffffffffffffffff1673ffffffffffffffffffffffffffffffffffffffff1681526020018373ffffffffffffffffffffffffffffffffffffffff1673ffffffffffffffffffffffffffffffffffffffff1681526020018281526020019350505050604051602081830303815290604052907bffffffffffffffffffffffffffffffffffffffffffffffffffffffff19166020820180517bffffffffffffffffffffffffffffffffffffffffffffffffffffffff83818316178352505050506127f5565b50505050565b6000808311829061271b576040517f08c379a00000000000000000000000000000000000000000000000000000000081526004018080602001828103825283818151815260200191508051906020019080838360005b838110156126e05780820151818401526020810190506126c5565b50505050905090810190601f16801561270d5780820380516001836020036101000a031916815260200191505b509250505060405180910390fd5b50600083858161272757fe5b049050809150509392505050565b60008383111582906127e2576040517f08c379a00000000000000000000000000000000000000000000000000000000081526004018080602001828103825283818151815260200191508051906020019080838360005b838110156127a757808201518184015260208101905061278c565b50505050905090810190601f1680156127d45780820380516001836020036101000a031916815260200191505b509250505060405180910390fd5b5060008385039050809150509392505050565b6060612857826040518060400160405280602081526020017f5361666545524332303a206c6f772d6c6576656c2063616c6c206661696c65648152508573ffffffffffffffffffffffffffffffffffffffff166128e49092919063ffffffff16565b90506000815111156128df5780806020019051602081101561287857600080fd5b81019080805190602001909291905050506128de576040517f08c379a000000000000000000000000000000000000000000000000000000000815260040180806020018281038252602a815260200180612c47602a913960400191505060405180910390fd5b5b505050565b60606128f384846000856128fc565b90509392505050565b606082471015612957576040517f08c379a0000000000000000000000000000000000000000000000000000000008152600401808060200182810382526026815260200180612bab6026913960400191505060405180910390fd5b61296085612aa5565b6129d2576040517f08c379a000000000000000000000000000000000000000000000000000000000815260040180806020018281038252601d8152602001807f416464726573733a2063616c6c20746f206e6f6e2d636f6e747261637400000081525060200191505060405180910390fd5b600060608673ffffffffffffffffffffffffffffffffffffffff1685876040518082805190602001908083835b60208310612a2257805182526020820191506020810190506020830392506129ff565b6001836020036101000a03801982511681845116808217855250505050505090500191505060006040518083038185875af1925050503d8060008114612a84576040519150601f19603f3d011682016040523d82523d6000602084013e612a89565b606091505b5091509150612a99828286612ab8565b92505050949350505050565b600080823b905060008111915050919050565b60608315612ac857829050612b7d565b600083511115612adb5782518084602001fd5b816040517f08c379a00000000000000000000000000000000000000000000000000000000081526004018080602001828103825283818151815260200191508051906020019080838360005b83811015612b42578082015181840152602081019050612b27565b50505050905090810190601f168015612b6f5780820380516001836020036101000a031916815260200191505b509250505060405180910390fd5b939250505056fe4f776e61626c653a206e6577206f776e657220697320746865207a65726f2061646472657373416464726573733a20696e73756666696369656e742062616c616e636520666f722063616c6c63616e6e6f74207365742073746172742074696d6520696e20746865207061737463616e6e6f74206368616e67652073746172742074696d65206966206661726d2068617320616c72656164792073746172746564536166654d6174683a206d756c7469706c69636174696f6e206f766572666c6f775361666545524332303a204552433230206f7065726174696f6e20646964206e6f742073756363656564a26469706673582212208c61a64e3196913b20a19eefe4d0410c4b73f3b870aa5b569b90d23677d2104e64736f6c63430006060033",
  "immutableReferences": {
    "4160": [
      {
        "length": 32,
        "start": 3412
      },
      {
        "length": 32,
        "start": 3971
      },
      {
        "length": 32,
        "start": 4429
      },
      {
        "length": 32,
        "start": 8790
      },
      {
        "length": 32,
        "start": 9021
      },
      {
        "length": 32,
        "start": 9254
      }
    ]
  },
  "source": "// SPDX-License-Identifier: MIT\r\npragma solidity =0.6.6;\r\n\r\nimport \"../module/Math/SafeMath.sol\";\r\nimport \"../module/ERC20/SafeERC20.sol\";\r\nimport \"../module/Common/Ownable.sol\";\r\nimport \"../module/Utils/ReentrancyGuard.sol\";\r\nimport \"../We_Made_Future.sol\";\r\n\r\ncontract WMFStake is Ownable, ReentrancyGuard {\r\n    using SafeMath for uint256;\r\n    using SafeERC20 for IERC20;\r\n\r\n    // Info of each user.\r\n    struct UserInfo {\r\n        uint256 amount;         // How many WMF tokens the user has provided.\r\n        uint256 rewardDebt;     // Reward debt. See explanation below.\r\n    }\r\n\r\n    // Info of each stake.\r\n    struct StakeInfo {\r\n        IERC20 StakeToken;           // Address of Stake token contract.\r\n        uint256 lastRewardSecond;  // Last second that WMFs distribution occurs.\r\n        uint256 accWMFPerShare;   // Accumulated WMFs per share, times 1e18. See below.\r\n        uint256 totalSupply;\r\n    }\r\n\r\n    // The WMF TOKEN!\r\n    We_Made_Future public immutable WMF;\r\n    // Dev address.\r\n    address public devaddr;\r\n    // WMF tokens created per second.\r\n    uint256 public WMFPerSecond;\r\n\r\n    // Info of each stake.\r\n    StakeInfo[] public stakeInfo;\r\n    // Info of each user that stakes LP tokens.\r\n    mapping(uint256 => mapping(address => UserInfo)) public userInfo;\r\n    // The block timestamp when WMF mining starts.\r\n    uint256 public startTime;\r\n\r\n    uint256 public lock_time_min = 86400;\r\n\r\n    // Maximum WMFPerTime\r\n    uint256 public constant MAX_EMISSION_RATE = 500000000000000000;\r\n\r\n    constructor(\r\n        We_Made_Future _WMF,\r\n        address _devaddr,\r\n        uint256 _WMFPerTime,\r\n        uint256 _startTime\r\n    ) public {\r\n        WMF = _WMF;\r\n        devaddr = _devaddr;\r\n        WMFPerSecond = _WMFPerTime;\r\n        startTime = _startTime;\r\n    }\r\n\r\n    function stakeLength() external view returns (uint256) {\r\n        return stakeInfo.length;\r\n    }\r\n\r\n    // Return reward multiplier over the given _from to _to block.\r\n    function getMultiplier(uint256 _from, uint256 _to) public pure returns (uint256) {\r\n        return _to.sub(_from);\r\n    }\r\n\r\n    // View function to see pending WMFs on frontend.\r\n    function pendingWMF(uint256 _sid, address _user) external view returns (uint256) {\r\n        StakeInfo storage stake = stakeInfo[_sid];\r\n        UserInfo storage user = userInfo[_sid][_user];\r\n        uint256 accWMFPerShare = stake.accWMFPerShare;\r\n        if (block.timestamp > stake.lastRewardSecond && stake.totalSupply != 0) {\r\n            accWMFPerShare = accWMFPerShare.add(WMFPerSecond.mul(1e18).div(stake.totalSupply));\r\n        }\r\n        return user.amount.mul(accWMFPerShare).div(1e18).sub(user.rewardDebt);\r\n    }\r\n\r\n    // Update reward variables of the given stake to be up-to-date.\r\n    function updateStake(uint256 _sid) public {\r\n        StakeInfo storage stake = stakeInfo[_sid];\r\n        if (block.timestamp <= stake.lastRewardSecond) {\r\n            return;\r\n        }\r\n        if (stake.totalSupply == 0) {\r\n            stake.lastRewardSecond = block.timestamp;\r\n            return;\r\n        }\r\n        uint256 multiplier = getMultiplier(stake.lastRewardSecond, block.timestamp);\r\n        uint256 WMFReward = multiplier.mul(WMFPerSecond);\r\n        \r\n        try WMF.pool_mint(devaddr, WMFReward.div(10)) {\r\n        } catch (bytes memory reason) {\r\n            WMFReward = 0;\r\n            emit WMFMintError(reason);\r\n        }\r\n        \r\n        try WMF.pool_mint(address(this), WMFReward) {\r\n        } catch (bytes memory reason) {\r\n            WMFReward = 0;\r\n            emit WMFMintError(reason);\r\n        }\r\n        \r\n        stake.accWMFPerShare = stake.accWMFPerShare.add(WMFReward.mul(1e18).div(stake.totalSupply));\r\n        stake.lastRewardSecond = block.timestamp;\r\n    }\r\n    \r\n    // Deposit LP tokens to MasterChef for WMF allocation.\r\n    function deposit(uint256 _sid, uint256 _amount) external nonReentrant {\r\n        StakeInfo storage stake = stakeInfo[_sid];\r\n        UserInfo storage user = userInfo[_sid][msg.sender];\r\n        updateStake(_sid);\r\n        if (user.amount > 0) {\r\n            uint256 pending = user.amount.mul(stake.accWMFPerShare).div(1e18).sub(user.rewardDebt);\r\n            if (pending > 0) {\r\n                safeWMFTransfer(msg.sender, pending);\r\n            }\r\n        }\r\n        if (_amount > 0) {\r\n            uint256 balanceBefore = stake.StakeToken.balanceOf(address(this));\r\n            stake.StakeToken.safeTransferFrom(address(msg.sender), address(this), _amount);\r\n            _amount = stake.StakeToken.balanceOf(address(this)).sub(balanceBefore);\r\n\r\n            user.amount = user.amount.add(_amount);\r\n            stake.totalSupply = stake.totalSupply.add(_amount);\r\n        }\r\n\r\n        user.rewardDebt = user.amount.mul(stake.accWMFPerShare).div(1e18);\r\n        emit Deposit(msg.sender, _sid, _amount);\r\n    }\r\n\r\n    // Withdraw LP tokens from WMFChef.\r\n    function withdraw(uint256 _sid, uint256 _amount, uint256 secs) external nonReentrant {\r\n        StakeInfo storage stake = stakeInfo[_sid];\r\n        UserInfo storage user = userInfo[_sid][msg.sender];\r\n        require(user.amount >= _amount, \"withdraw: not good\");\r\n        require(secs >= lock_time_min, \"Minimum stake time not met\");\r\n        updateStake(_sid);\r\n        uint256 pending = user.amount.mul(stake.accWMFPerShare).div(1e18).sub(user.rewardDebt);\r\n        if (pending > 0) {\r\n            safeWMFTransfer(msg.sender, pending);\r\n        }\r\n        if (_amount > 0) {\r\n            user.amount = user.amount.sub(_amount);\r\n            stake.StakeToken.safeTransfer(address(msg.sender), _amount);\r\n            stake.totalSupply = stake.totalSupply.sub(_amount);\r\n        }\r\n\r\n        user.rewardDebt = user.amount.mul(stake.accWMFPerShare).div(1e18);\r\n        emit Withdraw(msg.sender, _sid, _amount);\r\n    }\r\n\r\n    // Withdraw without caring about rewards. EMERGENCY ONLY.\r\n    function emergencyWithdraw(uint256 _sid) external nonReentrant {\r\n        StakeInfo storage stake = stakeInfo[_sid];\r\n        UserInfo storage user = userInfo[_sid][msg.sender];\r\n        uint256 amount = user.amount;\r\n        user.amount = 0;\r\n        user.rewardDebt = 0;\r\n        stake.StakeToken.safeTransfer(address(msg.sender), amount);\r\n\r\n        if (stake.totalSupply >=  amount) {\r\n            stake.totalSupply = stake.totalSupply.sub(amount);\r\n        } else {\r\n            stake.totalSupply = 0;\r\n        }\r\n\r\n        emit EmergencyWithdraw(msg.sender, _sid, amount);\r\n    }\r\n\r\n    // Safe WMF transfer function, just in case if rounding error causes stake to not have enough WMFs.\r\n    function safeWMFTransfer(address _to, uint256 _amount) internal {\r\n        uint256 WMFBal = WMF.balanceOf(address(this));\r\n        bool transferSuccess = false;\r\n        if (_amount > WMFBal) {\r\n            transferSuccess = WMF.transfer(_to, WMFBal);\r\n        } else {\r\n            transferSuccess = WMF.transfer(_to, _amount);\r\n        }\r\n        require(transferSuccess, \"safeWMFTransfer: transfer failed\");\r\n    }\r\n\r\n    // Update dev address.\r\n    function setDevAddress(address _devaddr) external {\r\n        require(msg.sender == devaddr, \"dev: wut?\");\r\n        require(_devaddr != address(0), \"!nonzero\");\r\n\r\n        devaddr = _devaddr;\r\n        emit SetDevAddress(msg.sender, _devaddr);\r\n    }\r\n\r\n // Pancake has to add hidden dummy stakes inorder to alter the emission, here we make it simple and transparent to all.\r\n    function updateEmissionRate(uint256 _WMFPerSecond) external onlyOwner {\r\n        require(_WMFPerSecond <= MAX_EMISSION_RATE, \"Too high\");\r\n        WMFPerSecond = _WMFPerSecond;\r\n        emit UpdateEmissionRate(msg.sender, _WMFPerSecond);\r\n    }\r\n\r\n    // Only update before start of farm\r\n    function updateStartTime(uint256 _newStartTime) external onlyOwner {\r\n        require(block.timestamp < startTime, \"cannot change start time if farm has already started\");\r\n        require(block.timestamp < _newStartTime, \"cannot set start time in the past\");\r\n        uint256 length = stakeInfo.length;\r\n        for (uint256 sid = 0; sid < length; ++sid) {\r\n            StakeInfo storage stake = stakeInfo[sid];\r\n            stake.lastRewardSecond = _newStartTime;\r\n        }\r\n        startTime = _newStartTime;\r\n\r\n        emit UpdateStartTime(startTime);\r\n    }\r\n\r\n\r\n    event Deposit(address indexed user, uint256 indexed sid, uint256 amount);\r\n    event Withdraw(address indexed user, uint256 indexed sid, uint256 amount);\r\n    event EmergencyWithdraw(address indexed user, uint256 indexed sid, uint256 amount);\r\n    event SetDevAddress(address indexed user, address indexed newAddress);\r\n    event UpdateEmissionRate(address indexed user, uint256 WMFPerSecond);\r\n    event UpdateStartTime(uint256 newStartTime);\r\n    event WMFMintError(bytes reason);\r\n\r\n}",
  "sourcePath": "C:\\Users\\82102\\Desktop\\We-Made-Future\\contracts\\Token\\Staking\\Stake.sol",
  "compiler": {
    "name": "solc",
    "version": "0.6.6+commit.6c089d02.Emscripten.clang"
  },
  "schemaVersion": "3.4.4",
  "updatedAt": "2022-01-18T14:56:20.709Z",
  "devdoc": {
    "methods": {
      "owner()": {
        "details": "Returns the address of the current owner."
      },
      "renounceOwnership()": {
        "details": "Leaves the contract without owner. It will not be possible to call `onlyOwner` functions anymore. Can only be called by the current owner.      * NOTE: Renouncing ownership will leave the contract without an owner, thereby removing any functionality that is only available to the owner."
      },
      "transferOwnership(address)": {
        "details": "Transfers ownership of the contract to a new account (`newOwner`). Can only be called by the current owner."
      }
    }
  },
  "userdoc": {
    "methods": {}
  }
}