{
  "contractName": "WMFStake",
  "abi": [
    {
      "inputs": [
        {
          "internalType": "contract We_Made_Future",
          "name": "_WMF",
          "type": "address"
        },
        {
          "internalType": "address",
          "name": "_devaddr",
          "type": "address"
        },
        {
          "internalType": "uint256",
          "name": "_WMFPerTime",
          "type": "uint256"
        },
        {
          "internalType": "uint256",
          "name": "_startTime",
          "type": "uint256"
        }
      ],
      "stateMutability": "nonpayable",
      "type": "constructor"
    },
    {
      "anonymous": false,
      "inputs": [
        {
          "indexed": true,
          "internalType": "address",
          "name": "user",
          "type": "address"
        },
        {
          "indexed": true,
          "internalType": "uint256",
          "name": "sid",
          "type": "uint256"
        },
        {
          "indexed": false,
          "internalType": "uint256",
          "name": "amount",
          "type": "uint256"
        }
      ],
      "name": "Deposit",
      "type": "event"
    },
    {
      "anonymous": false,
      "inputs": [
        {
          "indexed": true,
          "internalType": "address",
          "name": "user",
          "type": "address"
        },
        {
          "indexed": true,
          "internalType": "uint256",
          "name": "sid",
          "type": "uint256"
        },
        {
          "indexed": false,
          "internalType": "uint256",
          "name": "amount",
          "type": "uint256"
        }
      ],
      "name": "EmergencyWithdraw",
      "type": "event"
    },
    {
      "anonymous": false,
      "inputs": [
        {
          "indexed": true,
          "internalType": "address",
          "name": "previousOwner",
          "type": "address"
        },
        {
          "indexed": true,
          "internalType": "address",
          "name": "newOwner",
          "type": "address"
        }
      ],
      "name": "OwnershipTransferred",
      "type": "event"
    },
    {
      "anonymous": false,
      "inputs": [
        {
          "indexed": true,
          "internalType": "address",
          "name": "user",
          "type": "address"
        },
        {
          "indexed": true,
          "internalType": "address",
          "name": "newAddress",
          "type": "address"
        }
      ],
      "name": "SetDevAddress",
      "type": "event"
    },
    {
      "anonymous": false,
      "inputs": [
        {
          "indexed": true,
          "internalType": "address",
          "name": "user",
          "type": "address"
        },
        {
          "indexed": false,
          "internalType": "uint256",
          "name": "WMFPerSecond",
          "type": "uint256"
        }
      ],
      "name": "UpdateEmissionRate",
      "type": "event"
    },
    {
      "anonymous": false,
      "inputs": [
        {
          "indexed": false,
          "internalType": "uint256",
          "name": "newStartTime",
          "type": "uint256"
        }
      ],
      "name": "UpdateStartTime",
      "type": "event"
    },
    {
      "anonymous": false,
      "inputs": [
        {
          "indexed": false,
          "internalType": "bytes",
          "name": "reason",
          "type": "bytes"
        }
      ],
      "name": "WMFMintError",
      "type": "event"
    },
    {
      "anonymous": false,
      "inputs": [
        {
          "indexed": true,
          "internalType": "address",
          "name": "user",
          "type": "address"
        },
        {
          "indexed": true,
          "internalType": "uint256",
          "name": "sid",
          "type": "uint256"
        },
        {
          "indexed": false,
          "internalType": "uint256",
          "name": "amount",
          "type": "uint256"
        }
      ],
      "name": "Withdraw",
      "type": "event"
    },
    {
      "inputs": [],
      "name": "MAX_EMISSION_RATE",
      "outputs": [
        {
          "internalType": "uint256",
          "name": "",
          "type": "uint256"
        }
      ],
      "stateMutability": "view",
      "type": "function"
    },
    {
      "inputs": [],
      "name": "WMF",
      "outputs": [
        {
          "internalType": "contract We_Made_Future",
          "name": "",
          "type": "address"
        }
      ],
      "stateMutability": "view",
      "type": "function"
    },
    {
      "inputs": [],
      "name": "WMFPerSecond",
      "outputs": [
        {
          "internalType": "uint256",
          "name": "",
          "type": "uint256"
        }
      ],
      "stateMutability": "view",
      "type": "function"
    },
    {
      "inputs": [],
      "name": "devaddr",
      "outputs": [
        {
          "internalType": "address",
          "name": "",
          "type": "address"
        }
      ],
      "stateMutability": "view",
      "type": "function"
    },
    {
      "inputs": [],
      "name": "lock_time_min",
      "outputs": [
        {
          "internalType": "uint256",
          "name": "",
          "type": "uint256"
        }
      ],
      "stateMutability": "view",
      "type": "function"
    },
    {
      "inputs": [],
      "name": "owner",
      "outputs": [
        {
          "internalType": "address",
          "name": "",
          "type": "address"
        }
      ],
      "stateMutability": "view",
      "type": "function"
    },
    {
      "inputs": [],
      "name": "renounceOwnership",
      "outputs": [],
      "stateMutability": "nonpayable",
      "type": "function"
    },
    {
      "inputs": [
        {
          "internalType": "uint256",
          "name": "",
          "type": "uint256"
        }
      ],
      "name": "stakeInfo",
      "outputs": [
        {
          "internalType": "contract IERC20",
          "name": "StakeToken",
          "type": "address"
        },
        {
          "internalType": "uint256",
          "name": "lastRewardSecond",
          "type": "uint256"
        },
        {
          "internalType": "uint256",
          "name": "accWMFPerShare",
          "type": "uint256"
        },
        {
          "internalType": "uint256",
          "name": "totalSupply",
          "type": "uint256"
        }
      ],
      "stateMutability": "view",
      "type": "function"
    },
    {
      "inputs": [],
      "name": "startTime",
      "outputs": [
        {
          "internalType": "uint256",
          "name": "",
          "type": "uint256"
        }
      ],
      "stateMutability": "view",
      "type": "function"
    },
    {
      "inputs": [
        {
          "internalType": "address",
          "name": "newOwner",
          "type": "address"
        }
      ],
      "name": "transferOwnership",
      "outputs": [],
      "stateMutability": "nonpayable",
      "type": "function"
    },
    {
      "inputs": [
        {
          "internalType": "uint256",
          "name": "",
          "type": "uint256"
        },
        {
          "internalType": "address",
          "name": "",
          "type": "address"
        }
      ],
      "name": "userInfo",
      "outputs": [
        {
          "internalType": "uint256",
          "name": "amount",
          "type": "uint256"
        },
        {
          "internalType": "uint256",
          "name": "rewardDebt",
          "type": "uint256"
        },
        {
          "internalType": "uint256",
          "name": "depositSecond",
          "type": "uint256"
        }
      ],
      "stateMutability": "view",
      "type": "function"
    },
    {
      "inputs": [],
      "name": "stakeLength",
      "outputs": [
        {
          "internalType": "uint256",
          "name": "",
          "type": "uint256"
        }
      ],
      "stateMutability": "view",
      "type": "function"
    },
    {
      "inputs": [
        {
          "internalType": "uint256",
          "name": "_from",
          "type": "uint256"
        },
        {
          "internalType": "uint256",
          "name": "_to",
          "type": "uint256"
        }
      ],
      "name": "getStakingduration",
      "outputs": [
        {
          "internalType": "uint256",
          "name": "",
          "type": "uint256"
        }
      ],
      "stateMutability": "pure",
      "type": "function"
    },
    {
      "inputs": [
        {
          "internalType": "uint256",
          "name": "_sid",
          "type": "uint256"
        },
        {
          "internalType": "address",
          "name": "_user",
          "type": "address"
        }
      ],
      "name": "pendingWMF",
      "outputs": [
        {
          "internalType": "uint256",
          "name": "",
          "type": "uint256"
        }
      ],
      "stateMutability": "view",
      "type": "function"
    },
    {
      "inputs": [
        {
          "internalType": "uint256",
          "name": "_sid",
          "type": "uint256"
        }
      ],
      "name": "updateStake",
      "outputs": [],
      "stateMutability": "nonpayable",
      "type": "function"
    },
    {
      "inputs": [
        {
          "internalType": "uint256",
          "name": "_sid",
          "type": "uint256"
        },
        {
          "internalType": "uint256",
          "name": "_amount",
          "type": "uint256"
        }
      ],
      "name": "deposit",
      "outputs": [],
      "stateMutability": "nonpayable",
      "type": "function"
    },
    {
      "inputs": [
        {
          "internalType": "uint256",
          "name": "_sid",
          "type": "uint256"
        },
        {
          "internalType": "uint256",
          "name": "_amount",
          "type": "uint256"
        }
      ],
      "name": "withdraw",
      "outputs": [],
      "stateMutability": "nonpayable",
      "type": "function"
    },
    {
      "inputs": [
        {
          "internalType": "uint256",
          "name": "_sid",
          "type": "uint256"
        }
      ],
      "name": "emergencyWithdraw",
      "outputs": [],
      "stateMutability": "nonpayable",
      "type": "function"
    },
    {
      "inputs": [
        {
          "internalType": "address",
          "name": "_devaddr",
          "type": "address"
        }
      ],
      "name": "setDevAddress",
      "outputs": [],
      "stateMutability": "nonpayable",
      "type": "function"
    },
    {
      "inputs": [
        {
          "internalType": "uint256",
          "name": "_WMFPerSecond",
          "type": "uint256"
        }
      ],
      "name": "updateEmissionRate",
      "outputs": [],
      "stateMutability": "nonpayable",
      "type": "function"
    },
    {
      "inputs": [
        {
          "internalType": "uint256",
          "name": "_newStartTime",
          "type": "uint256"
        }
      ],
      "name": "updateStartTime",
      "outputs": [],
      "stateMutability": "nonpayable",
      "type": "function"
    }
  ],
  "bytecode": "0x60a0604052620151806007553480156200001857600080fd5b5060405162002e8c38038062002e8c833981810160405260808110156200003e57600080fd5b810190808051906020019092919080519060200190929190805190602001909291908051906020019092919050505060006200007f620001b460201b60201c565b9050806000806101000a81548173ffffffffffffffffffffffffffffffffffffffff021916908373ffffffffffffffffffffffffffffffffffffffff1602179055508073ffffffffffffffffffffffffffffffffffffffff16600073ffffffffffffffffffffffffffffffffffffffff167f8be0079c531659141344cd1fd0a4f28419497f9722a3daafe3b4186f6b6457e060405160405180910390a350600180819055508373ffffffffffffffffffffffffffffffffffffffff1660808173ffffffffffffffffffffffffffffffffffffffff1660601b8152505082600260006101000a81548173ffffffffffffffffffffffffffffffffffffffff021916908373ffffffffffffffffffffffffffffffffffffffff160217905550816003819055508060068190555050505050620001bc565b600033905090565b60805160601c612c99620001f3600039806110e152806112ec52806114b6528061210952806121f052806122d95250612c996000f3fe608060405234801561001057600080fd5b50600436106101375760003560e01c8063715018a6116100b8578063d0d41fe11161007c578063d0d41fe114610497578063d4967282146104db578063d49e77cd146104f9578063e2bbb15814610543578063ef4c99931461057b578063f2fde38b146105c757610137565b8063715018a61461038757806378e97925146103915780637c1f751f146103af5780638da5cb5b146103dd57806393f1a40b1461042757610137565b80634c47834a116100ff5780634c47834a1461020c5780634e5335721461026e5780635312ea8e146102f15780635f38a26b1461031f5780636e27cef91461036957610137565b806306bcf02f1461013c5780630ba84cd21461016a5780632fd87a4c14610198578063436cc3d6146101b6578063441a3e70146101d4575b600080fd5b6101686004803603602081101561015257600080fd5b810190808035906020019092919050505061060b565b005b6101966004803603602081101561018057600080fd5b8101908080359060200190929190505050610817565b005b6101a06109b6565b6040518082815260200191505060405180910390f35b6101be6109bc565b6040518082815260200191505060405180910390f35b61020a600480360360408110156101ea57600080fd5b8101908080359060200190929190803590602001909291905050506109c8565b005b6102586004803603604081101561022257600080fd5b8101908080359060200190929190803573ffffffffffffffffffffffffffffffffffffffff169060200190929190505050610d58565b6040518082815260200191505060405180910390f35b61029a6004803603602081101561028457600080fd5b8101908080359060200190929190505050610e8c565b604051808573ffffffffffffffffffffffffffffffffffffffff1673ffffffffffffffffffffffffffffffffffffffff16815260200184815260200183815260200182815260200194505050505060405180910390f35b61031d6004803603602081101561030757600080fd5b8101908080359060200190929190505050610ee9565b005b6103276110df565b604051808273ffffffffffffffffffffffffffffffffffffffff1673ffffffffffffffffffffffffffffffffffffffff16815260200191505060405180910390f35b610371611103565b6040518082815260200191505060405180910390f35b61038f611109565b005b610399611291565b6040518082815260200191505060405180910390f35b6103db600480360360208110156103c557600080fd5b8101908080359060200190929190505050611297565b005b6103e56116a7565b604051808273ffffffffffffffffffffffffffffffffffffffff1673ffffffffffffffffffffffffffffffffffffffff16815260200191505060405180910390f35b6104736004803603604081101561043d57600080fd5b8101908080359060200190929190803573ffffffffffffffffffffffffffffffffffffffff1690602001909291905050506116d0565b60405180848152602001838152602001828152602001935050505060405180910390f35b6104d9600480360360208110156104ad57600080fd5b81019080803573ffffffffffffffffffffffffffffffffffffffff169060200190929190505050611707565b005b6104e361190b565b6040518082815260200191505060405180910390f35b610501611918565b604051808273ffffffffffffffffffffffffffffffffffffffff1673ffffffffffffffffffffffffffffffffffffffff16815260200191505060405180910390f35b6105796004803603604081101561055957600080fd5b81019080803590602001909291908035906020019092919050505061193e565b005b6105b16004803603604081101561059157600080fd5b810190808035906020019092919080359060200190929190505050611db9565b6040518082815260200191505060405180910390f35b610609600480360360208110156105dd57600080fd5b81019080803573ffffffffffffffffffffffffffffffffffffffff169060200190929190505050611dd6565b005b610613611fe3565b73ffffffffffffffffffffffffffffffffffffffff166000809054906101000a900473ffffffffffffffffffffffffffffffffffffffff1673ffffffffffffffffffffffffffffffffffffffff16146106d4576040517f08c379a00000000000000000000000000000000000000000000000000000000081526004018080602001828103825260208152602001807f4f776e61626c653a2063616c6c6572206973206e6f7420746865206f776e657281525060200191505060405180910390fd5b600654421061072e576040517f08c379a0000000000000000000000000000000000000000000000000000000008152600401808060200182810382526034815260200180612be56034913960400191505060405180910390fd5b804210610786576040517f08c379a0000000000000000000000000000000000000000000000000000000008152600401808060200182810382526021815260200180612bc46021913960400191505060405180910390fd5b6000600480549050905060008090505b818110156107d2576000600482815481106107ad57fe5b9060005260206000209060040201905083816001018190555050806001019050610796565b50816006819055507fa09018266c541576eb124551c9c57c82a8129add3ba6777a5974b1d0e6252e996006546040518082815260200191505060405180910390a15050565b61081f611fe3565b73ffffffffffffffffffffffffffffffffffffffff166000809054906101000a900473ffffffffffffffffffffffffffffffffffffffff1673ffffffffffffffffffffffffffffffffffffffff16146108e0576040517f08c379a00000000000000000000000000000000000000000000000000000000081526004018080602001828103825260208152602001807f4f776e61626c653a2063616c6c6572206973206e6f7420746865206f776e657281525060200191505060405180910390fd5b6706f05b59d3b2000081111561095e576040517f08c379a00000000000000000000000000000000000000000000000000000000081526004018080602001828103825260088152602001807f546f6f206869676800000000000000000000000000000000000000000000000081525060200191505060405180910390fd5b806003819055503373ffffffffffffffffffffffffffffffffffffffff167fe2492e003bbe8afa53088b406f0c1cb5d9e280370fc72a74cf116ffd343c4053826040518082815260200191505060405180910390a250565b60035481565b6706f05b59d3b2000081565b60026001541415610a41576040517f08c379a000000000000000000000000000000000000000000000000000000000815260040180806020018281038252601f8152602001807f5265656e7472616e637947756172643a207265656e7472616e742063616c6c0081525060200191505060405180910390fd5b6002600181905550600060048381548110610a5857fe5b9060005260206000209060040201905060006005600085815260200190815260200160002060003373ffffffffffffffffffffffffffffffffffffffff1673ffffffffffffffffffffffffffffffffffffffff16815260200190815260200160002090508281600001541015610b36576040517f08c379a00000000000000000000000000000000000000000000000000000000081526004018080602001828103825260128152602001807f77697468647261773a206e6f7420676f6f64000000000000000000000000000081525060200191505060405180910390fd5b600754610b47826002015442611db9565b1015610bbb576040517f08c379a000000000000000000000000000000000000000000000000000000000815260040180806020018281038252601a8152602001807f4d696e696d756d207374616b652074696d65206e6f74206d657400000000000081525060200191505060405180910390fd5b610bc484611297565b6000610c118260010154610c03670de0b6b3a7640000610bf587600201548760000154611feb90919063ffffffff16565b61207190919063ffffffff16565b6120bb90919063ffffffff16565b90506000811115610c2757610c263382612105565b5b6000841115610cbe57610c478483600001546120bb90919063ffffffff16565b8260000181905550610c9e33858560000160009054906101000a900473ffffffffffffffffffffffffffffffffffffffff1673ffffffffffffffffffffffffffffffffffffffff166124359092919063ffffffff16565b610cb58484600301546120bb90919063ffffffff16565b83600301819055505b610cf3670de0b6b3a7640000610ce585600201548560000154611feb90919063ffffffff16565b61207190919063ffffffff16565b8260010181905550843373ffffffffffffffffffffffffffffffffffffffff167ff279e6a1f5e320cca91135676d9cb6e44ca8a08c0b88342bcdb1144f6511b568866040518082815260200191505060405180910390a3505050600180819055505050565b60008060048481548110610d6857fe5b9060005260206000209060040201905060006005600086815260200190815260200160002060008573ffffffffffffffffffffffffffffffffffffffff1673ffffffffffffffffffffffffffffffffffffffff1681526020019081526020016000209050600082600201549050826001015442118015610ded57506000836003015414155b15610e3a57610e37610e288460030154610e1a670de0b6b3a7640000600354611feb90919063ffffffff16565b61207190919063ffffffff16565b826124ed90919063ffffffff16565b90505b610e818260010154610e73670de0b6b3a7640000610e65858760000154611feb90919063ffffffff16565b61207190919063ffffffff16565b6120bb90919063ffffffff16565b935050505092915050565b60048181548110610e9957fe5b90600052602060002090600402016000915090508060000160009054906101000a900473ffffffffffffffffffffffffffffffffffffffff16908060010154908060020154908060030154905084565b60026001541415610f62576040517f08c379a000000000000000000000000000000000000000000000000000000000815260040180806020018281038252601f8152602001807f5265656e7472616e637947756172643a207265656e7472616e742063616c6c0081525060200191505060405180910390fd5b6002600181905550600060048281548110610f7957fe5b9060005260206000209060040201905060006005600084815260200190815260200160002060003373ffffffffffffffffffffffffffffffffffffffff1673ffffffffffffffffffffffffffffffffffffffff1681526020019081526020016000209050600081600001549050600082600001819055506000826001018190555061104933828560000160009054906101000a900473ffffffffffffffffffffffffffffffffffffffff1673ffffffffffffffffffffffffffffffffffffffff166124359092919063ffffffff16565b808360030154106110785761106b8184600301546120bb90919063ffffffff16565b8360030181905550611083565b600083600301819055505b833373ffffffffffffffffffffffffffffffffffffffff167fbb757047c2b5f3974fe26b7c10f732e7bce710b0952a71082702781e62ae0595836040518082815260200191505060405180910390a35050506001808190555050565b7f000000000000000000000000000000000000000000000000000000000000000081565b60075481565b611111611fe3565b73ffffffffffffffffffffffffffffffffffffffff166000809054906101000a900473ffffffffffffffffffffffffffffffffffffffff1673ffffffffffffffffffffffffffffffffffffffff16146111d2576040517f08c379a00000000000000000000000000000000000000000000000000000000081526004018080602001828103825260208152602001807f4f776e61626c653a2063616c6c6572206973206e6f7420746865206f776e657281525060200191505060405180910390fd5b600073ffffffffffffffffffffffffffffffffffffffff166000809054906101000a900473ffffffffffffffffffffffffffffffffffffffff1673ffffffffffffffffffffffffffffffffffffffff167f8be0079c531659141344cd1fd0a4f28419497f9722a3daafe3b4186f6b6457e060405160405180910390a360008060006101000a81548173ffffffffffffffffffffffffffffffffffffffff021916908373ffffffffffffffffffffffffffffffffffffffff160217905550565b60065481565b6000600482815481106112a657fe5b90600052602060002090600402019050806001015442116112c757506116a4565b6000816003015414156112e357428160010181905550506116a4565b600060035490507f000000000000000000000000000000000000000000000000000000000000000073ffffffffffffffffffffffffffffffffffffffff1663b4f56b26600260009054906101000a900473ffffffffffffffffffffffffffffffffffffffff1661135d600a8561207190919063ffffffff16565b6040518363ffffffff1660e01b8152600401808373ffffffffffffffffffffffffffffffffffffffff1673ffffffffffffffffffffffffffffffffffffffff16815260200182815260200192505050600060405180830381600087803b1580156113c657600080fd5b505af19250505080156113d7575060015b6114b3573d8060008114611407576040519150601f19603f3d011682016040523d82523d6000602084013e61140c565b606091505b50600091507f674ea87f0367f6873904f93c7357350b680a45c46f08203d20c873909b41660d816040518080602001828103825283818151815260200191508051906020019080838360005b83811015611473578082015181840152602081019050611458565b50505050905090810190601f1680156114a05780820380516001836020036101000a031916815260200191505b509250505060405180910390a1506114b4565b5b7f000000000000000000000000000000000000000000000000000000000000000073ffffffffffffffffffffffffffffffffffffffff1663b4f56b2630836040518363ffffffff1660e01b8152600401808373ffffffffffffffffffffffffffffffffffffffff1673ffffffffffffffffffffffffffffffffffffffff16815260200182815260200192505050600060405180830381600087803b15801561155b57600080fd5b505af192505050801561156c575060015b611648573d806000811461159c576040519150601f19603f3d011682016040523d82523d6000602084013e6115a1565b606091505b50600091507f674ea87f0367f6873904f93c7357350b680a45c46f08203d20c873909b41660d816040518080602001828103825283818151815260200191508051906020019080838360005b838110156116085780820151818401526020810190506115ed565b50505050905090810190601f1680156116355780820380516001836020036101000a031916815260200191505b509250505060405180910390a150611649565b5b61169061167d836003015461166f670de0b6b3a764000085611feb90919063ffffffff16565b61207190919063ffffffff16565b83600201546124ed90919063ffffffff16565b826002018190555042826001018190555050505b50565b60008060009054906101000a900473ffffffffffffffffffffffffffffffffffffffff16905090565b6005602052816000526040600020602052806000526040600020600091509150508060000154908060010154908060020154905083565b600260009054906101000a900473ffffffffffffffffffffffffffffffffffffffff1673ffffffffffffffffffffffffffffffffffffffff163373ffffffffffffffffffffffffffffffffffffffff16146117ca576040517f08c379a00000000000000000000000000000000000000000000000000000000081526004018080602001828103825260098152602001807f6465763a207775743f000000000000000000000000000000000000000000000081525060200191505060405180910390fd5b600073ffffffffffffffffffffffffffffffffffffffff168173ffffffffffffffffffffffffffffffffffffffff16141561186d576040517f08c379a00000000000000000000000000000000000000000000000000000000081526004018080602001828103825260088152602001807f216e6f6e7a65726f00000000000000000000000000000000000000000000000081525060200191505060405180910390fd5b80600260006101000a81548173ffffffffffffffffffffffffffffffffffffffff021916908373ffffffffffffffffffffffffffffffffffffffff1602179055508073ffffffffffffffffffffffffffffffffffffffff163373ffffffffffffffffffffffffffffffffffffffff167f618c54559e94f1499a808aad71ee8729f8e74e8c48e979616328ce493a1a52e760405160405180910390a350565b6000600480549050905090565b600260009054906101000a900473ffffffffffffffffffffffffffffffffffffffff1681565b600260015414156119b7576040517f08c379a000000000000000000000000000000000000000000000000000000000815260040180806020018281038252601f8152602001807f5265656e7472616e637947756172643a207265656e7472616e742063616c6c0081525060200191505060405180910390fd5b60026001819055506000600483815481106119ce57fe5b9060005260206000209060040201905060006005600085815260200190815260200160002060003373ffffffffffffffffffffffffffffffffffffffff1673ffffffffffffffffffffffffffffffffffffffff1681526020019081526020016000209050611a3b84611297565b600081600001541115611aad576000611a958260010154611a87670de0b6b3a7640000611a7987600201548760000154611feb90919063ffffffff16565b61207190919063ffffffff16565b6120bb90919063ffffffff16565b90506000811115611aab57611aaa3382612105565b5b505b6000831115611d175760008260000160009054906101000a900473ffffffffffffffffffffffffffffffffffffffff1673ffffffffffffffffffffffffffffffffffffffff166370a08231306040518263ffffffff1660e01b8152600401808273ffffffffffffffffffffffffffffffffffffffff1673ffffffffffffffffffffffffffffffffffffffff16815260200191505060206040518083038186803b158015611b5957600080fd5b505afa158015611b6d573d6000803e3d6000fd5b505050506040513d6020811015611b8357600080fd5b81019080805190602001909291905050509050611be73330868660000160009054906101000a900473ffffffffffffffffffffffffffffffffffffffff1673ffffffffffffffffffffffffffffffffffffffff16612575909392919063ffffffff16565b611cd5818460000160009054906101000a900473ffffffffffffffffffffffffffffffffffffffff1673ffffffffffffffffffffffffffffffffffffffff166370a08231306040518263ffffffff1660e01b8152600401808273ffffffffffffffffffffffffffffffffffffffff1673ffffffffffffffffffffffffffffffffffffffff16815260200191505060206040518083038186803b158015611c8c57600080fd5b505afa158015611ca0573d6000803e3d6000fd5b505050506040513d6020811015611cb657600080fd5b81019080805190602001909291905050506120bb90919063ffffffff16565b9350611cee8483600001546124ed90919063ffffffff16565b8260000181905550611d0d8484600301546124ed90919063ffffffff16565b8360030181905550505b428160020181905550611d55670de0b6b3a7640000611d4784600201548460000154611feb90919063ffffffff16565b61207190919063ffffffff16565b8160010181905550833373ffffffffffffffffffffffffffffffffffffffff167f90890809c654f11d6e72a28fa60149770a0d11ec6c92319d6ceb2bb0a4ea1a15856040518082815260200191505060405180910390a35050600180819055505050565b6000611dce83836120bb90919063ffffffff16565b905092915050565b611dde611fe3565b73ffffffffffffffffffffffffffffffffffffffff166000809054906101000a900473ffffffffffffffffffffffffffffffffffffffff1673ffffffffffffffffffffffffffffffffffffffff1614611e9f576040517f08c379a00000000000000000000000000000000000000000000000000000000081526004018080602001828103825260208152602001807f4f776e61626c653a2063616c6c6572206973206e6f7420746865206f776e657281525060200191505060405180910390fd5b600073ffffffffffffffffffffffffffffffffffffffff168173ffffffffffffffffffffffffffffffffffffffff161415611f25576040517f08c379a0000000000000000000000000000000000000000000000000000000008152600401808060200182810382526026815260200180612b786026913960400191505060405180910390fd5b8073ffffffffffffffffffffffffffffffffffffffff166000809054906101000a900473ffffffffffffffffffffffffffffffffffffffff1673ffffffffffffffffffffffffffffffffffffffff167f8be0079c531659141344cd1fd0a4f28419497f9722a3daafe3b4186f6b6457e060405160405180910390a3806000806101000a81548173ffffffffffffffffffffffffffffffffffffffff021916908373ffffffffffffffffffffffffffffffffffffffff16021790555050565b600033905090565b600080831415611ffe576000905061206b565b600082840290508284828161200f57fe5b0414612066576040517f08c379a0000000000000000000000000000000000000000000000000000000008152600401808060200182810382526021815260200180612c196021913960400191505060405180910390fd5b809150505b92915050565b60006120b383836040518060400160405280601a81526020017f536166654d6174683a206469766973696f6e206279207a65726f000000000000815250612662565b905092915050565b60006120fd83836040518060400160405280601e81526020017f536166654d6174683a207375627472616374696f6e206f766572666c6f770000815250612728565b905092915050565b60007f000000000000000000000000000000000000000000000000000000000000000073ffffffffffffffffffffffffffffffffffffffff166370a08231306040518263ffffffff1660e01b8152600401808273ffffffffffffffffffffffffffffffffffffffff1673ffffffffffffffffffffffffffffffffffffffff16815260200191505060206040518083038186803b1580156121a457600080fd5b505afa1580156121b8573d6000803e3d6000fd5b505050506040513d60208110156121ce57600080fd5b810190808051906020019092919050505090506000809050818311156122d7577f000000000000000000000000000000000000000000000000000000000000000073ffffffffffffffffffffffffffffffffffffffff1663a9059cbb85846040518363ffffffff1660e01b8152600401808373ffffffffffffffffffffffffffffffffffffffff1673ffffffffffffffffffffffffffffffffffffffff16815260200182815260200192505050602060405180830381600087803b15801561229557600080fd5b505af11580156122a9573d6000803e3d6000fd5b505050506040513d60208110156122bf57600080fd5b810190808051906020019092919050505090506123bc565b7f000000000000000000000000000000000000000000000000000000000000000073ffffffffffffffffffffffffffffffffffffffff1663a9059cbb85856040518363ffffffff1660e01b8152600401808373ffffffffffffffffffffffffffffffffffffffff1673ffffffffffffffffffffffffffffffffffffffff16815260200182815260200192505050602060405180830381600087803b15801561237e57600080fd5b505af1158015612392573d6000803e3d6000fd5b505050506040513d60208110156123a857600080fd5b810190808051906020019092919050505090505b8061242f576040517f08c379a00000000000000000000000000000000000000000000000000000000081526004018080602001828103825260208152602001807f73616665574d465472616e736665723a207472616e73666572206661696c656481525060200191505060405180910390fd5b50505050565b6124e88363a9059cbb60e01b8484604051602401808373ffffffffffffffffffffffffffffffffffffffff1673ffffffffffffffffffffffffffffffffffffffff16815260200182815260200192505050604051602081830303815290604052907bffffffffffffffffffffffffffffffffffffffffffffffffffffffff19166020820180517bffffffffffffffffffffffffffffffffffffffffffffffffffffffff83818316178352505050506127e8565b505050565b60008082840190508381101561256b576040517f08c379a000000000000000000000000000000000000000000000000000000000815260040180806020018281038252601b8152602001807f536166654d6174683a206164646974696f6e206f766572666c6f77000000000081525060200191505060405180910390fd5b8091505092915050565b61265c846323b872dd60e01b858585604051602401808473ffffffffffffffffffffffffffffffffffffffff1673ffffffffffffffffffffffffffffffffffffffff1681526020018373ffffffffffffffffffffffffffffffffffffffff1673ffffffffffffffffffffffffffffffffffffffff1681526020018281526020019350505050604051602081830303815290604052907bffffffffffffffffffffffffffffffffffffffffffffffffffffffff19166020820180517bffffffffffffffffffffffffffffffffffffffffffffffffffffffff83818316178352505050506127e8565b50505050565b6000808311829061270e576040517f08c379a00000000000000000000000000000000000000000000000000000000081526004018080602001828103825283818151815260200191508051906020019080838360005b838110156126d35780820151818401526020810190506126b8565b50505050905090810190601f1680156127005780820380516001836020036101000a031916815260200191505b509250505060405180910390fd5b50600083858161271a57fe5b049050809150509392505050565b60008383111582906127d5576040517f08c379a00000000000000000000000000000000000000000000000000000000081526004018080602001828103825283818151815260200191508051906020019080838360005b8381101561279a57808201518184015260208101905061277f565b50505050905090810190601f1680156127c75780820380516001836020036101000a031916815260200191505b509250505060405180910390fd5b5060008385039050809150509392505050565b606061284a826040518060400160405280602081526020017f5361666545524332303a206c6f772d6c6576656c2063616c6c206661696c65648152508573ffffffffffffffffffffffffffffffffffffffff166128d79092919063ffffffff16565b90506000815111156128d25780806020019051602081101561286b57600080fd5b81019080805190602001909291905050506128d1576040517f08c379a000000000000000000000000000000000000000000000000000000000815260040180806020018281038252602a815260200180612c3a602a913960400191505060405180910390fd5b5b505050565b60606128e684846000856128ef565b90509392505050565b60608247101561294a576040517f08c379a0000000000000000000000000000000000000000000000000000000008152600401808060200182810382526026815260200180612b9e6026913960400191505060405180910390fd5b61295385612a98565b6129c5576040517f08c379a000000000000000000000000000000000000000000000000000000000815260040180806020018281038252601d8152602001807f416464726573733a2063616c6c20746f206e6f6e2d636f6e747261637400000081525060200191505060405180910390fd5b600060608673ffffffffffffffffffffffffffffffffffffffff1685876040518082805190602001908083835b60208310612a1557805182526020820191506020810190506020830392506129f2565b6001836020036101000a03801982511681845116808217855250505050505090500191505060006040518083038185875af1925050503d8060008114612a77576040519150601f19603f3d011682016040523d82523d6000602084013e612a7c565b606091505b5091509150612a8c828286612aab565b92505050949350505050565b600080823b905060008111915050919050565b60608315612abb57829050612b70565b600083511115612ace5782518084602001fd5b816040517f08c379a00000000000000000000000000000000000000000000000000000000081526004018080602001828103825283818151815260200191508051906020019080838360005b83811015612b35578082015181840152602081019050612b1a565b50505050905090810190601f168015612b625780820380516001836020036101000a031916815260200191505b509250505060405180910390fd5b939250505056fe4f776e61626c653a206e6577206f776e657220697320746865207a65726f2061646472657373416464726573733a20696e73756666696369656e742062616c616e636520666f722063616c6c63616e6e6f74207365742073746172742074696d6520696e20746865207061737463616e6e6f74206368616e67652073746172742074696d65206966206661726d2068617320616c72656164792073746172746564536166654d6174683a206d756c7469706c69636174696f6e206f766572666c6f775361666545524332303a204552433230206f7065726174696f6e20646964206e6f742073756363656564a2646970667358221220c3fcf8d2841a44a82c8270af85354f1a850d3730869f4cbd46e11ec48be934ec64736f6c63430006060033",
  "immutableReferences": {
    "3680": [
      {
        "length": 32,
        "start": 4321
      },
      {
        "length": 32,
        "start": 4844
      },
      {
        "length": 32,
        "start": 5302
      },
      {
        "length": 32,
        "start": 8457
      },
      {
        "length": 32,
        "start": 8688
      },
      {
        "length": 32,
        "start": 8921
      }
    ]
  },
  "source": "// SPDX-License-Identifier: MIT\npragma solidity =0.6.6;\n\nimport \"../module/Math/SafeMath.sol\";\nimport \"../module/ERC20/SafeERC20.sol\";\nimport \"../module/Common/Ownable.sol\";\nimport \"../module/Utils/ReentrancyGuard.sol\";\nimport \"../We_Made_Future.sol\";\n\ncontract WMFStake is Ownable, ReentrancyGuard {\n    using SafeMath for uint256;\n    using SafeERC20 for IERC20;\n\n    // Info of each user.\n    struct UserInfo {\n        uint256 amount;         // How many WMF tokens the user has provided.\n        uint256 rewardDebt;     // Reward debt. See explanation below.\n        uint256 depositSecond;\n    }\n\n    // Info of each stake.\n    struct StakeInfo {\n        IERC20 StakeToken;           // Address of Stake token contract.\n        uint256 lastRewardSecond;  // Last second that WMFs distribution occurs.\n        uint256 accWMFPerShare;   // Accumulated WMFs per share, times 1e18. See below.\n        uint256 totalSupply;\n    }\n\n    // The WMF TOKEN!\n    We_Made_Future public immutable WMF;\n    // Dev address.\n    address public devaddr;\n    // WMF tokens created per second.\n    uint256 public WMFPerSecond;\n    // Info of each stake.\n    StakeInfo[] public stakeInfo;\n    // Info of each user that stakes LP tokens.\n    mapping(uint256 => mapping(address => UserInfo)) public userInfo;\n    // The block timestamp when WMF mining starts.\n    uint256 public startTime;\n\n    uint256 public lock_time_min = 86400;\n\n    // Maximum WMFPerTime\n    uint256 public constant MAX_EMISSION_RATE = 500000000000000000;\n\n    constructor(\n        We_Made_Future _WMF,\n        address _devaddr,\n        uint256 _WMFPerTime,\n        uint256 _startTime\n    ) public {\n        WMF = _WMF;\n        devaddr = _devaddr;\n        WMFPerSecond = _WMFPerTime;\n        startTime = _startTime;\n    }\n\n    function stakeLength() external view returns (uint256) {\n        return stakeInfo.length;\n    }\n\n    // Return reward multiplier over the given _from to _to block.\n    function getStakingduration(uint256 _from, uint256 _to) public pure returns (uint256) {\n        return _to.sub(_from);\n    }\n\n    // View function to see pending WMFs on frontend.\n    function pendingWMF(uint256 _sid, address _user) external view returns (uint256) {\n        StakeInfo storage stake = stakeInfo[_sid];\n        UserInfo storage user = userInfo[_sid][_user];\n        uint256 accWMFPerShare = stake.accWMFPerShare;\n        if (block.timestamp > stake.lastRewardSecond && stake.totalSupply != 0) {\n            accWMFPerShare = accWMFPerShare.add(WMFPerSecond.mul(1e18).div(stake.totalSupply));\n        }\n        return user.amount.mul(accWMFPerShare).div(1e18).sub(user.rewardDebt);\n    }\n\n    // Update reward variables of the given stake to be up-to-date.\n    function updateStake(uint256 _sid) public {\n        StakeInfo storage stake = stakeInfo[_sid];\n        if (block.timestamp <= stake.lastRewardSecond) {\n            return;\n        }\n        if (stake.totalSupply == 0) {\n            stake.lastRewardSecond = block.timestamp;\n            return;\n        }\n        uint256 WMFReward = WMFPerSecond;\n        \n        try WMF.pool_mint(devaddr, WMFReward.div(10)) {\n        } catch (bytes memory reason) {\n            WMFReward = 0;\n            emit WMFMintError(reason);\n        }\n        \n        try WMF.pool_mint(address(this), WMFReward) {\n        } catch (bytes memory reason) {\n            WMFReward = 0;\n            emit WMFMintError(reason);\n        }\n        \n        stake.accWMFPerShare = stake.accWMFPerShare.add(WMFReward.mul(1e18).div(stake.totalSupply));\n        stake.lastRewardSecond = block.timestamp;\n    }\n    \n    // Deposit LP tokens to MasterChef for WMF allocation.\n    function deposit(uint256 _sid, uint256 _amount) external nonReentrant {\n        StakeInfo storage stake = stakeInfo[_sid];\n        UserInfo storage user = userInfo[_sid][msg.sender];\n        updateStake(_sid);\n        if (user.amount > 0) {\n            uint256 pending = user.amount.mul(stake.accWMFPerShare).div(1e18).sub(user.rewardDebt);\n            if (pending > 0) {\n                safeWMFTransfer(msg.sender, pending);\n            }\n        }\n        if (_amount > 0) {\n            uint256 balanceBefore = stake.StakeToken.balanceOf(address(this));\n            stake.StakeToken.safeTransferFrom(address(msg.sender), address(this), _amount);\n            _amount = stake.StakeToken.balanceOf(address(this)).sub(balanceBefore);\n\n            user.amount = user.amount.add(_amount);\n            stake.totalSupply = stake.totalSupply.add(_amount);\n        }\n        user.depositSecond = block.timestamp;\n        user.rewardDebt = user.amount.mul(stake.accWMFPerShare).div(1e18);\n        emit Deposit(msg.sender, _sid, _amount);\n    }\n\n    // Withdraw LP tokens from WMFChef.\n    function withdraw(uint256 _sid, uint256 _amount) external nonReentrant {\n        StakeInfo storage stake = stakeInfo[_sid];\n        UserInfo storage user = userInfo[_sid][msg.sender];\n        require(user.amount >= _amount, \"withdraw: not good\");\n        require(getStakingduration(user.depositSecond, block.timestamp) >= lock_time_min, \"Minimum stake time not met\");\n        updateStake(_sid);\n        uint256 pending = user.amount.mul(stake.accWMFPerShare).div(1e18).sub(user.rewardDebt);\n        if (pending > 0) {\n            safeWMFTransfer(msg.sender, pending);\n        }\n        if (_amount > 0) {\n            user.amount = user.amount.sub(_amount);\n            stake.StakeToken.safeTransfer(address(msg.sender), _amount);\n            stake.totalSupply = stake.totalSupply.sub(_amount);\n        }\n\n        user.rewardDebt = user.amount.mul(stake.accWMFPerShare).div(1e18);\n        emit Withdraw(msg.sender, _sid, _amount);\n    }\n\n    // Withdraw without caring about rewards. EMERGENCY ONLY.\n    function emergencyWithdraw(uint256 _sid) external nonReentrant {\n        StakeInfo storage stake = stakeInfo[_sid];\n        UserInfo storage user = userInfo[_sid][msg.sender];\n        uint256 amount = user.amount;\n        user.amount = 0;\n        user.rewardDebt = 0;\n        stake.StakeToken.safeTransfer(address(msg.sender), amount);\n\n        if (stake.totalSupply >=  amount) {\n            stake.totalSupply = stake.totalSupply.sub(amount);\n        } else {\n            stake.totalSupply = 0;\n        }\n\n        emit EmergencyWithdraw(msg.sender, _sid, amount);\n    }\n\n    // Safe WMF transfer function, just in case if rounding error causes stake to not have enough WMFs.\n    function safeWMFTransfer(address _to, uint256 _amount) internal {\n        uint256 WMFBal = WMF.balanceOf(address(this));\n        bool transferSuccess = false;\n        if (_amount > WMFBal) {\n            transferSuccess = WMF.transfer(_to, WMFBal);\n        } else {\n            transferSuccess = WMF.transfer(_to, _amount);\n        }\n        require(transferSuccess, \"safeWMFTransfer: transfer failed\");\n    }\n\n    // Update dev address.\n    function setDevAddress(address _devaddr) external {\n        require(msg.sender == devaddr, \"dev: wut?\");\n        require(_devaddr != address(0), \"!nonzero\");\n\n        devaddr = _devaddr;\n        emit SetDevAddress(msg.sender, _devaddr);\n    }\n\n // Pancake has to add hidden dummy stakes inorder to alter the emission, here we make it simple and transparent to all.\n    function updateEmissionRate(uint256 _WMFPerSecond) external onlyOwner {\n        require(_WMFPerSecond <= MAX_EMISSION_RATE, \"Too high\");\n        WMFPerSecond = _WMFPerSecond;\n        emit UpdateEmissionRate(msg.sender, _WMFPerSecond);\n    }\n\n    // Only update before start of farm\n    function updateStartTime(uint256 _newStartTime) external onlyOwner {\n        require(block.timestamp < startTime, \"cannot change start time if farm has already started\");\n        require(block.timestamp < _newStartTime, \"cannot set start time in the past\");\n        uint256 length = stakeInfo.length;\n        for (uint256 sid = 0; sid < length; ++sid) {\n            StakeInfo storage stake = stakeInfo[sid];\n            stake.lastRewardSecond = _newStartTime;\n        }\n        startTime = _newStartTime;\n\n        emit UpdateStartTime(startTime);\n    }\n\n\n    event Deposit(address indexed user, uint256 indexed sid, uint256 amount);\n    event Withdraw(address indexed user, uint256 indexed sid, uint256 amount);\n    event EmergencyWithdraw(address indexed user, uint256 indexed sid, uint256 amount);\n    event SetDevAddress(address indexed user, address indexed newAddress);\n    event UpdateEmissionRate(address indexed user, uint256 WMFPerSecond);\n    event UpdateStartTime(uint256 newStartTime);\n    event WMFMintError(bytes reason);\n\n}",
  "sourcePath": "/Users/gubukson/Desktop/wemadefuture/WMF_Tokenomics/contracts/Token/Staking/Stake.sol",
  "compiler": {
    "name": "solc",
    "version": "0.6.6+commit.6c089d02.Emscripten.clang"
  },
  "schemaVersion": "3.4.4",
  "updatedAt": "2022-01-23T12:35:44.348Z",
  "devdoc": {
    "methods": {
      "owner()": {
        "details": "Returns the address of the current owner."
      },
      "renounceOwnership()": {
        "details": "Leaves the contract without owner. It will not be possible to call `onlyOwner` functions anymore. Can only be called by the current owner.     * NOTE: Renouncing ownership will leave the contract without an owner, thereby removing any functionality that is only available to the owner."
      },
      "transferOwnership(address)": {
        "details": "Transfers ownership of the contract to a new account (`newOwner`). Can only be called by the current owner."
      }
    }
  },
  "userdoc": {
    "methods": {}
  }
}