{
  "contractName": "WUSDPool",
  "abi": [
    {
      "inputs": [
        {
          "internalType": "address",
          "name": "_WUSD_contract_address",
          "type": "address"
        },
        {
          "internalType": "address",
          "name": "_WMF_contract_address",
          "type": "address"
        },
        {
          "internalType": "address",
          "name": "_collateral_address",
          "type": "address"
        },
        {
          "internalType": "address",
          "name": "_creator_address",
          "type": "address"
        }
      ],
      "stateMutability": "nonpayable",
      "type": "constructor"
    },
    {
      "anonymous": false,
      "inputs": [
        {
          "indexed": false,
          "internalType": "bool",
          "name": "toggled",
          "type": "bool"
        }
      ],
      "name": "MintingToggled",
      "type": "event"
    },
    {
      "anonymous": false,
      "inputs": [
        {
          "indexed": false,
          "internalType": "address",
          "name": "oldOwner",
          "type": "address"
        },
        {
          "indexed": false,
          "internalType": "address",
          "name": "newOwner",
          "type": "address"
        }
      ],
      "name": "OwnerChanged",
      "type": "event"
    },
    {
      "anonymous": false,
      "inputs": [
        {
          "indexed": false,
          "internalType": "address",
          "name": "newOwner",
          "type": "address"
        }
      ],
      "name": "OwnerNominated",
      "type": "event"
    },
    {
      "anonymous": false,
      "inputs": [
        {
          "indexed": false,
          "internalType": "uint256",
          "name": "new_ceiling",
          "type": "uint256"
        },
        {
          "indexed": false,
          "internalType": "uint256",
          "name": "new_bonus_rate",
          "type": "uint256"
        },
        {
          "indexed": false,
          "internalType": "uint256",
          "name": "new_redemption_delay",
          "type": "uint256"
        },
        {
          "indexed": false,
          "internalType": "uint256",
          "name": "new_mint_fee",
          "type": "uint256"
        },
        {
          "indexed": false,
          "internalType": "uint256",
          "name": "new_redeem_fee",
          "type": "uint256"
        },
        {
          "indexed": false,
          "internalType": "uint256",
          "name": "new_buyback_fee",
          "type": "uint256"
        },
        {
          "indexed": false,
          "internalType": "uint256",
          "name": "new_recollat_fee",
          "type": "uint256"
        }
      ],
      "name": "PoolParametersSet",
      "type": "event"
    },
    {
      "anonymous": false,
      "inputs": [
        {
          "indexed": false,
          "internalType": "bool",
          "name": "toggled",
          "type": "bool"
        }
      ],
      "name": "RedeemingToggled",
      "type": "event"
    },
    {
      "inputs": [],
      "name": "acceptOwnership",
      "outputs": [],
      "stateMutability": "nonpayable",
      "type": "function"
    },
    {
      "inputs": [],
      "name": "bonus_rate",
      "outputs": [
        {
          "internalType": "uint256",
          "name": "",
          "type": "uint256"
        }
      ],
      "stateMutability": "view",
      "type": "function"
    },
    {
      "inputs": [],
      "name": "buyback_fee",
      "outputs": [
        {
          "internalType": "uint256",
          "name": "",
          "type": "uint256"
        }
      ],
      "stateMutability": "view",
      "type": "function"
    },
    {
      "inputs": [],
      "name": "collat_eth_oracle_address",
      "outputs": [
        {
          "internalType": "address",
          "name": "",
          "type": "address"
        }
      ],
      "stateMutability": "view",
      "type": "function"
    },
    {
      "inputs": [
        {
          "internalType": "address",
          "name": "",
          "type": "address"
        }
      ],
      "name": "lastRedeemed",
      "outputs": [
        {
          "internalType": "uint256",
          "name": "",
          "type": "uint256"
        }
      ],
      "stateMutability": "view",
      "type": "function"
    },
    {
      "inputs": [],
      "name": "mintPaused",
      "outputs": [
        {
          "internalType": "bool",
          "name": "",
          "type": "bool"
        }
      ],
      "stateMutability": "view",
      "type": "function"
    },
    {
      "inputs": [],
      "name": "minting_fee",
      "outputs": [
        {
          "internalType": "uint256",
          "name": "",
          "type": "uint256"
        }
      ],
      "stateMutability": "view",
      "type": "function"
    },
    {
      "inputs": [
        {
          "internalType": "address",
          "name": "_owner",
          "type": "address"
        }
      ],
      "name": "nominateNewOwner",
      "outputs": [],
      "stateMutability": "nonpayable",
      "type": "function"
    },
    {
      "inputs": [],
      "name": "nominatedOwner",
      "outputs": [
        {
          "internalType": "address",
          "name": "",
          "type": "address"
        }
      ],
      "stateMutability": "view",
      "type": "function"
    },
    {
      "inputs": [],
      "name": "owner",
      "outputs": [
        {
          "internalType": "address",
          "name": "",
          "type": "address"
        }
      ],
      "stateMutability": "view",
      "type": "function"
    },
    {
      "inputs": [],
      "name": "pausedPrice",
      "outputs": [
        {
          "internalType": "uint256",
          "name": "",
          "type": "uint256"
        }
      ],
      "stateMutability": "view",
      "type": "function"
    },
    {
      "inputs": [],
      "name": "pool_ceiling",
      "outputs": [
        {
          "internalType": "uint256",
          "name": "",
          "type": "uint256"
        }
      ],
      "stateMutability": "view",
      "type": "function"
    },
    {
      "inputs": [],
      "name": "recollat_fee",
      "outputs": [
        {
          "internalType": "uint256",
          "name": "",
          "type": "uint256"
        }
      ],
      "stateMutability": "view",
      "type": "function"
    },
    {
      "inputs": [
        {
          "internalType": "address",
          "name": "",
          "type": "address"
        }
      ],
      "name": "redeemCollateralBalances",
      "outputs": [
        {
          "internalType": "uint256",
          "name": "",
          "type": "uint256"
        }
      ],
      "stateMutability": "view",
      "type": "function"
    },
    {
      "inputs": [],
      "name": "redeemPaused",
      "outputs": [
        {
          "internalType": "bool",
          "name": "",
          "type": "bool"
        }
      ],
      "stateMutability": "view",
      "type": "function"
    },
    {
      "inputs": [
        {
          "internalType": "address",
          "name": "",
          "type": "address"
        }
      ],
      "name": "redeemWMFBalances",
      "outputs": [
        {
          "internalType": "uint256",
          "name": "",
          "type": "uint256"
        }
      ],
      "stateMutability": "view",
      "type": "function"
    },
    {
      "inputs": [],
      "name": "redemption_delay",
      "outputs": [
        {
          "internalType": "uint256",
          "name": "",
          "type": "uint256"
        }
      ],
      "stateMutability": "view",
      "type": "function"
    },
    {
      "inputs": [],
      "name": "redemption_fee",
      "outputs": [
        {
          "internalType": "uint256",
          "name": "",
          "type": "uint256"
        }
      ],
      "stateMutability": "view",
      "type": "function"
    },
    {
      "inputs": [],
      "name": "unclaimedPoolCollateral",
      "outputs": [
        {
          "internalType": "uint256",
          "name": "",
          "type": "uint256"
        }
      ],
      "stateMutability": "view",
      "type": "function"
    },
    {
      "inputs": [],
      "name": "unclaimedPoolWMF",
      "outputs": [
        {
          "internalType": "uint256",
          "name": "",
          "type": "uint256"
        }
      ],
      "stateMutability": "view",
      "type": "function"
    },
    {
      "inputs": [],
      "name": "collatDollarBalance",
      "outputs": [
        {
          "internalType": "uint256",
          "name": "",
          "type": "uint256"
        }
      ],
      "stateMutability": "view",
      "type": "function"
    },
    {
      "inputs": [],
      "name": "availableExcessCollatDV",
      "outputs": [
        {
          "internalType": "uint256",
          "name": "",
          "type": "uint256"
        }
      ],
      "stateMutability": "view",
      "type": "function"
    },
    {
      "inputs": [],
      "name": "getCollateralPrice",
      "outputs": [
        {
          "internalType": "uint256",
          "name": "",
          "type": "uint256"
        }
      ],
      "stateMutability": "view",
      "type": "function"
    },
    {
      "inputs": [
        {
          "internalType": "address",
          "name": "_collateral_weth_oracle_address",
          "type": "address"
        },
        {
          "internalType": "address",
          "name": "_weth_address",
          "type": "address"
        }
      ],
      "name": "setCollatETHOracle",
      "outputs": [],
      "stateMutability": "nonpayable",
      "type": "function"
    },
    {
      "inputs": [
        {
          "internalType": "uint256",
          "name": "collateral_amount",
          "type": "uint256"
        },
        {
          "internalType": "uint256",
          "name": "WUSD_out_min",
          "type": "uint256"
        }
      ],
      "name": "mint1t1WUSD",
      "outputs": [],
      "stateMutability": "nonpayable",
      "type": "function"
    },
    {
      "inputs": [
        {
          "internalType": "uint256",
          "name": "WMF_amount_d18",
          "type": "uint256"
        },
        {
          "internalType": "uint256",
          "name": "WUSD_out_min",
          "type": "uint256"
        }
      ],
      "name": "mintAlgorithmicWUSD",
      "outputs": [],
      "stateMutability": "nonpayable",
      "type": "function"
    },
    {
      "inputs": [
        {
          "internalType": "uint256",
          "name": "collateral_amount",
          "type": "uint256"
        },
        {
          "internalType": "uint256",
          "name": "WMF_amount",
          "type": "uint256"
        },
        {
          "internalType": "uint256",
          "name": "WUSD_out_min",
          "type": "uint256"
        }
      ],
      "name": "mintFractionalWUSD",
      "outputs": [],
      "stateMutability": "nonpayable",
      "type": "function"
    },
    {
      "inputs": [
        {
          "internalType": "uint256",
          "name": "WUSD_amount",
          "type": "uint256"
        },
        {
          "internalType": "uint256",
          "name": "COLLATERAL_out_min",
          "type": "uint256"
        }
      ],
      "name": "redeem1t1WUSD",
      "outputs": [],
      "stateMutability": "nonpayable",
      "type": "function"
    },
    {
      "inputs": [
        {
          "internalType": "uint256",
          "name": "WUSD_amount",
          "type": "uint256"
        },
        {
          "internalType": "uint256",
          "name": "WMF_out_min",
          "type": "uint256"
        },
        {
          "internalType": "uint256",
          "name": "COLLATERAL_out_min",
          "type": "uint256"
        }
      ],
      "name": "redeemFractionalWUSD",
      "outputs": [],
      "stateMutability": "nonpayable",
      "type": "function"
    },
    {
      "inputs": [
        {
          "internalType": "uint256",
          "name": "WUSD_amount",
          "type": "uint256"
        },
        {
          "internalType": "uint256",
          "name": "WMF_out_min",
          "type": "uint256"
        }
      ],
      "name": "redeemAlgorithmicWUSD",
      "outputs": [],
      "stateMutability": "nonpayable",
      "type": "function"
    },
    {
      "inputs": [],
      "name": "collectRedemption",
      "outputs": [],
      "stateMutability": "nonpayable",
      "type": "function"
    },
    {
      "inputs": [
        {
          "internalType": "uint256",
          "name": "collateral_amount",
          "type": "uint256"
        },
        {
          "internalType": "uint256",
          "name": "WMF_out_min",
          "type": "uint256"
        }
      ],
      "name": "recollateralizeWUSD",
      "outputs": [],
      "stateMutability": "nonpayable",
      "type": "function"
    },
    {
      "inputs": [
        {
          "internalType": "uint256",
          "name": "WMF_amount",
          "type": "uint256"
        },
        {
          "internalType": "uint256",
          "name": "COLLATERAL_out_min",
          "type": "uint256"
        }
      ],
      "name": "buyBackWMF",
      "outputs": [],
      "stateMutability": "nonpayable",
      "type": "function"
    },
    {
      "inputs": [],
      "name": "toggleMinting",
      "outputs": [],
      "stateMutability": "nonpayable",
      "type": "function"
    },
    {
      "inputs": [],
      "name": "toggleRedeeming",
      "outputs": [],
      "stateMutability": "nonpayable",
      "type": "function"
    },
    {
      "inputs": [
        {
          "internalType": "uint256",
          "name": "new_ceiling",
          "type": "uint256"
        },
        {
          "internalType": "uint256",
          "name": "new_bonus_rate",
          "type": "uint256"
        },
        {
          "internalType": "uint256",
          "name": "new_redemption_delay",
          "type": "uint256"
        },
        {
          "internalType": "uint256",
          "name": "new_mint_fee",
          "type": "uint256"
        },
        {
          "internalType": "uint256",
          "name": "new_redeem_fee",
          "type": "uint256"
        },
        {
          "internalType": "uint256",
          "name": "new_buyback_fee",
          "type": "uint256"
        },
        {
          "internalType": "uint256",
          "name": "new_recollat_fee",
          "type": "uint256"
        }
      ],
      "name": "setPoolParameters",
      "outputs": [],
      "stateMutability": "nonpayable",
      "type": "function"
    }
  ],
  "bytecode": "0x60a060405269d3c21bcecceda10000006014556000601555611d4c60165560016017556000601860006101000a81548160ff0219169083151502179055506000601860016101000a81548160ff0219169083151502179055503480156200006557600080fd5b50604051620061df380380620061df833981810160405260808110156200008b57600080fd5b810190808051906020019092919080519060200190929190805190602001909291908051906020019092919050505080600073ffffffffffffffffffffffffffffffffffffffff168173ffffffffffffffffffffffffffffffffffffffff1614156200015f576040517f08c379a00000000000000000000000000000000000000000000000000000000081526004018080602001828103825260198152602001807f4f776e657220616464726573732063616e6e6f7420626520300000000000000081525060200191505060405180910390fd5b806000806101000a81548173ffffffffffffffffffffffffffffffffffffffff021916908373ffffffffffffffffffffffffffffffffffffffff1602179055507fb532073b38c83145e3e5135377a08bf9aab55bc0fd7c1179cd4fb995d2a5159c600082604051808373ffffffffffffffffffffffffffffffffffffffff1673ffffffffffffffffffffffffffffffffffffffff1681526020018273ffffffffffffffffffffffffffffffffffffffff1673ffffffffffffffffffffffffffffffffffffffff1681526020019250505060405180910390a150600073ffffffffffffffffffffffffffffffffffffffff168473ffffffffffffffffffffffffffffffffffffffff1614158015620002a35750600073ffffffffffffffffffffffffffffffffffffffff168373ffffffffffffffffffffffffffffffffffffffff1614155b8015620002dd5750600073ffffffffffffffffffffffffffffffffffffffff168273ffffffffffffffffffffffffffffffffffffffff1614155b8015620003175750600073ffffffffffffffffffffffffffffffffffffffff168173ffffffffffffffffffffffffffffffffffffffff1614155b6200038a576040517f08c379a00000000000000000000000000000000000000000000000000000000081526004018080602001828103825260158152602001807f5a65726f2061646472657373206465746563746564000000000000000000000081525060200191505060405180910390fd5b83600760006101000a81548173ffffffffffffffffffffffffffffffffffffffff021916908373ffffffffffffffffffffffffffffffffffffffff16021790555082600660006101000a81548173ffffffffffffffffffffffffffffffffffffffff021916908373ffffffffffffffffffffffffffffffffffffffff16021790555083600460006101000a81548173ffffffffffffffffffffffffffffffffffffffff021916908373ffffffffffffffffffffffffffffffffffffffff16021790555082600560006101000a81548173ffffffffffffffffffffffffffffffffffffffff021916908373ffffffffffffffffffffffffffffffffffffffff16021790555081600360006101000a81548173ffffffffffffffffffffffffffffffffffffffff021916908373ffffffffffffffffffffffffffffffffffffffff16021790555081600260006101000a81548173ffffffffffffffffffffffffffffffffffffffff021916908373ffffffffffffffffffffffffffffffffffffffff160217905550620005d3600260009054906101000a900473ffffffffffffffffffffffffffffffffffffffff1673ffffffffffffffffffffffffffffffffffffffff1663313ce5676040518163ffffffff1660e01b815260040160206040518083038186803b1580156200057d57600080fd5b505afa15801562000592573d6000803e3d6000fd5b505050506040513d6020811015620005a957600080fd5b810190808051906020019092919050505060ff166012620005e460201b62004bb51790919060201c565b6080818152505050505050620006fa565b60006200062e83836040518060400160405280601e81526020017f536166654d6174683a207375627472616374696f6e206f766572666c6f7700008152506200063660201b60201c565b905092915050565b6000838311158290620006e7576040517f08c379a00000000000000000000000000000000000000000000000000000000081526004018080602001828103825283818151815260200191508051906020019080838360005b83811015620006ab5780820151818401526020810190506200068e565b50505050905090810190601f168015620006d95780820380516001836020036101000a031916815260200191505b509250505060405180910390fd5b5060008385039050809150509392505050565b608051615a9d6200074260003980610aa152806114b752806115be5280611a9c528061258e52806133b652806135f45280613bc85280613f5252806144bf5250615a9d6000f3fe608060405234801561001057600080fd5b506004361061021c5760003560e01c806388d42cf211610125578063c74ec56a116100ad578063e6acae561161007c578063e6acae5614610815578063f61adab21461084d578063f7683bbc1461086b578063fede5c9c14610889578063ffe65857146108a75761021c565b8063c74ec56a14610797578063cb73999f146107b5578063ccc0e4a8146107d3578063daa504851461080b5761021c565b8063a18c9777116100f4578063a18c9777146106a9578063abae2c4c146106c7578063b235d4681461071f578063baa1223614610741578063c3355b8d146107795761021c565b806388d42cf2146105795780638ac6c3cb146105dd5780638baa4b9f146106155780638da5cb5b1461065f5761021c565b80634ebbe762116101a85780637b0461e9116101775780637b0461e9146104955780637c55811d146104b35780637d55094d1461050b5780637e4831d314610515578063848fa4f6146105375761021c565b80634ebbe762146103b957806353a47bb7146104235780636526a12a1461046d57806379ba50971461048b5761021c565b806315128425116101ef57806315128425146102d95780631627540c146102f757806317284c941461033b5780633bccb6c4146103595780634c6349341461039b5761021c565b806308a7493d146102215780630bae329e14610279578063101197c7146102b157806312ace5a2146102cf575b600080fd5b6102636004803603602081101561023757600080fd5b81019080803573ffffffffffffffffffffffffffffffffffffffff1690602001909291905050506108df565b6040518082815260200191505060405180910390f35b6102af6004803603604081101561028f57600080fd5b8101908080359060200190929190803590602001909291905050506108f7565b005b6102b9610f46565b6040518082815260200191505060405180910390f35b6102d7610f4c565b005b6102e1611258565b6040518082815260200191505060405180910390f35b6103396004803603602081101561030d57600080fd5b81019080803573ffffffffffffffffffffffffffffffffffffffff16906020019092919050505061125e565b005b6103436113aa565b6040518082815260200191505060405180910390f35b6103996004803603606081101561036f57600080fd5b81019080803590602001909291908035906020019092919080359060200190929190505050611700565b005b6103a3611df2565b6040518082815260200191505060405180910390f35b610421600480360360e08110156103cf57600080fd5b8101908080359060200190929190803590602001909291908035906020019092919080359060200190929190803590602001909291908035906020019092919080359060200190929190505050611df8565b005b61042b611f3e565b604051808273ffffffffffffffffffffffffffffffffffffffff1673ffffffffffffffffffffffffffffffffffffffff16815260200191505060405180910390f35b610475611f64565b6040518082815260200191505060405180910390f35b610493611f6a565b005b61049d612190565b6040518082815260200191505060405180910390f35b6104f5600480360360208110156104c957600080fd5b81019080803573ffffffffffffffffffffffffffffffffffffffff169060200190929190505050612196565b6040518082815260200191505060405180910390f35b6105136121ae565b005b61051d61227d565b604051808215151515815260200191505060405180910390f35b6105776004803603606081101561054d57600080fd5b81019080803590602001909291908035906020019092919080359060200190929190505050612290565b005b6105db6004803603604081101561058f57600080fd5b81019080803573ffffffffffffffffffffffffffffffffffffffff169060200190929190803573ffffffffffffffffffffffffffffffffffffffff169060200190929190505050612b7f565b005b610613600480360360408110156105f357600080fd5b810190808035906020019092919080359060200190929190505050612ceb565b005b61061d613208565b604051808273ffffffffffffffffffffffffffffffffffffffff1673ffffffffffffffffffffffffffffffffffffffff16815260200191505060405180910390f35b61066761322e565b604051808273ffffffffffffffffffffffffffffffffffffffff1673ffffffffffffffffffffffffffffffffffffffff16815260200191505060405180910390f35b6106b1613253565b6040518082815260200191505060405180910390f35b610709600480360360208110156106dd57600080fd5b81019080803573ffffffffffffffffffffffffffffffffffffffff169060200190929190505050613259565b6040518082815260200191505060405180910390f35b610727613271565b604051808215151515815260200191505060405180910390f35b6107776004803603604081101561075757600080fd5b810190808035906020019092919080359060200190929190505050613284565b005b610781613555565b6040518082815260200191505060405180910390f35b61079f61355b565b6040518082815260200191505060405180910390f35b6107bd613561565b6040518082815260200191505060405180910390f35b610809600480360360408110156107e957600080fd5b810190808035906020019092919080359060200190929190505050613567565b005b610813613af5565b005b61084b6004803603604081101561082b57600080fd5b810190808035906020019092919080359060200190929190505050613bc4565b005b61085561414b565b6040518082815260200191505060405180910390f35b6108736143b1565b6040518082815260200191505060405180910390f35b6108916145b2565b6040518082815260200191505060405180910390f35b6108dd600480360360408110156108bd57600080fd5b8101908080359060200190929190803590602001909291905050506145b8565b005b60106020528060005260406000206000915090505481565b60001515601860019054906101000a900460ff16151514610980576040517f08c379a00000000000000000000000000000000000000000000000000000000081526004018080602001828103825260138152602001807f52656465656d696e67206973207061757365640000000000000000000000000081525060200191505060405180910390fd5b620f4240600760009054906101000a900473ffffffffffffffffffffffffffffffffffffffff1673ffffffffffffffffffffffffffffffffffffffff16632eb9771b6040518163ffffffff1660e01b815260040160206040518083038186803b1580156109ec57600080fd5b505afa158015610a00573d6000803e3d6000fd5b505050506040513d6020811015610a1657600080fd5b810190808051906020019092919050505014610a9a576040517f08c379a000000000000000000000000000000000000000000000000000000000815260040180806020018281038252601d8152602001807f436f6c6c61746572616c20726174696f206d757374206265203d3d203100000081525060200191505060405180910390fd5b6000610ad27f0000000000000000000000000000000000000000000000000000000000000000600a0a84614b6b90919063ffffffff16565b9050600073__WUSDPoolLibrary_______________________635d115920610af86143b1565b846040518363ffffffff1660e01b8152600401808381526020018281526020019250505060206040518083038186803b158015610b3457600080fd5b505af4158015610b48573d6000803e3d6000fd5b505050506040513d6020811015610b5e57600080fd5b81019080805190602001909291905050509050610bb0620f4240610ba2610b93600c54620f4240614bb590919063ffffffff16565b84614bff90919063ffffffff16565b614b6b90919063ffffffff16565b9050610ca0601154600260009054906101000a900473ffffffffffffffffffffffffffffffffffffffff1673ffffffffffffffffffffffffffffffffffffffff166370a08231306040518263ffffffff1660e01b8152600401808273ffffffffffffffffffffffffffffffffffffffff1673ffffffffffffffffffffffffffffffffffffffff16815260200191505060206040518083038186803b158015610c5757600080fd5b505afa158015610c6b573d6000803e3d6000fd5b505050506040513d6020811015610c8157600080fd5b8101908080519060200190929190505050614bb590919063ffffffff16565b811115610d15576040517f08c379a000000000000000000000000000000000000000000000000000000000815260040180806020018281038252601d8152602001807f4e6f7420656e6f75676820636f6c6c61746572616c20696e20706f6f6c00000081525060200191505060405180910390fd5b80831115610d8b576040517f08c379a00000000000000000000000000000000000000000000000000000000081526004018080602001828103825260168152602001807f536c697070616765206c696d697420726561636865640000000000000000000081525060200191505060405180910390fd5b610ddd81601060003373ffffffffffffffffffffffffffffffffffffffff1673ffffffffffffffffffffffffffffffffffffffff16815260200190815260200160002054614c8590919063ffffffff16565b601060003373ffffffffffffffffffffffffffffffffffffffff1673ffffffffffffffffffffffffffffffffffffffff16815260200190815260200160002081905550610e3581601154614c8590919063ffffffff16565b60118190555043601360003373ffffffffffffffffffffffffffffffffffffffff1673ffffffffffffffffffffffffffffffffffffffff16815260200190815260200160002081905550600760009054906101000a900473ffffffffffffffffffffffffffffffffffffffff1673ffffffffffffffffffffffffffffffffffffffff1663a8a778ae33866040518363ffffffff1660e01b8152600401808373ffffffffffffffffffffffffffffffffffffffff1673ffffffffffffffffffffffffffffffffffffffff16815260200182815260200192505050600060405180830381600087803b158015610f2857600080fd5b505af1158015610f3c573d6000803e3d6000fd5b5050505050505050565b600d5481565b43610fa1601754601360003373ffffffffffffffffffffffffffffffffffffffff1673ffffffffffffffffffffffffffffffffffffffff16815260200190815260200160002054614c8590919063ffffffff16565b1115610ff8576040517f08c379a00000000000000000000000000000000000000000000000000000000081526004018080602001828103825260428152602001806158d86042913960600191505060405180910390fd5b60008090506000809050600080905060008090506000600f60003373ffffffffffffffffffffffffffffffffffffffff1673ffffffffffffffffffffffffffffffffffffffff1681526020019081526020016000205411156110fb57600f60003373ffffffffffffffffffffffffffffffffffffffff1673ffffffffffffffffffffffffffffffffffffffff1681526020019081526020016000205491506000600f60003373ffffffffffffffffffffffffffffffffffffffff1673ffffffffffffffffffffffffffffffffffffffff168152602001908152602001600020819055506110f082601254614bb590919063ffffffff16565b601281905550600193505b6000601060003373ffffffffffffffffffffffffffffffffffffffff1673ffffffffffffffffffffffffffffffffffffffff1681526020019081526020016000205411156111ea57601060003373ffffffffffffffffffffffffffffffffffffffff1673ffffffffffffffffffffffffffffffffffffffff1681526020019081526020016000205490506000601060003373ffffffffffffffffffffffffffffffffffffffff1673ffffffffffffffffffffffffffffffffffffffff168152602001908152602001600020819055506111df81601154614bb590919063ffffffff16565b601181905550600192505b831561121e5761121d600660009054906101000a900473ffffffffffffffffffffffffffffffffffffffff163384614d0d565b5b821561125257611251600260009054906101000a900473ffffffffffffffffffffffffffffffffffffffff163383614d0d565b5b50505050565b60175481565b6000809054906101000a900473ffffffffffffffffffffffffffffffffffffffff1673ffffffffffffffffffffffffffffffffffffffff163373ffffffffffffffffffffffffffffffffffffffff1614611303576040517f08c379a000000000000000000000000000000000000000000000000000000000815260040180806020018281038252602f815260200180615960602f913960400191505060405180910390fd5b80600160006101000a81548173ffffffffffffffffffffffffffffffffffffffff021916908373ffffffffffffffffffffffffffffffffffffffff1602179055507f906a1c6bd7e3091ea86693dd029a831c19049ce77f1dce2ce0bab1cacbabce2281604051808273ffffffffffffffffffffffffffffffffffffffff1673ffffffffffffffffffffffffffffffffffffffff16815260200191505060405180910390a150565b600080600760009054906101000a900473ffffffffffffffffffffffffffffffffffffffff1673ffffffffffffffffffffffffffffffffffffffff1663345ba24b6040518163ffffffff1660e01b815260040160206040518083038186803b15801561141557600080fd5b505afa158015611429573d6000803e3d6000fd5b505050506040513d602081101561143f57600080fd5b810190808051906020019092919050505090506000600860009054906101000a900473ffffffffffffffffffffffffffffffffffffffff1673ffffffffffffffffffffffffffffffffffffffff16633ddac953600a60009054906101000a900473ffffffffffffffffffffffffffffffffffffffff167f0000000000000000000000000000000000000000000000000000000000000000600a0a620f4240026040518363ffffffff1660e01b8152600401808373ffffffffffffffffffffffffffffffffffffffff1673ffffffffffffffffffffffffffffffffffffffff1681526020018281526020019250505060206040518083038186803b15801561154557600080fd5b505afa158015611559573d6000803e3d6000fd5b505050506040513d602081101561156f57600080fd5b8101908080519060200190929190505050905060006115ac8261159e620f424086614bff90919063ffffffff16565b614b6b90919063ffffffff16565b90506116f8620f42406116ea836116dc7f0000000000000000000000000000000000000000000000000000000000000000600a0a6116ce601154600260009054906101000a900473ffffffffffffffffffffffffffffffffffffffff1673ffffffffffffffffffffffffffffffffffffffff166370a08231306040518263ffffffff1660e01b8152600401808273ffffffffffffffffffffffffffffffffffffffff1673ffffffffffffffffffffffffffffffffffffffff16815260200191505060206040518083038186803b15801561168557600080fd5b505afa158015611699573d6000803e3d6000fd5b505050506040513d60208110156116af57600080fd5b8101908080519060200190929190505050614bb590919063ffffffff16565b614bff90919063ffffffff16565b614bff90919063ffffffff16565b614b6b90919063ffffffff16565b935050505090565b60001515601860009054906101000a900460ff16151514611789576040517f08c379a00000000000000000000000000000000000000000000000000000000081526004018080602001828103825260118152602001807f4d696e74696e672069732070617573656400000000000000000000000000000081525060200191505060405180910390fd5b6000600760009054906101000a900473ffffffffffffffffffffffffffffffffffffffff1673ffffffffffffffffffffffffffffffffffffffff1663ed88564c6040518163ffffffff1660e01b815260040160206040518083038186803b1580156117f357600080fd5b505afa158015611807573d6000803e3d6000fd5b505050506040513d602081101561181d57600080fd5b810190808051906020019092919050505090506000600760009054906101000a900473ffffffffffffffffffffffffffffffffffffffff1673ffffffffffffffffffffffffffffffffffffffff16632eb9771b6040518163ffffffff1660e01b815260040160206040518083038186803b15801561189a57600080fd5b505afa1580156118ae573d6000803e3d6000fd5b505050506040513d60208110156118c457600080fd5b81019080805190602001909291905050509050620f4240811080156118e95750600081115b61193e576040517f08c379a000000000000000000000000000000000000000000000000000000000815260040180806020018281038252603881526020018061587d6038913960400191505060405180910390fd5b601454611a4186611a33601154600260009054906101000a900473ffffffffffffffffffffffffffffffffffffffff1673ffffffffffffffffffffffffffffffffffffffff166370a08231306040518263ffffffff1660e01b8152600401808273ffffffffffffffffffffffffffffffffffffffff1673ffffffffffffffffffffffffffffffffffffffff16815260200191505060206040518083038186803b1580156119ea57600080fd5b505afa1580156119fe573d6000803e3d6000fd5b505050506040513d6020811015611a1457600080fd5b8101908080519060200190929190505050614bb590919063ffffffff16565b614c8590919063ffffffff16565b1115611a98576040517f08c379a00000000000000000000000000000000000000000000000000000000081526004018080602001828103825260458152602001806159b06045913960600191505060405180910390fd5b60007f0000000000000000000000000000000000000000000000000000000000000000600a0a86029050611aca615794565b6040518060a00160405280858152602001611ae36143b1565b8152602001878152602001838152602001848152509050600080611b0683614f06565b91509150611b49620f4240611b3b611b2c600b54620f4240614bb590919063ffffffff16565b85614bff90919063ffffffff16565b614b6b90919063ffffffff16565b915081871115611bc1576040517f08c379a00000000000000000000000000000000000000000000000000000000081526004018080602001828103825260168152602001807f536c697070616765206c696d697420726561636865640000000000000000000081525060200191505060405180910390fd5b87811115611c37576040517f08c379a00000000000000000000000000000000000000000000000000000000081526004018080602001828103825260178152602001807f4e6f7420656e6f75676820574d4620696e70757474656400000000000000000081525060200191505060405180910390fd5b600660009054906101000a900473ffffffffffffffffffffffffffffffffffffffff1673ffffffffffffffffffffffffffffffffffffffff1663a8a778ae33836040518363ffffffff1660e01b8152600401808373ffffffffffffffffffffffffffffffffffffffff1673ffffffffffffffffffffffffffffffffffffffff16815260200182815260200192505050600060405180830381600087803b158015611ce057600080fd5b505af1158015611cf4573d6000803e3d6000fd5b50505050611d26600260009054906101000a900473ffffffffffffffffffffffffffffffffffffffff1633308c615003565b600760009054906101000a900473ffffffffffffffffffffffffffffffffffffffff1673ffffffffffffffffffffffffffffffffffffffff1663b4f56b2633846040518363ffffffff1660e01b8152600401808373ffffffffffffffffffffffffffffffffffffffff1673ffffffffffffffffffffffffffffffffffffffff16815260200182815260200192505050600060405180830381600087803b158015611dcf57600080fd5b505af1158015611de3573d6000803e3d6000fd5b50505050505050505050505050565b60165481565b6000809054906101000a900473ffffffffffffffffffffffffffffffffffffffff1673ffffffffffffffffffffffffffffffffffffffff163373ffffffffffffffffffffffffffffffffffffffff1614611e9d576040517f08c379a000000000000000000000000000000000000000000000000000000000815260040180806020018281038252602f815260200180615960602f913960400191505060405180910390fd5b86601481905550856016819055508460178190555083600b8190555082600c8190555081600d8190555080600e819055507f17fe98b66d27bd793ea01bd8a23a54acab8eeb167d9eb016a0c7cd71c573920c878787878787876040518088815260200187815260200186815260200185815260200184815260200183815260200182815260200197505050505050505060405180910390a150505050505050565b600160009054906101000a900473ffffffffffffffffffffffffffffffffffffffff1681565b60145481565b600160009054906101000a900473ffffffffffffffffffffffffffffffffffffffff1673ffffffffffffffffffffffffffffffffffffffff163373ffffffffffffffffffffffffffffffffffffffff1614612010576040517f08c379a00000000000000000000000000000000000000000000000000000000081526004018080602001828103825260358152602001806158186035913960400191505060405180910390fd5b7fb532073b38c83145e3e5135377a08bf9aab55bc0fd7c1179cd4fb995d2a5159c6000809054906101000a900473ffffffffffffffffffffffffffffffffffffffff16600160009054906101000a900473ffffffffffffffffffffffffffffffffffffffff16604051808373ffffffffffffffffffffffffffffffffffffffff1673ffffffffffffffffffffffffffffffffffffffff1681526020018273ffffffffffffffffffffffffffffffffffffffff1673ffffffffffffffffffffffffffffffffffffffff1681526020019250505060405180910390a1600160009054906101000a900473ffffffffffffffffffffffffffffffffffffffff166000806101000a81548173ffffffffffffffffffffffffffffffffffffffff021916908373ffffffffffffffffffffffffffffffffffffffff1602179055506000600160006101000a81548173ffffffffffffffffffffffffffffffffffffffff021916908373ffffffffffffffffffffffffffffffffffffffff160217905550565b60115481565b600f6020528060005260406000206000915090505481565b6000809054906101000a900473ffffffffffffffffffffffffffffffffffffffff1673ffffffffffffffffffffffffffffffffffffffff163373ffffffffffffffffffffffffffffffffffffffff161461220757600080fd5b601860009054906101000a900460ff1615601860006101000a81548160ff0219169083151502179055507f6bdfe227d5db299c59aa56d5f846f40dbd73b271aaa78e18ed74fc3e00b8aa6b601860009054906101000a900460ff16604051808215151515815260200191505060405180910390a1565b601860009054906101000a900460ff1681565b60001515601860019054906101000a900460ff16151514612319576040517f08c379a00000000000000000000000000000000000000000000000000000000081526004018080602001828103825260138152602001807f52656465656d696e67206973207061757365640000000000000000000000000081525060200191505060405180910390fd5b6000600760009054906101000a900473ffffffffffffffffffffffffffffffffffffffff1673ffffffffffffffffffffffffffffffffffffffff1663ed88564c6040518163ffffffff1660e01b815260040160206040518083038186803b15801561238357600080fd5b505afa158015612397573d6000803e3d6000fd5b505050506040513d60208110156123ad57600080fd5b810190808051906020019092919050505090506000600760009054906101000a900473ffffffffffffffffffffffffffffffffffffffff1673ffffffffffffffffffffffffffffffffffffffff16632eb9771b6040518163ffffffff1660e01b815260040160206040518083038186803b15801561242a57600080fd5b505afa15801561243e573d6000803e3d6000fd5b505050506040513d602081101561245457600080fd5b81019080805190602001909291905050509050620f4240811080156124795750600081115b6124ce576040517f08c379a000000000000000000000000000000000000000000000000000000000815260040180806020018281038252603881526020018061587d6038913960400191505060405180910390fd5b60006124d86143b1565b9050600061251b620f424061250d6124fe600c54620f4240614bb590919063ffffffff16565b8a614bff90919063ffffffff16565b614b6b90919063ffffffff16565b9050600061255961254a620f424061253c8786614bff90919063ffffffff16565b614b6b90919063ffffffff16565b83614bb590919063ffffffff16565b9050600061258586612577620f424085614bff90919063ffffffff16565b614b6b90919063ffffffff16565b905060006125bf7f0000000000000000000000000000000000000000000000000000000000000000600a0a85614b6b90919063ffffffff16565b905060006125eb620f42406125dd8985614bff90919063ffffffff16565b614b6b90919063ffffffff16565b9050600061261787612609620f424085614bff90919063ffffffff16565b614b6b90919063ffffffff16565b9050612707601154600260009054906101000a900473ffffffffffffffffffffffffffffffffffffffff1673ffffffffffffffffffffffffffffffffffffffff166370a08231306040518263ffffffff1660e01b8152600401808273ffffffffffffffffffffffffffffffffffffffff1673ffffffffffffffffffffffffffffffffffffffff16815260200191505060206040518083038186803b1580156126be57600080fd5b505afa1580156126d2573d6000803e3d6000fd5b505050506040513d60208110156126e857600080fd5b8101908080519060200190929190505050614bb590919063ffffffff16565b81111561277c576040517f08c379a000000000000000000000000000000000000000000000000000000000815260040180806020018281038252601d8152602001807f4e6f7420656e6f75676820636f6c6c61746572616c20696e20706f6f6c00000081525060200191505060405180910390fd5b808a11156127d5576040517f08c379a00000000000000000000000000000000000000000000000000000000081526004018080602001828103825260238152602001806158b56023913960400191505060405180910390fd5b838b111561284b576040517f08c379a000000000000000000000000000000000000000000000000000000000815260040180806020018281038252601c8152602001807f536c697070616765206c696d69742072656163686564205b574d465d0000000081525060200191505060405180910390fd5b61289d81601060003373ffffffffffffffffffffffffffffffffffffffff1673ffffffffffffffffffffffffffffffffffffffff16815260200190815260200160002054614c8590919063ffffffff16565b601060003373ffffffffffffffffffffffffffffffffffffffff1673ffffffffffffffffffffffffffffffffffffffff168152602001908152602001600020819055506128f581601154614c8590919063ffffffff16565b60118190555061294d84600f60003373ffffffffffffffffffffffffffffffffffffffff1673ffffffffffffffffffffffffffffffffffffffff16815260200190815260200160002054614c8590919063ffffffff16565b600f60003373ffffffffffffffffffffffffffffffffffffffff1673ffffffffffffffffffffffffffffffffffffffff168152602001908152602001600020819055506129a584601254614c8590919063ffffffff16565b60128190555043601360003373ffffffffffffffffffffffffffffffffffffffff1673ffffffffffffffffffffffffffffffffffffffff16815260200190815260200160002081905550600760009054906101000a900473ffffffffffffffffffffffffffffffffffffffff1673ffffffffffffffffffffffffffffffffffffffff1663a8a778ae338e6040518363ffffffff1660e01b8152600401808373ffffffffffffffffffffffffffffffffffffffff1673ffffffffffffffffffffffffffffffffffffffff16815260200182815260200192505050600060405180830381600087803b158015612a9857600080fd5b505af1158015612aac573d6000803e3d6000fd5b50505050600660009054906101000a900473ffffffffffffffffffffffffffffffffffffffff1673ffffffffffffffffffffffffffffffffffffffff1663b4f56b2630866040518363ffffffff1660e01b8152600401808373ffffffffffffffffffffffffffffffffffffffff1673ffffffffffffffffffffffffffffffffffffffff16815260200182815260200192505050600060405180830381600087803b158015612b5957600080fd5b505af1158015612b6d573d6000803e3d6000fd5b50505050505050505050505050505050565b6000809054906101000a900473ffffffffffffffffffffffffffffffffffffffff1673ffffffffffffffffffffffffffffffffffffffff163373ffffffffffffffffffffffffffffffffffffffff1614612c24576040517f08c379a000000000000000000000000000000000000000000000000000000000815260040180806020018281038252602f815260200180615960602f913960400191505060405180910390fd5b81600960006101000a81548173ffffffffffffffffffffffffffffffffffffffff021916908373ffffffffffffffffffffffffffffffffffffffff16021790555081600860006101000a81548173ffffffffffffffffffffffffffffffffffffffff021916908373ffffffffffffffffffffffffffffffffffffffff16021790555080600a60006101000a81548173ffffffffffffffffffffffffffffffffffffffff021916908373ffffffffffffffffffffffffffffffffffffffff1602179055505050565b60001515601860009054906101000a900460ff16151514612d74576040517f08c379a00000000000000000000000000000000000000000000000000000000081526004018080602001828103825260118152602001807f4d696e74696e672069732070617573656400000000000000000000000000000081525060200191505060405180910390fd5b6000600760009054906101000a900473ffffffffffffffffffffffffffffffffffffffff1673ffffffffffffffffffffffffffffffffffffffff1663ed88564c6040518163ffffffff1660e01b815260040160206040518083038186803b158015612dde57600080fd5b505afa158015612df2573d6000803e3d6000fd5b505050506040513d6020811015612e0857600080fd5b810190808051906020019092919050505090506000600760009054906101000a900473ffffffffffffffffffffffffffffffffffffffff1673ffffffffffffffffffffffffffffffffffffffff16632eb9771b6040518163ffffffff1660e01b815260040160206040518083038186803b158015612e8557600080fd5b505afa158015612e99573d6000803e3d6000fd5b505050506040513d6020811015612eaf57600080fd5b810190808051906020019092919050505014612f33576040517f08c379a000000000000000000000000000000000000000000000000000000000815260040180806020018281038252601a8152602001807f436f6c6c61746572616c20726174696f206d757374206265203000000000000081525060200191505060405180910390fd5b600073__WUSDPoolLibrary_______________________63516e903683866040518363ffffffff1660e01b8152600401808381526020018281526020019250505060206040518083038186803b158015612f8c57600080fd5b505af4158015612fa0573d6000803e3d6000fd5b505050506040513d6020811015612fb657600080fd5b81019080805190602001909291905050509050613008620f4240612ffa612feb600b54620f4240614bb590919063ffffffff16565b84614bff90919063ffffffff16565b614b6b90919063ffffffff16565b905080831115613080576040517f08c379a00000000000000000000000000000000000000000000000000000000081526004018080602001828103825260168152602001807f536c697070616765206c696d697420726561636865640000000000000000000081525060200191505060405180910390fd5b600660009054906101000a900473ffffffffffffffffffffffffffffffffffffffff1673ffffffffffffffffffffffffffffffffffffffff1663a8a778ae33866040518363ffffffff1660e01b8152600401808373ffffffffffffffffffffffffffffffffffffffff1673ffffffffffffffffffffffffffffffffffffffff16815260200182815260200192505050600060405180830381600087803b15801561312957600080fd5b505af115801561313d573d6000803e3d6000fd5b50505050600760009054906101000a900473ffffffffffffffffffffffffffffffffffffffff1673ffffffffffffffffffffffffffffffffffffffff1663b4f56b2633836040518363ffffffff1660e01b8152600401808373ffffffffffffffffffffffffffffffffffffffff1673ffffffffffffffffffffffffffffffffffffffff16815260200182815260200192505050600060405180830381600087803b1580156131ea57600080fd5b505af11580156131fe573d6000803e3d6000fd5b5050505050505050565b600960009054906101000a900473ffffffffffffffffffffffffffffffffffffffff1681565b6000809054906101000a900473ffffffffffffffffffffffffffffffffffffffff1681565b60125481565b60136020528060005260406000206000915090505481565b601860019054906101000a900460ff1681565b6000600760009054906101000a900473ffffffffffffffffffffffffffffffffffffffff1673ffffffffffffffffffffffffffffffffffffffff1663ed88564c6040518163ffffffff1660e01b815260040160206040518083038186803b1580156132ee57600080fd5b505afa158015613302573d6000803e3d6000fd5b505050506040513d602081101561331857600080fd5b810190808051906020019092919050505090506133336157c3565b604051806080016040528061334661414b565b81526020018381526020016133596143b1565b815260200185815250905060006133ad620f424061339f613388600d54620f4240614bb590919063ffffffff16565b61339186615214565b614bff90919063ffffffff16565b614b6b90919063ffffffff16565b905060006133e77f0000000000000000000000000000000000000000000000000000000000000000600a0a83614b6b90919063ffffffff16565b90508085111561345f576040517f08c379a00000000000000000000000000000000000000000000000000000000081526004018080602001828103825260168152602001807f536c697070616765206c696d697420726561636865640000000000000000000081525060200191505060405180910390fd5b600660009054906101000a900473ffffffffffffffffffffffffffffffffffffffff1673ffffffffffffffffffffffffffffffffffffffff1663a8a778ae33886040518363ffffffff1660e01b8152600401808373ffffffffffffffffffffffffffffffffffffffff1673ffffffffffffffffffffffffffffffffffffffff16815260200182815260200192505050600060405180830381600087803b15801561350857600080fd5b505af115801561351c573d6000803e3d6000fd5b5050505061354d600260009054906101000a900473ffffffffffffffffffffffffffffffffffffffff163383614d0d565b505050505050565b600b5481565b60155481565b600c5481565b60001515601860009054906101000a900460ff161515146135f0576040517f08c379a00000000000000000000000000000000000000000000000000000000081526004018080602001828103825260118152602001807f4d696e74696e672069732070617573656400000000000000000000000000000081525060200191505060405180910390fd5b60007f0000000000000000000000000000000000000000000000000000000000000000600a0a83029050620f4240600760009054906101000a900473ffffffffffffffffffffffffffffffffffffffff1673ffffffffffffffffffffffffffffffffffffffff16632eb9771b6040518163ffffffff1660e01b815260040160206040518083038186803b15801561368657600080fd5b505afa15801561369a573d6000803e3d6000fd5b505050506040513d60208110156136b057600080fd5b81019080805190602001909291905050501015613735576040517f08c379a000000000000000000000000000000000000000000000000000000000815260040180806020018281038252601d8152602001807f436f6c6c61746572616c20726174696f206d757374206265203e3d203100000081525060200191505060405180910390fd5b6014546138388461382a601154600260009054906101000a900473ffffffffffffffffffffffffffffffffffffffff1673ffffffffffffffffffffffffffffffffffffffff166370a08231306040518263ffffffff1660e01b8152600401808273ffffffffffffffffffffffffffffffffffffffff1673ffffffffffffffffffffffffffffffffffffffff16815260200191505060206040518083038186803b1580156137e157600080fd5b505afa1580156137f5573d6000803e3d6000fd5b505050506040513d602081101561380b57600080fd5b8101908080519060200190929190505050614bb590919063ffffffff16565b614c8590919063ffffffff16565b11156138ac576040517f08c379a00000000000000000000000000000000000000000000000000000000081526004018080602001828103825260208152602001807f5b506f6f6c277320436c6f7365645d3a204365696c696e67207265616368656481525060200191505060405180910390fd5b600073__WUSDPoolLibrary_______________________634e69d9156138d06143b1565b846040518363ffffffff1660e01b8152600401808381526020018281526020019250505060206040518083038186803b15801561390c57600080fd5b505af4158015613920573d6000803e3d6000fd5b505050506040513d602081101561393657600080fd5b81019080805190602001909291905050509050613988620f424061397a61396b600b54620f4240614bb590919063ffffffff16565b84614bff90919063ffffffff16565b614b6b90919063ffffffff16565b905080831115613a00576040517f08c379a00000000000000000000000000000000000000000000000000000000081526004018080602001828103825260168152602001807f536c697070616765206c696d697420726561636865640000000000000000000081525060200191505060405180910390fd5b613a2e600260009054906101000a900473ffffffffffffffffffffffffffffffffffffffff16333087615003565b600760009054906101000a900473ffffffffffffffffffffffffffffffffffffffff1673ffffffffffffffffffffffffffffffffffffffff1663b4f56b2633836040518363ffffffff1660e01b8152600401808373ffffffffffffffffffffffffffffffffffffffff1673ffffffffffffffffffffffffffffffffffffffff16815260200182815260200192505050600060405180830381600087803b158015613ad757600080fd5b505af1158015613aeb573d6000803e3d6000fd5b5050505050505050565b6000809054906101000a900473ffffffffffffffffffffffffffffffffffffffff1673ffffffffffffffffffffffffffffffffffffffff163373ffffffffffffffffffffffffffffffffffffffff1614613b4e57600080fd5b601860019054906101000a900460ff1615601860016101000a81548160ff0219169083151502179055507f5860c5063a65e23cea4e2e2925f1a841bb6d1bc9615bd425f8dd084980b05141601860019054906101000a900460ff16604051808215151515815260200191505060405180910390a1565b60007f0000000000000000000000000000000000000000000000000000000000000000600a0a830290506000600760009054906101000a900473ffffffffffffffffffffffffffffffffffffffff1673ffffffffffffffffffffffffffffffffffffffff1663ed88564c6040518163ffffffff1660e01b815260040160206040518083038186803b158015613c5857600080fd5b505afa158015613c6c573d6000803e3d6000fd5b505050506040513d6020811015613c8257600080fd5b810190808051906020019092919050505090506000600760009054906101000a900473ffffffffffffffffffffffffffffffffffffffff1673ffffffffffffffffffffffffffffffffffffffff166318160ddd6040518163ffffffff1660e01b815260040160206040518083038186803b158015613cff57600080fd5b505afa158015613d13573d6000803e3d6000fd5b505050506040513d6020811015613d2957600080fd5b810190808051906020019092919050505090506000600760009054906101000a900473ffffffffffffffffffffffffffffffffffffffff1673ffffffffffffffffffffffffffffffffffffffff16632eb9771b6040518163ffffffff1660e01b815260040160206040518083038186803b158015613da657600080fd5b505afa158015613dba573d6000803e3d6000fd5b505050506040513d6020811015613dd057600080fd5b810190808051906020019092919050505090506000600760009054906101000a900473ffffffffffffffffffffffffffffffffffffffff1673ffffffffffffffffffffffffffffffffffffffff1663d2d97b066040518163ffffffff1660e01b815260040160206040518083038186803b158015613e4d57600080fd5b505afa158015613e61573d6000803e3d6000fd5b505050506040513d6020811015613e7757600080fd5b8101908080519060200190929190505050905060008073__WUSDPoolLibrary_______________________635669723888613eb06143b1565b8689896040518663ffffffff1660e01b81526004018086815260200185815260200184815260200183815260200182815260200195505050505050604080518083038186803b158015613f0257600080fd5b505af4158015613f16573d6000803e3d6000fd5b505050506040513d6040811015613f2c57600080fd5b810190808051906020019092919080519060200190929190505050915091506000613f837f0000000000000000000000000000000000000000000000000000000000000000600a0a84614b6b90919063ffffffff16565b90506000613fd788613fc9613fba600e54613fac601654620f4240614c8590919063ffffffff16565b614bb590919063ffffffff16565b86614bff90919063ffffffff16565b614b6b90919063ffffffff16565b9050808a111561404f576040517f08c379a00000000000000000000000000000000000000000000000000000000081526004018080602001828103825260168152602001807f536c697070616765206c696d697420726561636865640000000000000000000081525060200191505060405180910390fd5b61407d600260009054906101000a900473ffffffffffffffffffffffffffffffffffffffff16333085615003565b600660009054906101000a900473ffffffffffffffffffffffffffffffffffffffff1673ffffffffffffffffffffffffffffffffffffffff1663b4f56b2633836040518363ffffffff1660e01b8152600401808373ffffffffffffffffffffffffffffffffffffffff1673ffffffffffffffffffffffffffffffffffffffff16815260200182815260200192505050600060405180830381600087803b15801561412657600080fd5b505af115801561413a573d6000803e3d6000fd5b505050505050505050505050505050565b600080600760009054906101000a900473ffffffffffffffffffffffffffffffffffffffff1673ffffffffffffffffffffffffffffffffffffffff166318160ddd6040518163ffffffff1660e01b815260040160206040518083038186803b1580156141b657600080fd5b505afa1580156141ca573d6000803e3d6000fd5b505050506040513d60208110156141e057600080fd5b810190808051906020019092919050505090506000600760009054906101000a900473ffffffffffffffffffffffffffffffffffffffff1673ffffffffffffffffffffffffffffffffffffffff16632eb9771b6040518163ffffffff1660e01b815260040160206040518083038186803b15801561425d57600080fd5b505afa158015614271573d6000803e3d6000fd5b505050506040513d602081101561428757600080fd5b810190808051906020019092919050505090506000600760009054906101000a900473ffffffffffffffffffffffffffffffffffffffff1673ffffffffffffffffffffffffffffffffffffffff1663d2d97b066040518163ffffffff1660e01b815260040160206040518083038186803b15801561430457600080fd5b505afa158015614318573d6000803e3d6000fd5b505050506040513d602081101561432e57600080fd5b81019080805190602001909291905050509050620f424082111561435357620f424091505b600061437d620f424061436f8587614bff90919063ffffffff16565b614b6b90919063ffffffff16565b9050808211156143a55761439a8183614bb590919063ffffffff16565b9450505050506143ae565b60009450505050505b90565b600080600760009054906101000a900473ffffffffffffffffffffffffffffffffffffffff1673ffffffffffffffffffffffffffffffffffffffff1663345ba24b6040518163ffffffff1660e01b815260040160206040518083038186803b15801561441c57600080fd5b505afa158015614430573d6000803e3d6000fd5b505050506040513d602081101561444657600080fd5b810190808051906020019092919050505090506145ac600860009054906101000a900473ffffffffffffffffffffffffffffffffffffffff1673ffffffffffffffffffffffffffffffffffffffff16633ddac953600a60009054906101000a900473ffffffffffffffffffffffffffffffffffffffff167f0000000000000000000000000000000000000000000000000000000000000000600a0a620f4240026040518363ffffffff1660e01b8152600401808373ffffffffffffffffffffffffffffffffffffffff1673ffffffffffffffffffffffffffffffffffffffff1681526020018281526020019250505060206040518083038186803b15801561454d57600080fd5b505afa158015614561573d6000803e3d6000fd5b505050506040513d602081101561457757600080fd5b810190808051906020019092919050505061459e620f424084614bff90919063ffffffff16565b614b6b90919063ffffffff16565b91505090565b600e5481565b60001515601860019054906101000a900460ff16151514614641576040517f08c379a00000000000000000000000000000000000000000000000000000000081526004018080602001828103825260138152602001807f52656465656d696e67206973207061757365640000000000000000000000000081525060200191505060405180910390fd5b6000600760009054906101000a900473ffffffffffffffffffffffffffffffffffffffff1673ffffffffffffffffffffffffffffffffffffffff1663ed88564c6040518163ffffffff1660e01b815260040160206040518083038186803b1580156146ab57600080fd5b505afa1580156146bf573d6000803e3d6000fd5b505050506040513d60208110156146d557600080fd5b810190808051906020019092919050505090506000600760009054906101000a900473ffffffffffffffffffffffffffffffffffffffff1673ffffffffffffffffffffffffffffffffffffffff16632eb9771b6040518163ffffffff1660e01b815260040160206040518083038186803b15801561475257600080fd5b505afa158015614766573d6000803e3d6000fd5b505050506040513d602081101561477c57600080fd5b8101908080519060200190929190505050905060008114614805576040517f08c379a000000000000000000000000000000000000000000000000000000000815260040180806020018281038252601a8152602001807f436f6c6c61746572616c20726174696f206d757374206265203000000000000081525060200191505060405180910390fd5b6000849050614849620f424061483b61482c600c54620f4240614bb590919063ffffffff16565b84614bff90919063ffffffff16565b614b6b90919063ffffffff16565b9050600061487584614867620f424085614bff90919063ffffffff16565b614b6b90919063ffffffff16565b90506148c981600f60003373ffffffffffffffffffffffffffffffffffffffff1673ffffffffffffffffffffffffffffffffffffffff16815260200190815260200160002054614c8590919063ffffffff16565b600f60003373ffffffffffffffffffffffffffffffffffffffff1673ffffffffffffffffffffffffffffffffffffffff1681526020019081526020016000208190555061492181601254614c8590919063ffffffff16565b60128190555043601360003373ffffffffffffffffffffffffffffffffffffffff1673ffffffffffffffffffffffffffffffffffffffff16815260200190815260200160002081905550808511156149e1576040517f08c379a00000000000000000000000000000000000000000000000000000000081526004018080602001828103825260168152602001807f536c697070616765206c696d697420726561636865640000000000000000000081525060200191505060405180910390fd5b600760009054906101000a900473ffffffffffffffffffffffffffffffffffffffff1673ffffffffffffffffffffffffffffffffffffffff1663a8a778ae33886040518363ffffffff1660e01b8152600401808373ffffffffffffffffffffffffffffffffffffffff1673ffffffffffffffffffffffffffffffffffffffff16815260200182815260200192505050600060405180830381600087803b158015614a8a57600080fd5b505af1158015614a9e573d6000803e3d6000fd5b50505050600660009054906101000a900473ffffffffffffffffffffffffffffffffffffffff1673ffffffffffffffffffffffffffffffffffffffff1663b4f56b2630836040518363ffffffff1660e01b8152600401808373ffffffffffffffffffffffffffffffffffffffff1673ffffffffffffffffffffffffffffffffffffffff16815260200182815260200192505050600060405180830381600087803b158015614b4b57600080fd5b505af1158015614b5f573d6000803e3d6000fd5b50505050505050505050565b6000614bad83836040518060400160405280601a81526020017f536166654d6174683a206469766973696f6e206279207a65726f00000000000081525061533d565b905092915050565b6000614bf783836040518060400160405280601e81526020017f536166654d6174683a207375627472616374696f6e206f766572666c6f770000815250615403565b905092915050565b600080831415614c125760009050614c7f565b6000828402905082848281614c2357fe5b0414614c7a576040517f08c379a000000000000000000000000000000000000000000000000000000000815260040180806020018281038252602181526020018061598f6021913960400191505060405180910390fd5b809150505b92915050565b600080828401905083811015614d03576040517f08c379a000000000000000000000000000000000000000000000000000000000815260040180806020018281038252601b8152602001807f536166654d6174683a206164646974696f6e206f766572666c6f77000000000081525060200191505060405180910390fd5b8091505092915050565b600060608473ffffffffffffffffffffffffffffffffffffffff1663a9059cbb8585604051602401808373ffffffffffffffffffffffffffffffffffffffff1673ffffffffffffffffffffffffffffffffffffffff168152602001828152602001925050506040516020818303038152906040529060e01b6020820180517bffffffffffffffffffffffffffffffffffffffffffffffffffffffff83818316178352505050506040518082805190602001908083835b60208310614de65780518252602082019150602081019050602083039250614dc3565b6001836020036101000a0380198251168184511680821785525050505050509050019150506000604051808303816000865af19150503d8060008114614e48576040519150601f19603f3d011682016040523d82523d6000602084013e614e4d565b606091505b5091509150818015614e8d5750600081511480614e8c5750808060200190516020811015614e7a57600080fd5b81019080805190602001909291905050505b5b614eff576040517f08c379a000000000000000000000000000000000000000000000000000000000815260040180806020018281038252601f8152602001807f5472616e7366657248656c7065723a205452414e534645525f4641494c45440081525060200191505060405180910390fd5b5050505050565b600080600080614f3c620f4240614f2e876000015188604001516154c390919063ffffffff16565b61554990919063ffffffff16565b9150614f6e620f4240614f60876020015188606001516154c390919063ffffffff16565b61554990919063ffffffff16565b90506000614fb082614fa28860800151614f94620f4240876154c390919063ffffffff16565b61554990919063ffffffff16565b61557690919063ffffffff16565b90506000614fe08760000151614fd2620f4240856154c390919063ffffffff16565b61554990919063ffffffff16565b9050614ff582846155a390919063ffffffff16565b819550955050505050915091565b600060608573ffffffffffffffffffffffffffffffffffffffff166323b872dd868686604051602401808473ffffffffffffffffffffffffffffffffffffffff1673ffffffffffffffffffffffffffffffffffffffff1681526020018373ffffffffffffffffffffffffffffffffffffffff1673ffffffffffffffffffffffffffffffffffffffff16815260200182815260200193505050506040516020818303038152906040529060e01b6020820180517bffffffffffffffffffffffffffffffffffffffffffffffffffffffff83818316178352505050506040518082805190602001908083835b6020831061511057805182526020820191506020810190506020830392506150ed565b6001836020036101000a0380198251168184511680821785525050505050509050019150506000604051808303816000865af19150503d8060008114615172576040519150601f19603f3d011682016040523d82523d6000602084013e615177565b606091505b50915091508180156151b757506000815114806151b657508080602001905160208110156151a457600080fd5b81019080805190602001909291905050505b5b61520c576040517f08c379a0000000000000000000000000000000000000000000000000000000008152600401808060200182810382526024815260200180615a1e6024913960400191505060405180910390fd5b505050505050565b600080826000015111615272576040517f08c379a000000000000000000000000000000000000000000000000000000000815260040180806020018281038252602181526020018061591a6021913960400191505060405180910390fd5b60006152a4620f4240615296856020015186606001516154c390919063ffffffff16565b61554990919063ffffffff16565b90508260000151811115615303576040517f08c379a000000000000000000000000000000000000000000000000000000000815260040180806020018281038252603081526020018061584d6030913960400191505060405180910390fd5b60006153318460400151615323620f4240856154c390919063ffffffff16565b61554990919063ffffffff16565b90508092505050919050565b600080831182906153e9576040517f08c379a00000000000000000000000000000000000000000000000000000000081526004018080602001828103825283818151815260200191508051906020019080838360005b838110156153ae578082015181840152602081019050615393565b50505050905090810190601f1680156153db5780820380516001836020036101000a031916815260200191505b509250505060405180910390fd5b5060008385816153f557fe5b049050809150509392505050565b60008383111582906154b0576040517f08c379a00000000000000000000000000000000000000000000000000000000081526004018080602001828103825283818151815260200191508051906020019080838360005b8381101561547557808201518184015260208101905061545a565b50505050905090810190601f1680156154a25780820380516001836020036101000a031916815260200191505b509250505060405180910390fd5b5060008385039050809150509392505050565b6000808314156154d65760009050615543565b60008284029050828482816154e757fe5b041461553e576040517f08c379a000000000000000000000000000000000000000000000000000000000815260040180806020018281038252602c8152602001806157ec602c913960400191505060405180910390fd5b809150505b92915050565b600061556e838360405180606001604052806025815260200161593b6025913961560e565b905092915050565b600061559b83836040518060600160405280602981526020016159f5602991396156d4565b905092915050565b600080828401905083811015615604576040517f08c379a0000000000000000000000000000000000000000000000000000000008152600401808060200182810382526026815260200180615a426026913960400191505060405180910390fd5b8091505092915050565b600080831182906156ba576040517f08c379a00000000000000000000000000000000000000000000000000000000081526004018080602001828103825283818151815260200191508051906020019080838360005b8381101561567f578082015181840152602081019050615664565b50505050905090810190601f1680156156ac5780820380516001836020036101000a031916815260200191505b509250505060405180910390fd5b5060008385816156c657fe5b049050809150509392505050565b6000838311158290615781576040517f08c379a00000000000000000000000000000000000000000000000000000000081526004018080602001828103825283818151815260200191508051906020019080838360005b8381101561574657808201518184015260208101905061572b565b50505050905090810190601f1680156157735780820380516001836020036101000a031916815260200191505b509250505060405180910390fd5b5060008385039050809150509392505050565b6040518060a0016040528060008152602001600081526020016000815260200160008152602001600081525090565b604051806080016040528060008152602001600081526020016000815260200160008152509056fe536166654d61746855706772616465536166653a206d756c7469706c69636174696f6e206f766572666c6f77596f75206d757374206265206e6f6d696e61746564206265666f726520796f752063616e20616363657074206f776e657273686970596f752061726520747279696e6720746f20627579206261636b206d6f7265207468616e207468652065786365737321436f6c6c61746572616c20726174696f206e6565647320746f206265206265747765656e202e30303030303120616e64202e393939393939536c697070616765206c696d69742072656163686564205b636f6c6c61746572616c5d4d757374207761697420666f7220726564656d7074696f6e5f64656c617920626c6f636b73206265666f726520636f6c6c656374696e6720726564656d7074696f6e4e6f2065786365737320636f6c6c61746572616c20746f20627579206261636b21536166654d61746855706772616465536166653a206469766973696f6e206279207a65726f4f6e6c792074686520636f6e7472616374206f776e6572206d617920706572666f726d207468697320616374696f6e536166654d6174683a206d756c7469706c69636174696f6e206f766572666c6f77506f6f6c206365696c696e6720726561636865642c206e6f206d6f726520575553442063616e206265206d696e7465642077697468207468697320636f6c6c61746572616c536166654d61746855706772616465536166653a207375627472616374696f6e206f766572666c6f775472616e7366657248656c7065723a205452414e534645525f46524f4d5f4641494c4544536166654d61746855706772616465536166653a206164646974696f6e206f766572666c6f77a264697066735822122070546e149a2e5ed07d581156265bb0a78d876805d28552ba735ff714bd6a0b5964736f6c63430006060033",
  "immutableReferences": {
    "625": [
      {
        "length": 32,
        "start": 2721
      },
      {
        "length": 32,
        "start": 5303
      },
      {
        "length": 32,
        "start": 5566
      },
      {
        "length": 32,
        "start": 6812
      },
      {
        "length": 32,
        "start": 9614
      },
      {
        "length": 32,
        "start": 13238
      },
      {
        "length": 32,
        "start": 13812
      },
      {
        "length": 32,
        "start": 15304
      },
      {
        "length": 32,
        "start": 16210
      },
      {
        "length": 32,
        "start": 17599
      }
    ]
  },
  "source": "// SPDX-License-Identifier: GPL-2.0-or-later\npragma solidity =0.6.6;\n\nimport '../Uniswap/TransferHelper.sol';\nimport \"../We_Made_Future.sol\";\nimport \"../We_Made_Future_USD.sol\";\nimport \"../Oracle/UniswapPairOracle.sol\";\nimport \"./WUSDPoolLibrary.sol\";\nimport \"../Owned.sol\";\nimport \"../module/ERC20/ERC20.sol\";\nimport \"../module/Math/SafeMath.sol\";\n\n\ncontract WUSDPool is Owned {\n    using SafeMath for uint256;\n\n    /* ========== STATE VARIABLES ========== */\n\n    ERC20 private collateral_token;\n    address private collateral_address;\n\n    address private WUSD_contract_address;\n    address private WMF_contract_address;\n    We_Made_Future private WMF;\n    WUSDStablecoin private WUSD;\n\n    UniswapPairOracle private collatEthOracle;\n    address public collat_eth_oracle_address;\n    address private weth_address;\n\n    uint256 public minting_fee;\n    uint256 public redemption_fee;\n    uint256 public buyback_fee;\n    uint256 public recollat_fee;\n\n    mapping (address => uint256) public redeemWMFBalances;\n    mapping (address => uint256) public redeemCollateralBalances;\n    uint256 public unclaimedPoolCollateral;\n    uint256 public unclaimedPoolWMF;\n    mapping (address => uint256) public lastRedeemed;\n\n    // Constants for various precisions\n    uint256 private constant PRICE_PRECISION = 1e6;\n    uint256 private constant COLLATERAL_RATIO_PRECISION = 1e6;\n    uint256 private constant COLLATERAL_RATIO_MAX = 1e6;\n\n    // Number of decimals needed to get to 18\n    uint256 private immutable missing_decimals;\n    \n    // Pool_ceiling is the total units of collateral that a pool contract can hold\n    uint256 public pool_ceiling = 1000000e18;\n\n    // Stores price of the collateral, if price is paused\n    uint256 public pausedPrice = 0;\n\n    // Bonus rate on WMF minted during recollateralizeWUSD(); 6 decimals of precision, set to 0.75% on genesis\n    uint256 public bonus_rate = 7500;\n\n    // Number of blocks to wait before being able to collectRedemption()\n    uint256 public redemption_delay = 1;\n    \n    // AccessControl state variables\n    bool public mintPaused = false;\n    bool public redeemPaused = false;\n\n    /* ========== MODIFIERS ========== */\n\n\n    modifier notRedeemPaused() {\n        require(redeemPaused == false, \"Redeeming is paused\");\n        _;\n    }\n\n    modifier notMintPaused() {\n        require(mintPaused == false, \"Minting is paused\");\n        _;\n    }\n \n    /* ========== CONSTRUCTOR ========== */\n    \n    constructor (\n        address _WUSD_contract_address,\n        address _WMF_contract_address,\n        address _collateral_address,\n        address _creator_address\n    ) public Owned(_creator_address){\n        require(\n            (_WUSD_contract_address != address(0))\n            && (_WMF_contract_address != address(0))\n            && (_collateral_address != address(0))\n            && (_creator_address != address(0))\n        , \"Zero address detected\"); \n        WUSD = WUSDStablecoin(_WUSD_contract_address);\n        WMF = We_Made_Future(_WMF_contract_address);\n        WUSD_contract_address = _WUSD_contract_address;\n        WMF_contract_address = _WMF_contract_address;\n        collateral_address = _collateral_address;\n        collateral_token = ERC20(_collateral_address);\n        missing_decimals = uint(18).sub(collateral_token.decimals());\n    }\n\n    /* ========== VIEWS ========== */\n\n    // Returns dollar value of collateral held in this WUSD pool\n    function collatDollarBalance() public view returns (uint256) {\n        uint256 eth_usd_price = WUSD.eth_usd_price();\n        uint256 eth_collat_price = collatEthOracle.consult(weth_address, (PRICE_PRECISION * (10 ** missing_decimals)));\n\n        uint256 collat_usd_price = eth_usd_price.mul(PRICE_PRECISION).div(eth_collat_price);\n        return (collateral_token.balanceOf(address(this)).sub(unclaimedPoolCollateral)).mul(10 ** missing_decimals).mul(collat_usd_price).div(PRICE_PRECISION); //.mul(getCollateralPrice()).div(1e6);    \n        \n    }\n\n    // Returns the value of excess collateral held in this WUSD pool, compared to what is needed to maintain the global collateral ratio\n    function availableExcessCollatDV() public view returns (uint256) {\n        uint256 total_supply = WUSD.totalSupply();\n        uint256 global_collateral_ratio = WUSD.global_collateral_ratio();\n        uint256 global_collat_value = WUSD.globalCollateralValue();\n\n        if (global_collateral_ratio > COLLATERAL_RATIO_PRECISION) global_collateral_ratio = COLLATERAL_RATIO_PRECISION; // Handles an overcollateralized contract with CR > 1\n        uint256 required_collat_dollar_value_d18 = (total_supply.mul(global_collateral_ratio)).div(COLLATERAL_RATIO_PRECISION); // Calculates collateral needed to back each 1 WUSD with $1 of collateral at current collat ratio\n        if (global_collat_value > required_collat_dollar_value_d18) return global_collat_value.sub(required_collat_dollar_value_d18);\n        else return 0;\n    }\n\n    /* ========== PUBLIC FUNCTIONS ========== */\n    \n    // Returns the price of the pool collateral in USD\n    function getCollateralPrice() public view returns (uint256) {\n        uint256 eth_usd_price = WUSD.eth_usd_price();\n        return eth_usd_price.mul(PRICE_PRECISION).div(collatEthOracle.consult(weth_address, PRICE_PRECISION * (10 ** missing_decimals)));\n        \n    }\n\n    function setCollatETHOracle(address _collateral_weth_oracle_address, address _weth_address) external onlyOwner {\n        collat_eth_oracle_address = _collateral_weth_oracle_address;\n        collatEthOracle = UniswapPairOracle(_collateral_weth_oracle_address);\n        weth_address = _weth_address;\n    }\n\n    // We separate out the 1t1, fractional and algorithmic minting functions for gas efficiency \n    function mint1t1WUSD(uint256 collateral_amount, uint256 WUSD_out_min) external notMintPaused {\n        uint256 collateral_amount_d18 = collateral_amount * (10 ** missing_decimals);\n\n        require(WUSD.global_collateral_ratio() >= COLLATERAL_RATIO_MAX, \"Collateral ratio must be >= 1\");\n        require((collateral_token.balanceOf(address(this))).sub(unclaimedPoolCollateral).add(collateral_amount) <= pool_ceiling, \"[Pool's Closed]: Ceiling reached\");\n        \n        (uint256 WUSD_amount_d18) = WUSDPoolLibrary.calcMint1t1WUSD(\n            getCollateralPrice(),\n            collateral_amount_d18\n        ); //1 WUSD for each $1 worth of collateral\n\n        WUSD_amount_d18 = (WUSD_amount_d18.mul(uint(1e6).sub(minting_fee))).div(1e6); //remove precision at the end\n        require(WUSD_out_min <= WUSD_amount_d18, \"Slippage limit reached\");\n\n        TransferHelper.safeTransferFrom(address(collateral_token), msg.sender, address(this), collateral_amount);\n        WUSD.pool_mint(msg.sender, WUSD_amount_d18);\n    }\n\n    // 0% collateral-backed\n    function mintAlgorithmicWUSD(uint256 WMF_amount_d18, uint256 WUSD_out_min) external notMintPaused {\n        uint256 WMF_price = WUSD.WMF_price();\n        require(WUSD.global_collateral_ratio() == 0, \"Collateral ratio must be 0\");\n        \n        (uint256 WUSD_amount_d18) = WUSDPoolLibrary.calcMintAlgorithmicWUSD(\n            WMF_price, // X WMF / 1 USD\n            WMF_amount_d18\n        );\n\n        WUSD_amount_d18 = (WUSD_amount_d18.mul(uint(1e6).sub(minting_fee))).div(1e6);\n        require(WUSD_out_min <= WUSD_amount_d18, \"Slippage limit reached\");\n\n        WMF.pool_burn_from(msg.sender, WMF_amount_d18);\n        WUSD.pool_mint(msg.sender, WUSD_amount_d18);\n    }\n\n    // Will fail if fully collateralized or fully algorithmic\n    // > 0% and < 100% collateral-backed\n    function mintFractionalWUSD(uint256 collateral_amount, uint256 WMF_amount, uint256 WUSD_out_min) external notMintPaused {\n        uint256 WMF_price = WUSD.WMF_price();\n        uint256 global_collateral_ratio = WUSD.global_collateral_ratio();\n\n        require(global_collateral_ratio < COLLATERAL_RATIO_MAX && global_collateral_ratio > 0, \"Collateral ratio needs to be between .000001 and .999999\");\n        require(collateral_token.balanceOf(address(this)).sub(unclaimedPoolCollateral).add(collateral_amount) <= pool_ceiling, \"Pool ceiling reached, no more WUSD can be minted with this collateral\");\n\n        uint256 collateral_amount_d18 = collateral_amount * (10 ** missing_decimals);\n        WUSDPoolLibrary.MintFF_Params memory input_params = WUSDPoolLibrary.MintFF_Params(\n            WMF_price,\n            getCollateralPrice(),\n            WMF_amount,\n            collateral_amount_d18,\n            global_collateral_ratio\n        );\n\n        (uint256 mint_amount, uint256 WMF_needed) = WUSDPoolLibrary.calcMintFractionalWUSD(input_params);\n\n        mint_amount = (mint_amount.mul(uint(1e6).sub(minting_fee))).div(1e6);\n        require(WUSD_out_min <= mint_amount, \"Slippage limit reached\");\n        require(WMF_needed <= WMF_amount, \"Not enough WMF inputted\");\n\n        WMF.pool_burn_from(msg.sender, WMF_needed);\n        TransferHelper.safeTransferFrom(address(collateral_token), msg.sender, address(this), collateral_amount);\n        WUSD.pool_mint(msg.sender, mint_amount);\n    }\n\n    // Redeem collateral. 100% collateral-backed\n    function redeem1t1WUSD(uint256 WUSD_amount, uint256 COLLATERAL_out_min) external notRedeemPaused {\n        require(WUSD.global_collateral_ratio() == COLLATERAL_RATIO_MAX, \"Collateral ratio must be == 1\");\n\n        // Need to adjust for decimals of collateral\n        uint256 WUSD_amount_precision = WUSD_amount.div(10 ** missing_decimals);\n        (uint256 collateral_needed) = WUSDPoolLibrary.calcRedeem1t1WUSD(\n            getCollateralPrice(),\n            WUSD_amount_precision\n        );\n\n        collateral_needed = (collateral_needed.mul(uint(1e6).sub(redemption_fee))).div(1e6);\n        require(collateral_needed <= collateral_token.balanceOf(address(this)).sub(unclaimedPoolCollateral), \"Not enough collateral in pool\");\n        require(COLLATERAL_out_min <= collateral_needed, \"Slippage limit reached\");\n\n        redeemCollateralBalances[msg.sender] = redeemCollateralBalances[msg.sender].add(collateral_needed);\n        unclaimedPoolCollateral = unclaimedPoolCollateral.add(collateral_needed);\n        lastRedeemed[msg.sender] = block.number;\n        \n        // Move all external functions to the end\n        WUSD.pool_burn_from(msg.sender, WUSD_amount);\n    }\n\n    // Will fail if fully collateralized or algorithmic\n    // Redeem WUSD for collateral and WMF. > 0% and < 100% collateral-backed\n    function redeemFractionalWUSD(uint256 WUSD_amount, uint256 WMF_out_min, uint256 COLLATERAL_out_min) external notRedeemPaused {\n        uint256 WMF_price = WUSD.WMF_price();\n        uint256 global_collateral_ratio = WUSD.global_collateral_ratio();\n\n        require(global_collateral_ratio < COLLATERAL_RATIO_MAX && global_collateral_ratio > 0, \"Collateral ratio needs to be between .000001 and .999999\");\n        uint256 col_price_usd = getCollateralPrice();\n\n        uint256 WUSD_amount_post_fee = (WUSD_amount.mul(uint(1e6).sub(redemption_fee))).div(PRICE_PRECISION);\n\n        uint256 WMF_dollar_value_d18 = WUSD_amount_post_fee.sub(WUSD_amount_post_fee.mul(global_collateral_ratio).div(PRICE_PRECISION));\n        uint256 WMF_amount = WMF_dollar_value_d18.mul(PRICE_PRECISION).div(WMF_price);\n\n        // Need to adjust for decimals of collateral\n        uint256 WUSD_amount_precision = WUSD_amount_post_fee.div(10 ** missing_decimals);\n        uint256 collateral_dollar_value = WUSD_amount_precision.mul(global_collateral_ratio).div(PRICE_PRECISION);\n        uint256 collateral_amount = collateral_dollar_value.mul(PRICE_PRECISION).div(col_price_usd);\n\n\n        require(collateral_amount <= collateral_token.balanceOf(address(this)).sub(unclaimedPoolCollateral), \"Not enough collateral in pool\");\n        require(COLLATERAL_out_min <= collateral_amount, \"Slippage limit reached [collateral]\");\n        require(WMF_out_min <= WMF_amount, \"Slippage limit reached [WMF]\");\n\n        redeemCollateralBalances[msg.sender] = redeemCollateralBalances[msg.sender].add(collateral_amount);\n        unclaimedPoolCollateral = unclaimedPoolCollateral.add(collateral_amount);\n\n        redeemWMFBalances[msg.sender] = redeemWMFBalances[msg.sender].add(WMF_amount);\n        unclaimedPoolWMF = unclaimedPoolWMF.add(WMF_amount);\n\n        lastRedeemed[msg.sender] = block.number;\n        \n        // Move all external functions to the end\n        WUSD.pool_burn_from(msg.sender, WUSD_amount);\n        WMF.pool_mint(address(this), WMF_amount);\n    }\n\n    // Redeem WUSD for WMF. 0% collateral-backed\n    function redeemAlgorithmicWUSD(uint256 WUSD_amount, uint256 WMF_out_min) external notRedeemPaused {\n        uint256 WMF_price = WUSD.WMF_price();\n        uint256 global_collateral_ratio = WUSD.global_collateral_ratio();\n\n        require(global_collateral_ratio == 0, \"Collateral ratio must be 0\"); \n        uint256 WMF_dollar_value_d18 = WUSD_amount;\n\n        WMF_dollar_value_d18 = (WMF_dollar_value_d18.mul(uint(1e6).sub(redemption_fee))).div(PRICE_PRECISION); //apply fees\n\n        uint256 WMF_amount = WMF_dollar_value_d18.mul(PRICE_PRECISION).div(WMF_price);\n        \n        redeemWMFBalances[msg.sender] = redeemWMFBalances[msg.sender].add(WMF_amount);\n        unclaimedPoolWMF = unclaimedPoolWMF.add(WMF_amount);\n        \n        lastRedeemed[msg.sender] = block.number;\n        \n        require(WMF_out_min <= WMF_amount, \"Slippage limit reached\");\n        // Move all external functions to the end\n        WUSD.pool_burn_from(msg.sender, WUSD_amount);\n        WMF.pool_mint(address(this), WMF_amount);\n    }\n\n    // After a redemption happens, transfer the newly minted WMF and owed collateral from this pool\n    // contract to the user. Redemption is split into two functions to prevent flash loans from being able\n    // to take out WUSD/collateral from the system, use an AMM to trade the new price, and then mint back into the system.\n    function collectRedemption() external {\n        require((lastRedeemed[msg.sender].add(redemption_delay)) <= block.number, \"Must wait for redemption_delay blocks before collecting redemption\");\n        bool sendWMF = false;\n        bool sendCollateral = false;\n        uint WMFAmount = 0;\n        uint CollateralAmount = 0;\n\n        // Use Checks-Effects-Interactions pattern\n        if(redeemWMFBalances[msg.sender] > 0){\n            WMFAmount = redeemWMFBalances[msg.sender];\n            redeemWMFBalances[msg.sender] = 0;\n            unclaimedPoolWMF = unclaimedPoolWMF.sub(WMFAmount);\n\n            sendWMF = true;\n        }\n        \n        if(redeemCollateralBalances[msg.sender] > 0){\n            CollateralAmount = redeemCollateralBalances[msg.sender];\n            redeemCollateralBalances[msg.sender] = 0;\n            unclaimedPoolCollateral = unclaimedPoolCollateral.sub(CollateralAmount);\n\n            sendCollateral = true;\n        }\n\n        if(sendWMF){\n            TransferHelper.safeTransfer(address(WMF), msg.sender, WMFAmount);\n        }\n        if(sendCollateral){\n            TransferHelper.safeTransfer(address(collateral_token), msg.sender, CollateralAmount);\n        }\n    }\n\n\n    // When the protocol is recollateralizing, we need to give a discount of WMF to hit the new CR target\n    // Thus, if the target collateral ratio is higher than the actual value of collateral, minters get WMF for adding collateral\n    // This function simply rewards anyone that sends collateral to a pool with the same amount of WMF + the bonus rate\n    // Anyone can call this function to recollateralize the protocol and take the extra WMF value from the bonus rate as an arb opportunity\n    function recollateralizeWUSD(uint256 collateral_amount, uint256 WMF_out_min) external {\n        uint256 collateral_amount_d18 = collateral_amount * (10 ** missing_decimals);\n        uint256 WMF_price = WUSD.WMF_price();\n        uint256 WUSD_total_supply = WUSD.totalSupply();\n        uint256 global_collateral_ratio = WUSD.global_collateral_ratio();\n        uint256 global_collat_value = WUSD.globalCollateralValue();\n\n        (uint256 collateral_units, uint256 amount_to_recollat) = WUSDPoolLibrary.calcRecollateralizeWUSDInner(\n            collateral_amount_d18,\n            getCollateralPrice(),\n            global_collat_value,\n            WUSD_total_supply,\n            global_collateral_ratio\n        ); \n\n        uint256 collateral_units_precision = collateral_units.div(10 ** missing_decimals);\n\n        uint256 WMF_paid_back = amount_to_recollat.mul(uint(1e6).add(bonus_rate).sub(recollat_fee)).div(WMF_price);\n\n        require(WMF_out_min <= WMF_paid_back, \"Slippage limit reached\");\n        TransferHelper.safeTransferFrom(address(collateral_token), msg.sender, address(this), collateral_units_precision);\n        WMF.pool_mint(msg.sender, WMF_paid_back);\n        \n    }\n\n    // Function can be called by an WMF holder to have the protocol buy back WMF with excess collateral value from a desired collateral pool\n    // This can also happen if the collateral ratio > 1\n    function buyBackWMF(uint256 WMF_amount, uint256 COLLATERAL_out_min) external {\n        uint256 WMF_price = WUSD.WMF_price();\n    \n        WUSDPoolLibrary.BuybackWMF_Params memory input_params = WUSDPoolLibrary.BuybackWMF_Params(\n            availableExcessCollatDV(),\n            WMF_price,\n            getCollateralPrice(),\n            WMF_amount\n        );\n\n        (uint256 collateral_equivalent_d18) = (WUSDPoolLibrary.calcBuyBackWMF(input_params)).mul(uint(1e6).sub(buyback_fee)).div(1e6);\n        uint256 collateral_precision = collateral_equivalent_d18.div(10 ** missing_decimals);\n\n        require(COLLATERAL_out_min <= collateral_precision, \"Slippage limit reached\");\n        // Give the sender their desired collateral and burn the WMF\n        WMF.pool_burn_from(msg.sender, WMF_amount);\n        TransferHelper.safeTransfer(address(collateral_token), msg.sender, collateral_precision);\n    }\n\n    /* ========== RESTRICTED FUNCTIONS ========== */\n\n    function toggleMinting() external {\n        require(msg.sender == owner);\n        mintPaused = !mintPaused;\n\n        emit MintingToggled(mintPaused);\n    }\n\n    function toggleRedeeming() external {\n        require(msg.sender == owner);\n        redeemPaused = !redeemPaused;\n\n        emit RedeemingToggled(redeemPaused);\n    }\n    \n    // Combined into one function due to 24KiB contract memory limit\n    function setPoolParameters(uint256 new_ceiling, uint256 new_bonus_rate, uint256 new_redemption_delay, uint256 new_mint_fee, uint256 new_redeem_fee, uint256 new_buyback_fee, uint256 new_recollat_fee) external onlyOwner {\n        pool_ceiling = new_ceiling;\n        bonus_rate = new_bonus_rate;\n        redemption_delay = new_redemption_delay;\n        minting_fee = new_mint_fee;\n        redemption_fee = new_redeem_fee;\n        buyback_fee = new_buyback_fee;\n        recollat_fee = new_recollat_fee;\n\n        emit PoolParametersSet(new_ceiling, new_bonus_rate, new_redemption_delay, new_mint_fee, new_redeem_fee, new_buyback_fee, new_recollat_fee);\n    }\n\n    /* ========== EVENTS ========== */\n\n    event PoolParametersSet(uint256 new_ceiling, uint256 new_bonus_rate, uint256 new_redemption_delay, uint256 new_mint_fee, uint256 new_redeem_fee, uint256 new_buyback_fee, uint256 new_recollat_fee);\n    event MintingToggled(bool toggled);\n    event RedeemingToggled(bool toggled);\n\n}",
  "sourcePath": "/Users/gubukson/Desktop/wemadefuture/WMF_Tokenomics/contracts/Token/Pools/WUSDPool.sol",
  "compiler": {
    "name": "solc",
    "version": "0.6.6+commit.6c089d02.Emscripten.clang"
  },
  "schemaVersion": "3.4.4",
  "updatedAt": "2022-01-23T11:49:35.256Z",
  "devdoc": {
    "methods": {}
  },
  "userdoc": {
    "methods": {}
  }
}