{
  "contractName": "WUSDPool",
  "abi": [
    {
      "inputs": [
        {
          "internalType": "address",
          "name": "_WUSD_contract_address",
          "type": "address"
        },
        {
          "internalType": "address",
          "name": "_WMF_contract_address",
          "type": "address"
        },
        {
          "internalType": "address",
          "name": "_collateral_address",
          "type": "address"
        },
        {
          "internalType": "address",
          "name": "_creator_address",
          "type": "address"
        },
        {
          "internalType": "uint256",
          "name": "_pool_ceiling",
          "type": "uint256"
        }
      ],
      "stateMutability": "nonpayable",
      "type": "constructor"
    },
    {
      "anonymous": false,
      "inputs": [
        {
          "indexed": false,
          "internalType": "bool",
          "name": "toggled",
          "type": "bool"
        }
      ],
      "name": "BuybackToggled",
      "type": "event"
    },
    {
      "anonymous": false,
      "inputs": [
        {
          "indexed": false,
          "internalType": "bool",
          "name": "toggled",
          "type": "bool"
        }
      ],
      "name": "CollateralPriceToggled",
      "type": "event"
    },
    {
      "anonymous": false,
      "inputs": [
        {
          "indexed": false,
          "internalType": "bool",
          "name": "toggled",
          "type": "bool"
        }
      ],
      "name": "MintingToggled",
      "type": "event"
    },
    {
      "anonymous": false,
      "inputs": [
        {
          "indexed": false,
          "internalType": "address",
          "name": "oldOwner",
          "type": "address"
        },
        {
          "indexed": false,
          "internalType": "address",
          "name": "newOwner",
          "type": "address"
        }
      ],
      "name": "OwnerChanged",
      "type": "event"
    },
    {
      "anonymous": false,
      "inputs": [
        {
          "indexed": false,
          "internalType": "address",
          "name": "newOwner",
          "type": "address"
        }
      ],
      "name": "OwnerNominated",
      "type": "event"
    },
    {
      "anonymous": false,
      "inputs": [
        {
          "indexed": false,
          "internalType": "uint256",
          "name": "new_ceiling",
          "type": "uint256"
        },
        {
          "indexed": false,
          "internalType": "uint256",
          "name": "new_bonus_rate",
          "type": "uint256"
        },
        {
          "indexed": false,
          "internalType": "uint256",
          "name": "new_redemption_delay",
          "type": "uint256"
        },
        {
          "indexed": false,
          "internalType": "uint256",
          "name": "new_mint_fee",
          "type": "uint256"
        },
        {
          "indexed": false,
          "internalType": "uint256",
          "name": "new_redeem_fee",
          "type": "uint256"
        },
        {
          "indexed": false,
          "internalType": "uint256",
          "name": "new_buyback_fee",
          "type": "uint256"
        },
        {
          "indexed": false,
          "internalType": "uint256",
          "name": "new_recollat_fee",
          "type": "uint256"
        }
      ],
      "name": "PoolParametersSet",
      "type": "event"
    },
    {
      "anonymous": false,
      "inputs": [
        {
          "indexed": false,
          "internalType": "bool",
          "name": "toggled",
          "type": "bool"
        }
      ],
      "name": "RecollateralizeToggled",
      "type": "event"
    },
    {
      "anonymous": false,
      "inputs": [
        {
          "indexed": false,
          "internalType": "bool",
          "name": "toggled",
          "type": "bool"
        }
      ],
      "name": "RedeemingToggled",
      "type": "event"
    },
    {
      "inputs": [],
      "name": "acceptOwnership",
      "outputs": [],
      "stateMutability": "nonpayable",
      "type": "function"
    },
    {
      "inputs": [],
      "name": "bonus_rate",
      "outputs": [
        {
          "internalType": "uint256",
          "name": "",
          "type": "uint256"
        }
      ],
      "stateMutability": "view",
      "type": "function"
    },
    {
      "inputs": [],
      "name": "buyBackPaused",
      "outputs": [
        {
          "internalType": "bool",
          "name": "",
          "type": "bool"
        }
      ],
      "stateMutability": "view",
      "type": "function"
    },
    {
      "inputs": [],
      "name": "buyback_fee",
      "outputs": [
        {
          "internalType": "uint256",
          "name": "",
          "type": "uint256"
        }
      ],
      "stateMutability": "view",
      "type": "function"
    },
    {
      "inputs": [],
      "name": "collat_eth_oracle_address",
      "outputs": [
        {
          "internalType": "address",
          "name": "",
          "type": "address"
        }
      ],
      "stateMutability": "view",
      "type": "function"
    },
    {
      "inputs": [],
      "name": "collateralPricePaused",
      "outputs": [
        {
          "internalType": "bool",
          "name": "",
          "type": "bool"
        }
      ],
      "stateMutability": "view",
      "type": "function"
    },
    {
      "inputs": [
        {
          "internalType": "address",
          "name": "",
          "type": "address"
        }
      ],
      "name": "lastRedeemed",
      "outputs": [
        {
          "internalType": "uint256",
          "name": "",
          "type": "uint256"
        }
      ],
      "stateMutability": "view",
      "type": "function"
    },
    {
      "inputs": [],
      "name": "mintPaused",
      "outputs": [
        {
          "internalType": "bool",
          "name": "",
          "type": "bool"
        }
      ],
      "stateMutability": "view",
      "type": "function"
    },
    {
      "inputs": [],
      "name": "minting_fee",
      "outputs": [
        {
          "internalType": "uint256",
          "name": "",
          "type": "uint256"
        }
      ],
      "stateMutability": "view",
      "type": "function"
    },
    {
      "inputs": [
        {
          "internalType": "address",
          "name": "_owner",
          "type": "address"
        }
      ],
      "name": "nominateNewOwner",
      "outputs": [],
      "stateMutability": "nonpayable",
      "type": "function"
    },
    {
      "inputs": [],
      "name": "nominatedOwner",
      "outputs": [
        {
          "internalType": "address",
          "name": "",
          "type": "address"
        }
      ],
      "stateMutability": "view",
      "type": "function"
    },
    {
      "inputs": [],
      "name": "owner",
      "outputs": [
        {
          "internalType": "address",
          "name": "",
          "type": "address"
        }
      ],
      "stateMutability": "view",
      "type": "function"
    },
    {
      "inputs": [],
      "name": "pausedPrice",
      "outputs": [
        {
          "internalType": "uint256",
          "name": "",
          "type": "uint256"
        }
      ],
      "stateMutability": "view",
      "type": "function"
    },
    {
      "inputs": [],
      "name": "pool_ceiling",
      "outputs": [
        {
          "internalType": "uint256",
          "name": "",
          "type": "uint256"
        }
      ],
      "stateMutability": "view",
      "type": "function"
    },
    {
      "inputs": [],
      "name": "recollat_fee",
      "outputs": [
        {
          "internalType": "uint256",
          "name": "",
          "type": "uint256"
        }
      ],
      "stateMutability": "view",
      "type": "function"
    },
    {
      "inputs": [],
      "name": "recollateralizePaused",
      "outputs": [
        {
          "internalType": "bool",
          "name": "",
          "type": "bool"
        }
      ],
      "stateMutability": "view",
      "type": "function"
    },
    {
      "inputs": [
        {
          "internalType": "address",
          "name": "",
          "type": "address"
        }
      ],
      "name": "redeemCollateralBalances",
      "outputs": [
        {
          "internalType": "uint256",
          "name": "",
          "type": "uint256"
        }
      ],
      "stateMutability": "view",
      "type": "function"
    },
    {
      "inputs": [],
      "name": "redeemPaused",
      "outputs": [
        {
          "internalType": "bool",
          "name": "",
          "type": "bool"
        }
      ],
      "stateMutability": "view",
      "type": "function"
    },
    {
      "inputs": [
        {
          "internalType": "address",
          "name": "",
          "type": "address"
        }
      ],
      "name": "redeemWMFBalances",
      "outputs": [
        {
          "internalType": "uint256",
          "name": "",
          "type": "uint256"
        }
      ],
      "stateMutability": "view",
      "type": "function"
    },
    {
      "inputs": [],
      "name": "redemption_delay",
      "outputs": [
        {
          "internalType": "uint256",
          "name": "",
          "type": "uint256"
        }
      ],
      "stateMutability": "view",
      "type": "function"
    },
    {
      "inputs": [],
      "name": "redemption_fee",
      "outputs": [
        {
          "internalType": "uint256",
          "name": "",
          "type": "uint256"
        }
      ],
      "stateMutability": "view",
      "type": "function"
    },
    {
      "inputs": [],
      "name": "unclaimedPoolCollateral",
      "outputs": [
        {
          "internalType": "uint256",
          "name": "",
          "type": "uint256"
        }
      ],
      "stateMutability": "view",
      "type": "function"
    },
    {
      "inputs": [],
      "name": "unclaimedPoolWMF",
      "outputs": [
        {
          "internalType": "uint256",
          "name": "",
          "type": "uint256"
        }
      ],
      "stateMutability": "view",
      "type": "function"
    },
    {
      "inputs": [],
      "name": "collatDollarBalance",
      "outputs": [
        {
          "internalType": "uint256",
          "name": "",
          "type": "uint256"
        }
      ],
      "stateMutability": "view",
      "type": "function"
    },
    {
      "inputs": [],
      "name": "availableExcessCollatDV",
      "outputs": [
        {
          "internalType": "uint256",
          "name": "",
          "type": "uint256"
        }
      ],
      "stateMutability": "view",
      "type": "function"
    },
    {
      "inputs": [],
      "name": "getCollateralPrice",
      "outputs": [
        {
          "internalType": "uint256",
          "name": "",
          "type": "uint256"
        }
      ],
      "stateMutability": "view",
      "type": "function"
    },
    {
      "inputs": [
        {
          "internalType": "address",
          "name": "_collateral_weth_oracle_address",
          "type": "address"
        },
        {
          "internalType": "address",
          "name": "_weth_address",
          "type": "address"
        }
      ],
      "name": "setCollatETHOracle",
      "outputs": [],
      "stateMutability": "nonpayable",
      "type": "function"
    },
    {
      "inputs": [
        {
          "internalType": "uint256",
          "name": "collateral_amount",
          "type": "uint256"
        },
        {
          "internalType": "uint256",
          "name": "WUSD_out_min",
          "type": "uint256"
        }
      ],
      "name": "mint1t1WUSD",
      "outputs": [],
      "stateMutability": "nonpayable",
      "type": "function"
    },
    {
      "inputs": [
        {
          "internalType": "uint256",
          "name": "WMF_amount_d18",
          "type": "uint256"
        },
        {
          "internalType": "uint256",
          "name": "WUSD_out_min",
          "type": "uint256"
        }
      ],
      "name": "mintAlgorithmicWUSD",
      "outputs": [],
      "stateMutability": "nonpayable",
      "type": "function"
    },
    {
      "inputs": [
        {
          "internalType": "uint256",
          "name": "collateral_amount",
          "type": "uint256"
        },
        {
          "internalType": "uint256",
          "name": "WMF_amount",
          "type": "uint256"
        },
        {
          "internalType": "uint256",
          "name": "WUSD_out_min",
          "type": "uint256"
        }
      ],
      "name": "mintFractionalWUSD",
      "outputs": [],
      "stateMutability": "nonpayable",
      "type": "function"
    },
    {
      "inputs": [
        {
          "internalType": "uint256",
          "name": "WUSD_amount",
          "type": "uint256"
        },
        {
          "internalType": "uint256",
          "name": "COLLATERAL_out_min",
          "type": "uint256"
        }
      ],
      "name": "redeem1t1WUSD",
      "outputs": [],
      "stateMutability": "nonpayable",
      "type": "function"
    },
    {
      "inputs": [
        {
          "internalType": "uint256",
          "name": "WUSD_amount",
          "type": "uint256"
        },
        {
          "internalType": "uint256",
          "name": "WMF_out_min",
          "type": "uint256"
        },
        {
          "internalType": "uint256",
          "name": "COLLATERAL_out_min",
          "type": "uint256"
        }
      ],
      "name": "redeemFractionalWUSD",
      "outputs": [],
      "stateMutability": "nonpayable",
      "type": "function"
    },
    {
      "inputs": [
        {
          "internalType": "uint256",
          "name": "WUSD_amount",
          "type": "uint256"
        },
        {
          "internalType": "uint256",
          "name": "WMF_out_min",
          "type": "uint256"
        }
      ],
      "name": "redeemAlgorithmicWUSD",
      "outputs": [],
      "stateMutability": "nonpayable",
      "type": "function"
    },
    {
      "inputs": [],
      "name": "collectRedemption",
      "outputs": [],
      "stateMutability": "nonpayable",
      "type": "function"
    },
    {
      "inputs": [
        {
          "internalType": "uint256",
          "name": "collateral_amount",
          "type": "uint256"
        },
        {
          "internalType": "uint256",
          "name": "WMF_out_min",
          "type": "uint256"
        }
      ],
      "name": "recollateralizeWUSD",
      "outputs": [],
      "stateMutability": "nonpayable",
      "type": "function"
    },
    {
      "inputs": [
        {
          "internalType": "uint256",
          "name": "WMF_amount",
          "type": "uint256"
        },
        {
          "internalType": "uint256",
          "name": "COLLATERAL_out_min",
          "type": "uint256"
        }
      ],
      "name": "buyBackWMF",
      "outputs": [],
      "stateMutability": "nonpayable",
      "type": "function"
    },
    {
      "inputs": [],
      "name": "toggleMinting",
      "outputs": [],
      "stateMutability": "nonpayable",
      "type": "function"
    },
    {
      "inputs": [],
      "name": "toggleRedeeming",
      "outputs": [],
      "stateMutability": "nonpayable",
      "type": "function"
    },
    {
      "inputs": [],
      "name": "toggleRecollateralize",
      "outputs": [],
      "stateMutability": "nonpayable",
      "type": "function"
    },
    {
      "inputs": [],
      "name": "toggleBuyBack",
      "outputs": [],
      "stateMutability": "nonpayable",
      "type": "function"
    },
    {
      "inputs": [
        {
          "internalType": "uint256",
          "name": "_new_price",
          "type": "uint256"
        }
      ],
      "name": "toggleCollateralPrice",
      "outputs": [],
      "stateMutability": "nonpayable",
      "type": "function"
    },
    {
      "inputs": [
        {
          "internalType": "uint256",
          "name": "new_ceiling",
          "type": "uint256"
        },
        {
          "internalType": "uint256",
          "name": "new_bonus_rate",
          "type": "uint256"
        },
        {
          "internalType": "uint256",
          "name": "new_redemption_delay",
          "type": "uint256"
        },
        {
          "internalType": "uint256",
          "name": "new_mint_fee",
          "type": "uint256"
        },
        {
          "internalType": "uint256",
          "name": "new_redeem_fee",
          "type": "uint256"
        },
        {
          "internalType": "uint256",
          "name": "new_buyback_fee",
          "type": "uint256"
        },
        {
          "internalType": "uint256",
          "name": "new_recollat_fee",
          "type": "uint256"
        }
      ],
      "name": "setPoolParameters",
      "outputs": [],
      "stateMutability": "nonpayable",
      "type": "function"
    }
  ],
  "bytecode": "0x60a060405260006014556000601555611d4c60165560016017556000601860006101000a81548160ff0219169083151502179055506000601860016101000a81548160ff0219169083151502179055506000601860026101000a81548160ff0219169083151502179055506000601860036101000a81548160ff0219169083151502179055506000601860046101000a81548160ff021916908315150217905550348015620000ad57600080fd5b50604051620068ab380380620068ab833981810160405260a0811015620000d357600080fd5b81019080805190602001909291908051906020019092919080519060200190929190805190602001909291908051906020019092919050505081600073ffffffffffffffffffffffffffffffffffffffff168173ffffffffffffffffffffffffffffffffffffffff161415620001b1576040517f08c379a00000000000000000000000000000000000000000000000000000000081526004018080602001828103825260198152602001807f4f776e657220616464726573732063616e6e6f7420626520300000000000000081525060200191505060405180910390fd5b806000806101000a81548173ffffffffffffffffffffffffffffffffffffffff021916908373ffffffffffffffffffffffffffffffffffffffff1602179055507fb532073b38c83145e3e5135377a08bf9aab55bc0fd7c1179cd4fb995d2a5159c600082604051808373ffffffffffffffffffffffffffffffffffffffff1673ffffffffffffffffffffffffffffffffffffffff1681526020018273ffffffffffffffffffffffffffffffffffffffff1673ffffffffffffffffffffffffffffffffffffffff1681526020019250505060405180910390a150600073ffffffffffffffffffffffffffffffffffffffff168573ffffffffffffffffffffffffffffffffffffffff1614158015620002f55750600073ffffffffffffffffffffffffffffffffffffffff168473ffffffffffffffffffffffffffffffffffffffff1614155b80156200032f5750600073ffffffffffffffffffffffffffffffffffffffff168373ffffffffffffffffffffffffffffffffffffffff1614155b8015620003695750600073ffffffffffffffffffffffffffffffffffffffff168273ffffffffffffffffffffffffffffffffffffffff1614155b620003dc576040517f08c379a00000000000000000000000000000000000000000000000000000000081526004018080602001828103825260158152602001807f5a65726f2061646472657373206465746563746564000000000000000000000081525060200191505060405180910390fd5b84600760006101000a81548173ffffffffffffffffffffffffffffffffffffffff021916908373ffffffffffffffffffffffffffffffffffffffff16021790555083600660006101000a81548173ffffffffffffffffffffffffffffffffffffffff021916908373ffffffffffffffffffffffffffffffffffffffff16021790555084600460006101000a81548173ffffffffffffffffffffffffffffffffffffffff021916908373ffffffffffffffffffffffffffffffffffffffff16021790555083600560006101000a81548173ffffffffffffffffffffffffffffffffffffffff021916908373ffffffffffffffffffffffffffffffffffffffff16021790555082600360006101000a81548173ffffffffffffffffffffffffffffffffffffffff021916908373ffffffffffffffffffffffffffffffffffffffff16021790555082600260006101000a81548173ffffffffffffffffffffffffffffffffffffffff021916908373ffffffffffffffffffffffffffffffffffffffff160217905550806014819055506200062c600260009054906101000a900473ffffffffffffffffffffffffffffffffffffffff1673ffffffffffffffffffffffffffffffffffffffff1663313ce5676040518163ffffffff1660e01b815260040160206040518083038186803b158015620005d657600080fd5b505afa158015620005eb573d6000803e3d6000fd5b505050506040513d60208110156200060257600080fd5b810190808051906020019092919050505060ff1660126200063e60201b620052221790919060201c565b60808181525050505050505062000754565b60006200068883836040518060400160405280601e81526020017f536166654d6174683a207375627472616374696f6e206f766572666c6f7700008152506200069060201b60201c565b905092915050565b600083831115829062000741576040517f08c379a00000000000000000000000000000000000000000000000000000000081526004018080602001828103825283818151815260200191508051906020019080838360005b8381101562000705578082015181840152602081019050620006e8565b50505050905090810190601f168015620007335780820380516001836020036101000a031916815260200191505b509250505060405180910390fd5b5060008385039050809150509392505050565b60805161610a620007a160003980610b8b52806114c4528061171152806118185280611cf75280612aae52806139725280613bb0528061420d52806145975280614b2b525061610a6000f3fe608060405234801561001057600080fd5b506004361061025e5760003560e01c80637f877f8511610146578063baa12236116100c3578063daa5048511610087578063daa50485146108f5578063e6acae56146108ff578063f61adab214610937578063f7683bbc14610955578063fede5c9c14610973578063ffe65857146109915761025e565b8063baa122361461082b578063c3355b8d14610863578063c74ec56a14610881578063cb73999f1461089f578063ccc0e4a8146108bd5761025e565b80638d2ac7a41161010a5780638d2ac7a4146107275780638da5cb5b14610749578063a18c977714610793578063abae2c4c146107b1578063b235d468146108095761025e565b80637f877f85146105dd578063848fa4f6146105ff57806388d42cf2146106415780638ac6c3cb146106a55780638baa4b9f146106dd5761025e565b80634ebbe762116101df57806379ba5097116101a357806379ba5097146105035780637ad1f61b1461050d5780637b0461e91461053b5780637c55811d146105595780637d55094d146105b15780637e4831d3146105bb5761025e565b80634ebbe7621461040557806350c9ecd91461046f57806353a47bb7146104795780636526a12a146104c35780636d2c5615146104e15761025e565b80631627540c116102265780631627540c1461033957806317284c941461037d5780633bccb6c41461039b57806342d15aec146103dd5780634c634934146103e75761025e565b806308a7493d146102635780630bae329e146102bb578063101197c7146102f357806312ace5a214610311578063151284251461031b575b600080fd5b6102a56004803603602081101561027957600080fd5b81019080803573ffffffffffffffffffffffffffffffffffffffff1690602001909291905050506109c9565b6040518082815260200191505060405180910390f35b6102f1600480360360408110156102d157600080fd5b8101908080359060200190929190803590602001909291905050506109e1565b005b6102fb611030565b6040518082815260200191505060405180910390f35b610319611036565b005b610323611342565b6040518082815260200191505060405180910390f35b61037b6004803603602081101561034f57600080fd5b81019080803573ffffffffffffffffffffffffffffffffffffffff169060200190929190505050611348565b005b610385611494565b6040518082815260200191505060405180910390f35b6103db600480360360608110156103b157600080fd5b8101908080359060200190929190803590602001909291908035906020019092919050505061195b565b005b6103e561204d565b005b6103ef61211c565b6040518082815260200191505060405180910390f35b61046d600480360360e081101561041b57600080fd5b8101908080359060200190929190803590602001909291908035906020019092919080359060200190929190803590602001909291908035906020019092919080359060200190929190505050612122565b005b610477612268565b005b610481612337565b604051808273ffffffffffffffffffffffffffffffffffffffff1673ffffffffffffffffffffffffffffffffffffffff16815260200191505060405180910390f35b6104cb61235d565b6040518082815260200191505060405180910390f35b6104e9612363565b604051808215151515815260200191505060405180910390f35b61050b612376565b005b6105396004803603602081101561052357600080fd5b810190808035906020019092919050505061259c565b005b61054361269d565b6040518082815260200191505060405180910390f35b61059b6004803603602081101561056f57600080fd5b81019080803573ffffffffffffffffffffffffffffffffffffffff1690602001909291905050506126a3565b6040518082815260200191505060405180910390f35b6105b96126bb565b005b6105c361278a565b604051808215151515815260200191505060405180910390f35b6105e561279d565b604051808215151515815260200191505060405180910390f35b61063f6004803603606081101561061557600080fd5b810190808035906020019092919080359060200190929190803590602001909291905050506127b0565b005b6106a36004803603604081101561065757600080fd5b81019080803573ffffffffffffffffffffffffffffffffffffffff169060200190929190803573ffffffffffffffffffffffffffffffffffffffff16906020019092919050505061309f565b005b6106db600480360360408110156106bb57600080fd5b81019080803590602001909291908035906020019092919050505061320b565b005b6106e5613728565b604051808273ffffffffffffffffffffffffffffffffffffffff1673ffffffffffffffffffffffffffffffffffffffff16815260200191505060405180910390f35b61072f61374e565b604051808215151515815260200191505060405180910390f35b610751613761565b604051808273ffffffffffffffffffffffffffffffffffffffff1673ffffffffffffffffffffffffffffffffffffffff16815260200191505060405180910390f35b61079b613786565b6040518082815260200191505060405180910390f35b6107f3600480360360208110156107c757600080fd5b81019080803573ffffffffffffffffffffffffffffffffffffffff16906020019092919050505061378c565b6040518082815260200191505060405180910390f35b6108116137a4565b604051808215151515815260200191505060405180910390f35b6108616004803603604081101561084157600080fd5b8101908080359060200190929190803590602001909291905050506137b7565b005b61086b613b11565b6040518082815260200191505060405180910390f35b610889613b17565b6040518082815260200191505060405180910390f35b6108a7613b1d565b6040518082815260200191505060405180910390f35b6108f3600480360360408110156108d357600080fd5b810190808035906020019092919080359060200190929190505050613b23565b005b6108fd6140b1565b005b6109356004803603604081101561091557600080fd5b810190808035906020019092919080359060200190929190505050614180565b005b61093f614790565b6040518082815260200191505060405180910390f35b61095d6149f6565b6040518082815260200191505060405180910390f35b61097b614c1f565b6040518082815260200191505060405180910390f35b6109c7600480360360408110156109a757600080fd5b810190808035906020019092919080359060200190929190505050614c25565b005b60106020528060005260406000206000915090505481565b60001515601860019054906101000a900460ff16151514610a6a576040517f08c379a00000000000000000000000000000000000000000000000000000000081526004018080602001828103825260138152602001807f52656465656d696e67206973207061757365640000000000000000000000000081525060200191505060405180910390fd5b620f4240600760009054906101000a900473ffffffffffffffffffffffffffffffffffffffff1673ffffffffffffffffffffffffffffffffffffffff16632eb9771b6040518163ffffffff1660e01b815260040160206040518083038186803b158015610ad657600080fd5b505afa158015610aea573d6000803e3d6000fd5b505050506040513d6020811015610b0057600080fd5b810190808051906020019092919050505014610b84576040517f08c379a000000000000000000000000000000000000000000000000000000000815260040180806020018281038252601d8152602001807f436f6c6c61746572616c20726174696f206d757374206265203d3d203100000081525060200191505060405180910390fd5b6000610bbc7f0000000000000000000000000000000000000000000000000000000000000000600a0a846151d890919063ffffffff16565b9050600073__WUSDPoolLibrary_______________________635d115920610be26149f6565b846040518363ffffffff1660e01b8152600401808381526020018281526020019250505060206040518083038186803b158015610c1e57600080fd5b505af4158015610c32573d6000803e3d6000fd5b505050506040513d6020811015610c4857600080fd5b81019080805190602001909291905050509050610c9a620f4240610c8c610c7d600c54620f424061522290919063ffffffff16565b8461526c90919063ffffffff16565b6151d890919063ffffffff16565b9050610d8a601154600260009054906101000a900473ffffffffffffffffffffffffffffffffffffffff1673ffffffffffffffffffffffffffffffffffffffff166370a08231306040518263ffffffff1660e01b8152600401808273ffffffffffffffffffffffffffffffffffffffff1673ffffffffffffffffffffffffffffffffffffffff16815260200191505060206040518083038186803b158015610d4157600080fd5b505afa158015610d55573d6000803e3d6000fd5b505050506040513d6020811015610d6b57600080fd5b810190808051906020019092919050505061522290919063ffffffff16565b811115610dff576040517f08c379a000000000000000000000000000000000000000000000000000000000815260040180806020018281038252601d8152602001807f4e6f7420656e6f75676820636f6c6c61746572616c20696e20706f6f6c00000081525060200191505060405180910390fd5b80831115610e75576040517f08c379a00000000000000000000000000000000000000000000000000000000081526004018080602001828103825260168152602001807f536c697070616765206c696d697420726561636865640000000000000000000081525060200191505060405180910390fd5b610ec781601060003373ffffffffffffffffffffffffffffffffffffffff1673ffffffffffffffffffffffffffffffffffffffff168152602001908152602001600020546152f290919063ffffffff16565b601060003373ffffffffffffffffffffffffffffffffffffffff1673ffffffffffffffffffffffffffffffffffffffff16815260200190815260200160002081905550610f1f816011546152f290919063ffffffff16565b60118190555043601360003373ffffffffffffffffffffffffffffffffffffffff1673ffffffffffffffffffffffffffffffffffffffff16815260200190815260200160002081905550600760009054906101000a900473ffffffffffffffffffffffffffffffffffffffff1673ffffffffffffffffffffffffffffffffffffffff1663a8a778ae33866040518363ffffffff1660e01b8152600401808373ffffffffffffffffffffffffffffffffffffffff1673ffffffffffffffffffffffffffffffffffffffff16815260200182815260200192505050600060405180830381600087803b15801561101257600080fd5b505af1158015611026573d6000803e3d6000fd5b5050505050505050565b600d5481565b4361108b601754601360003373ffffffffffffffffffffffffffffffffffffffff1673ffffffffffffffffffffffffffffffffffffffff168152602001908152602001600020546152f290919063ffffffff16565b11156110e2576040517f08c379a0000000000000000000000000000000000000000000000000000000008152600401808060200182810382526042815260200180615f456042913960600191505060405180910390fd5b60008090506000809050600080905060008090506000600f60003373ffffffffffffffffffffffffffffffffffffffff1673ffffffffffffffffffffffffffffffffffffffff1681526020019081526020016000205411156111e557600f60003373ffffffffffffffffffffffffffffffffffffffff1673ffffffffffffffffffffffffffffffffffffffff1681526020019081526020016000205491506000600f60003373ffffffffffffffffffffffffffffffffffffffff1673ffffffffffffffffffffffffffffffffffffffff168152602001908152602001600020819055506111da8260125461522290919063ffffffff16565b601281905550600193505b6000601060003373ffffffffffffffffffffffffffffffffffffffff1673ffffffffffffffffffffffffffffffffffffffff1681526020019081526020016000205411156112d457601060003373ffffffffffffffffffffffffffffffffffffffff1673ffffffffffffffffffffffffffffffffffffffff1681526020019081526020016000205490506000601060003373ffffffffffffffffffffffffffffffffffffffff1673ffffffffffffffffffffffffffffffffffffffff168152602001908152602001600020819055506112c98160115461522290919063ffffffff16565b601181905550600192505b831561130857611307600660009054906101000a900473ffffffffffffffffffffffffffffffffffffffff16338461537a565b5b821561133c5761133b600260009054906101000a900473ffffffffffffffffffffffffffffffffffffffff16338361537a565b5b50505050565b60175481565b6000809054906101000a900473ffffffffffffffffffffffffffffffffffffffff1673ffffffffffffffffffffffffffffffffffffffff163373ffffffffffffffffffffffffffffffffffffffff16146113ed576040517f08c379a000000000000000000000000000000000000000000000000000000000815260040180806020018281038252602f815260200180615fcd602f913960400191505060405180910390fd5b80600160006101000a81548173ffffffffffffffffffffffffffffffffffffffff021916908373ffffffffffffffffffffffffffffffffffffffff1602179055507f906a1c6bd7e3091ea86693dd029a831c19049ce77f1dce2ce0bab1cacbabce2281604051808273ffffffffffffffffffffffffffffffffffffffff1673ffffffffffffffffffffffffffffffffffffffff16815260200191505060405180910390a150565b600060011515601860049054906101000a900460ff1615151415611605576115fe620f42406115f06015546115e27f0000000000000000000000000000000000000000000000000000000000000000600a0a6115d4601154600260009054906101000a900473ffffffffffffffffffffffffffffffffffffffff1673ffffffffffffffffffffffffffffffffffffffff166370a08231306040518263ffffffff1660e01b8152600401808273ffffffffffffffffffffffffffffffffffffffff1673ffffffffffffffffffffffffffffffffffffffff16815260200191505060206040518083038186803b15801561158b57600080fd5b505afa15801561159f573d6000803e3d6000fd5b505050506040513d60208110156115b557600080fd5b810190808051906020019092919050505061522290919063ffffffff16565b61526c90919063ffffffff16565b61526c90919063ffffffff16565b6151d890919063ffffffff16565b9050611958565b6000600760009054906101000a900473ffffffffffffffffffffffffffffffffffffffff1673ffffffffffffffffffffffffffffffffffffffff1663345ba24b6040518163ffffffff1660e01b815260040160206040518083038186803b15801561166f57600080fd5b505afa158015611683573d6000803e3d6000fd5b505050506040513d602081101561169957600080fd5b810190808051906020019092919050505090506000600860009054906101000a900473ffffffffffffffffffffffffffffffffffffffff1673ffffffffffffffffffffffffffffffffffffffff16633ddac953600a60009054906101000a900473ffffffffffffffffffffffffffffffffffffffff167f0000000000000000000000000000000000000000000000000000000000000000600a0a620f4240026040518363ffffffff1660e01b8152600401808373ffffffffffffffffffffffffffffffffffffffff1673ffffffffffffffffffffffffffffffffffffffff1681526020018281526020019250505060206040518083038186803b15801561179f57600080fd5b505afa1580156117b3573d6000803e3d6000fd5b505050506040513d60208110156117c957600080fd5b810190808051906020019092919050505090506000611806826117f8620f42408661526c90919063ffffffff16565b6151d890919063ffffffff16565b9050611952620f4240611944836119367f0000000000000000000000000000000000000000000000000000000000000000600a0a611928601154600260009054906101000a900473ffffffffffffffffffffffffffffffffffffffff1673ffffffffffffffffffffffffffffffffffffffff166370a08231306040518263ffffffff1660e01b8152600401808273ffffffffffffffffffffffffffffffffffffffff1673ffffffffffffffffffffffffffffffffffffffff16815260200191505060206040518083038186803b1580156118df57600080fd5b505afa1580156118f3573d6000803e3d6000fd5b505050506040513d602081101561190957600080fd5b810190808051906020019092919050505061522290919063ffffffff16565b61526c90919063ffffffff16565b61526c90919063ffffffff16565b6151d890919063ffffffff16565b93505050505b90565b60001515601860009054906101000a900460ff161515146119e4576040517f08c379a00000000000000000000000000000000000000000000000000000000081526004018080602001828103825260118152602001807f4d696e74696e672069732070617573656400000000000000000000000000000081525060200191505060405180910390fd5b6000600760009054906101000a900473ffffffffffffffffffffffffffffffffffffffff1673ffffffffffffffffffffffffffffffffffffffff1663ed88564c6040518163ffffffff1660e01b815260040160206040518083038186803b158015611a4e57600080fd5b505afa158015611a62573d6000803e3d6000fd5b505050506040513d6020811015611a7857600080fd5b810190808051906020019092919050505090506000600760009054906101000a900473ffffffffffffffffffffffffffffffffffffffff1673ffffffffffffffffffffffffffffffffffffffff16632eb9771b6040518163ffffffff1660e01b815260040160206040518083038186803b158015611af557600080fd5b505afa158015611b09573d6000803e3d6000fd5b505050506040513d6020811015611b1f57600080fd5b81019080805190602001909291905050509050620f424081108015611b445750600081115b611b99576040517f08c379a0000000000000000000000000000000000000000000000000000000008152600401808060200182810382526038815260200180615eea6038913960400191505060405180910390fd5b601454611c9c86611c8e601154600260009054906101000a900473ffffffffffffffffffffffffffffffffffffffff1673ffffffffffffffffffffffffffffffffffffffff166370a08231306040518263ffffffff1660e01b8152600401808273ffffffffffffffffffffffffffffffffffffffff1673ffffffffffffffffffffffffffffffffffffffff16815260200191505060206040518083038186803b158015611c4557600080fd5b505afa158015611c59573d6000803e3d6000fd5b505050506040513d6020811015611c6f57600080fd5b810190808051906020019092919050505061522290919063ffffffff16565b6152f290919063ffffffff16565b1115611cf3576040517f08c379a000000000000000000000000000000000000000000000000000000000815260040180806020018281038252604581526020018061601d6045913960600191505060405180910390fd5b60007f0000000000000000000000000000000000000000000000000000000000000000600a0a86029050611d25615e01565b6040518060a00160405280858152602001611d3e6149f6565b8152602001878152602001838152602001848152509050600080611d6183615573565b91509150611da4620f4240611d96611d87600b54620f424061522290919063ffffffff16565b8561526c90919063ffffffff16565b6151d890919063ffffffff16565b915081871115611e1c576040517f08c379a00000000000000000000000000000000000000000000000000000000081526004018080602001828103825260168152602001807f536c697070616765206c696d697420726561636865640000000000000000000081525060200191505060405180910390fd5b87811115611e92576040517f08c379a00000000000000000000000000000000000000000000000000000000081526004018080602001828103825260178152602001807f4e6f7420656e6f75676820574d4620696e70757474656400000000000000000081525060200191505060405180910390fd5b600660009054906101000a900473ffffffffffffffffffffffffffffffffffffffff1673ffffffffffffffffffffffffffffffffffffffff1663a8a778ae33836040518363ffffffff1660e01b8152600401808373ffffffffffffffffffffffffffffffffffffffff1673ffffffffffffffffffffffffffffffffffffffff16815260200182815260200192505050600060405180830381600087803b158015611f3b57600080fd5b505af1158015611f4f573d6000803e3d6000fd5b50505050611f81600260009054906101000a900473ffffffffffffffffffffffffffffffffffffffff1633308c615670565b600760009054906101000a900473ffffffffffffffffffffffffffffffffffffffff1673ffffffffffffffffffffffffffffffffffffffff1663b4f56b2633846040518363ffffffff1660e01b8152600401808373ffffffffffffffffffffffffffffffffffffffff1673ffffffffffffffffffffffffffffffffffffffff16815260200182815260200192505050600060405180830381600087803b15801561202a57600080fd5b505af115801561203e573d6000803e3d6000fd5b50505050505050505050505050565b6000809054906101000a900473ffffffffffffffffffffffffffffffffffffffff1673ffffffffffffffffffffffffffffffffffffffff163373ffffffffffffffffffffffffffffffffffffffff16146120a657600080fd5b601860029054906101000a900460ff1615601860026101000a81548160ff0219169083151502179055507f2fda313d9b5bb0b73bd003153f2fccbc0dca49791fdd1184dfad82b44f54bd2e601860029054906101000a900460ff16604051808215151515815260200191505060405180910390a1565b60165481565b6000809054906101000a900473ffffffffffffffffffffffffffffffffffffffff1673ffffffffffffffffffffffffffffffffffffffff163373ffffffffffffffffffffffffffffffffffffffff16146121c7576040517f08c379a000000000000000000000000000000000000000000000000000000000815260040180806020018281038252602f815260200180615fcd602f913960400191505060405180910390fd5b86601481905550856016819055508460178190555083600b8190555082600c8190555081600d8190555080600e819055507f17fe98b66d27bd793ea01bd8a23a54acab8eeb167d9eb016a0c7cd71c573920c878787878787876040518088815260200187815260200186815260200185815260200184815260200183815260200182815260200197505050505050505060405180910390a150505050505050565b6000809054906101000a900473ffffffffffffffffffffffffffffffffffffffff1673ffffffffffffffffffffffffffffffffffffffff163373ffffffffffffffffffffffffffffffffffffffff16146122c157600080fd5b601860039054906101000a900460ff1615601860036101000a81548160ff0219169083151502179055507f4f40fd1c59f78d7a2220da638cd9400daba01e57c7965702f390bf13133cc31f601860039054906101000a900460ff16604051808215151515815260200191505060405180910390a1565b600160009054906101000a900473ffffffffffffffffffffffffffffffffffffffff1681565b60145481565b601860029054906101000a900460ff1681565b600160009054906101000a900473ffffffffffffffffffffffffffffffffffffffff1673ffffffffffffffffffffffffffffffffffffffff163373ffffffffffffffffffffffffffffffffffffffff161461241c576040517f08c379a0000000000000000000000000000000000000000000000000000000008152600401808060200182810382526035815260200180615e856035913960400191505060405180910390fd5b7fb532073b38c83145e3e5135377a08bf9aab55bc0fd7c1179cd4fb995d2a5159c6000809054906101000a900473ffffffffffffffffffffffffffffffffffffffff16600160009054906101000a900473ffffffffffffffffffffffffffffffffffffffff16604051808373ffffffffffffffffffffffffffffffffffffffff1673ffffffffffffffffffffffffffffffffffffffff1681526020018273ffffffffffffffffffffffffffffffffffffffff1673ffffffffffffffffffffffffffffffffffffffff1681526020019250505060405180910390a1600160009054906101000a900473ffffffffffffffffffffffffffffffffffffffff166000806101000a81548173ffffffffffffffffffffffffffffffffffffffff021916908373ffffffffffffffffffffffffffffffffffffffff1602179055506000600160006101000a81548173ffffffffffffffffffffffffffffffffffffffff021916908373ffffffffffffffffffffffffffffffffffffffff160217905550565b6000809054906101000a900473ffffffffffffffffffffffffffffffffffffffff1673ffffffffffffffffffffffffffffffffffffffff163373ffffffffffffffffffffffffffffffffffffffff16146125f557600080fd5b60001515601860049054906101000a900460ff161515141561261d5780601581905550612626565b60006015819055505b601860049054906101000a900460ff1615601860046101000a81548160ff0219169083151502179055507fbf1f9e6d8d67bb57a141c627f40368ec23ed7603249f0c3518c16eafbf9c4f6f601860049054906101000a900460ff16604051808215151515815260200191505060405180910390a150565b60115481565b600f6020528060005260406000206000915090505481565b6000809054906101000a900473ffffffffffffffffffffffffffffffffffffffff1673ffffffffffffffffffffffffffffffffffffffff163373ffffffffffffffffffffffffffffffffffffffff161461271457600080fd5b601860009054906101000a900460ff1615601860006101000a81548160ff0219169083151502179055507f6bdfe227d5db299c59aa56d5f846f40dbd73b271aaa78e18ed74fc3e00b8aa6b601860009054906101000a900460ff16604051808215151515815260200191505060405180910390a1565b601860009054906101000a900460ff1681565b601860039054906101000a900460ff1681565b60001515601860019054906101000a900460ff16151514612839576040517f08c379a00000000000000000000000000000000000000000000000000000000081526004018080602001828103825260138152602001807f52656465656d696e67206973207061757365640000000000000000000000000081525060200191505060405180910390fd5b6000600760009054906101000a900473ffffffffffffffffffffffffffffffffffffffff1673ffffffffffffffffffffffffffffffffffffffff1663ed88564c6040518163ffffffff1660e01b815260040160206040518083038186803b1580156128a357600080fd5b505afa1580156128b7573d6000803e3d6000fd5b505050506040513d60208110156128cd57600080fd5b810190808051906020019092919050505090506000600760009054906101000a900473ffffffffffffffffffffffffffffffffffffffff1673ffffffffffffffffffffffffffffffffffffffff16632eb9771b6040518163ffffffff1660e01b815260040160206040518083038186803b15801561294a57600080fd5b505afa15801561295e573d6000803e3d6000fd5b505050506040513d602081101561297457600080fd5b81019080805190602001909291905050509050620f4240811080156129995750600081115b6129ee576040517f08c379a0000000000000000000000000000000000000000000000000000000008152600401808060200182810382526038815260200180615eea6038913960400191505060405180910390fd5b60006129f86149f6565b90506000612a3b620f4240612a2d612a1e600c54620f424061522290919063ffffffff16565b8a61526c90919063ffffffff16565b6151d890919063ffffffff16565b90506000612a79612a6a620f4240612a5c878661526c90919063ffffffff16565b6151d890919063ffffffff16565b8361522290919063ffffffff16565b90506000612aa586612a97620f42408561526c90919063ffffffff16565b6151d890919063ffffffff16565b90506000612adf7f0000000000000000000000000000000000000000000000000000000000000000600a0a856151d890919063ffffffff16565b90506000612b0b620f4240612afd898561526c90919063ffffffff16565b6151d890919063ffffffff16565b90506000612b3787612b29620f42408561526c90919063ffffffff16565b6151d890919063ffffffff16565b9050612c27601154600260009054906101000a900473ffffffffffffffffffffffffffffffffffffffff1673ffffffffffffffffffffffffffffffffffffffff166370a08231306040518263ffffffff1660e01b8152600401808273ffffffffffffffffffffffffffffffffffffffff1673ffffffffffffffffffffffffffffffffffffffff16815260200191505060206040518083038186803b158015612bde57600080fd5b505afa158015612bf2573d6000803e3d6000fd5b505050506040513d6020811015612c0857600080fd5b810190808051906020019092919050505061522290919063ffffffff16565b811115612c9c576040517f08c379a000000000000000000000000000000000000000000000000000000000815260040180806020018281038252601d8152602001807f4e6f7420656e6f75676820636f6c6c61746572616c20696e20706f6f6c00000081525060200191505060405180910390fd5b808a1115612cf5576040517f08c379a0000000000000000000000000000000000000000000000000000000008152600401808060200182810382526023815260200180615f226023913960400191505060405180910390fd5b838b1115612d6b576040517f08c379a000000000000000000000000000000000000000000000000000000000815260040180806020018281038252601c8152602001807f536c697070616765206c696d69742072656163686564205b574d465d0000000081525060200191505060405180910390fd5b612dbd81601060003373ffffffffffffffffffffffffffffffffffffffff1673ffffffffffffffffffffffffffffffffffffffff168152602001908152602001600020546152f290919063ffffffff16565b601060003373ffffffffffffffffffffffffffffffffffffffff1673ffffffffffffffffffffffffffffffffffffffff16815260200190815260200160002081905550612e15816011546152f290919063ffffffff16565b601181905550612e6d84600f60003373ffffffffffffffffffffffffffffffffffffffff1673ffffffffffffffffffffffffffffffffffffffff168152602001908152602001600020546152f290919063ffffffff16565b600f60003373ffffffffffffffffffffffffffffffffffffffff1673ffffffffffffffffffffffffffffffffffffffff16815260200190815260200160002081905550612ec5846012546152f290919063ffffffff16565b60128190555043601360003373ffffffffffffffffffffffffffffffffffffffff1673ffffffffffffffffffffffffffffffffffffffff16815260200190815260200160002081905550600760009054906101000a900473ffffffffffffffffffffffffffffffffffffffff1673ffffffffffffffffffffffffffffffffffffffff1663a8a778ae338e6040518363ffffffff1660e01b8152600401808373ffffffffffffffffffffffffffffffffffffffff1673ffffffffffffffffffffffffffffffffffffffff16815260200182815260200192505050600060405180830381600087803b158015612fb857600080fd5b505af1158015612fcc573d6000803e3d6000fd5b50505050600660009054906101000a900473ffffffffffffffffffffffffffffffffffffffff1673ffffffffffffffffffffffffffffffffffffffff1663b4f56b2630866040518363ffffffff1660e01b8152600401808373ffffffffffffffffffffffffffffffffffffffff1673ffffffffffffffffffffffffffffffffffffffff16815260200182815260200192505050600060405180830381600087803b15801561307957600080fd5b505af115801561308d573d6000803e3d6000fd5b50505050505050505050505050505050565b6000809054906101000a900473ffffffffffffffffffffffffffffffffffffffff1673ffffffffffffffffffffffffffffffffffffffff163373ffffffffffffffffffffffffffffffffffffffff1614613144576040517f08c379a000000000000000000000000000000000000000000000000000000000815260040180806020018281038252602f815260200180615fcd602f913960400191505060405180910390fd5b81600960006101000a81548173ffffffffffffffffffffffffffffffffffffffff021916908373ffffffffffffffffffffffffffffffffffffffff16021790555081600860006101000a81548173ffffffffffffffffffffffffffffffffffffffff021916908373ffffffffffffffffffffffffffffffffffffffff16021790555080600a60006101000a81548173ffffffffffffffffffffffffffffffffffffffff021916908373ffffffffffffffffffffffffffffffffffffffff1602179055505050565b60001515601860009054906101000a900460ff16151514613294576040517f08c379a00000000000000000000000000000000000000000000000000000000081526004018080602001828103825260118152602001807f4d696e74696e672069732070617573656400000000000000000000000000000081525060200191505060405180910390fd5b6000600760009054906101000a900473ffffffffffffffffffffffffffffffffffffffff1673ffffffffffffffffffffffffffffffffffffffff1663ed88564c6040518163ffffffff1660e01b815260040160206040518083038186803b1580156132fe57600080fd5b505afa158015613312573d6000803e3d6000fd5b505050506040513d602081101561332857600080fd5b810190808051906020019092919050505090506000600760009054906101000a900473ffffffffffffffffffffffffffffffffffffffff1673ffffffffffffffffffffffffffffffffffffffff16632eb9771b6040518163ffffffff1660e01b815260040160206040518083038186803b1580156133a557600080fd5b505afa1580156133b9573d6000803e3d6000fd5b505050506040513d60208110156133cf57600080fd5b810190808051906020019092919050505014613453576040517f08c379a000000000000000000000000000000000000000000000000000000000815260040180806020018281038252601a8152602001807f436f6c6c61746572616c20726174696f206d757374206265203000000000000081525060200191505060405180910390fd5b600073__WUSDPoolLibrary_______________________63516e903683866040518363ffffffff1660e01b8152600401808381526020018281526020019250505060206040518083038186803b1580156134ac57600080fd5b505af41580156134c0573d6000803e3d6000fd5b505050506040513d60208110156134d657600080fd5b81019080805190602001909291905050509050613528620f424061351a61350b600b54620f424061522290919063ffffffff16565b8461526c90919063ffffffff16565b6151d890919063ffffffff16565b9050808311156135a0576040517f08c379a00000000000000000000000000000000000000000000000000000000081526004018080602001828103825260168152602001807f536c697070616765206c696d697420726561636865640000000000000000000081525060200191505060405180910390fd5b600660009054906101000a900473ffffffffffffffffffffffffffffffffffffffff1673ffffffffffffffffffffffffffffffffffffffff1663a8a778ae33866040518363ffffffff1660e01b8152600401808373ffffffffffffffffffffffffffffffffffffffff1673ffffffffffffffffffffffffffffffffffffffff16815260200182815260200192505050600060405180830381600087803b15801561364957600080fd5b505af115801561365d573d6000803e3d6000fd5b50505050600760009054906101000a900473ffffffffffffffffffffffffffffffffffffffff1673ffffffffffffffffffffffffffffffffffffffff1663b4f56b2633836040518363ffffffff1660e01b8152600401808373ffffffffffffffffffffffffffffffffffffffff1673ffffffffffffffffffffffffffffffffffffffff16815260200182815260200192505050600060405180830381600087803b15801561370a57600080fd5b505af115801561371e573d6000803e3d6000fd5b5050505050505050565b600960009054906101000a900473ffffffffffffffffffffffffffffffffffffffff1681565b601860049054906101000a900460ff1681565b6000809054906101000a900473ffffffffffffffffffffffffffffffffffffffff1681565b60125481565b60136020528060005260406000206000915090505481565b601860019054906101000a900460ff1681565b60001515601860039054906101000a900460ff16151514613840576040517f08c379a00000000000000000000000000000000000000000000000000000000081526004018080602001828103825260118152602001807f4275796261636b2069732070617573656400000000000000000000000000000081525060200191505060405180910390fd5b6000600760009054906101000a900473ffffffffffffffffffffffffffffffffffffffff1673ffffffffffffffffffffffffffffffffffffffff1663ed88564c6040518163ffffffff1660e01b815260040160206040518083038186803b1580156138aa57600080fd5b505afa1580156138be573d6000803e3d6000fd5b505050506040513d60208110156138d457600080fd5b810190808051906020019092919050505090506138ef615e30565b6040518060800160405280613902614790565b81526020018381526020016139156149f6565b81526020018581525090506000613969620f424061395b613944600d54620f424061522290919063ffffffff16565b61394d86615881565b61526c90919063ffffffff16565b6151d890919063ffffffff16565b905060006139a37f0000000000000000000000000000000000000000000000000000000000000000600a0a836151d890919063ffffffff16565b905080851115613a1b576040517f08c379a00000000000000000000000000000000000000000000000000000000081526004018080602001828103825260168152602001807f536c697070616765206c696d697420726561636865640000000000000000000081525060200191505060405180910390fd5b600660009054906101000a900473ffffffffffffffffffffffffffffffffffffffff1673ffffffffffffffffffffffffffffffffffffffff1663a8a778ae33886040518363ffffffff1660e01b8152600401808373ffffffffffffffffffffffffffffffffffffffff1673ffffffffffffffffffffffffffffffffffffffff16815260200182815260200192505050600060405180830381600087803b158015613ac457600080fd5b505af1158015613ad8573d6000803e3d6000fd5b50505050613b09600260009054906101000a900473ffffffffffffffffffffffffffffffffffffffff16338361537a565b505050505050565b600b5481565b60155481565b600c5481565b60001515601860009054906101000a900460ff16151514613bac576040517f08c379a00000000000000000000000000000000000000000000000000000000081526004018080602001828103825260118152602001807f4d696e74696e672069732070617573656400000000000000000000000000000081525060200191505060405180910390fd5b60007f0000000000000000000000000000000000000000000000000000000000000000600a0a83029050620f4240600760009054906101000a900473ffffffffffffffffffffffffffffffffffffffff1673ffffffffffffffffffffffffffffffffffffffff16632eb9771b6040518163ffffffff1660e01b815260040160206040518083038186803b158015613c4257600080fd5b505afa158015613c56573d6000803e3d6000fd5b505050506040513d6020811015613c6c57600080fd5b81019080805190602001909291905050501015613cf1576040517f08c379a000000000000000000000000000000000000000000000000000000000815260040180806020018281038252601d8152602001807f436f6c6c61746572616c20726174696f206d757374206265203e3d203100000081525060200191505060405180910390fd5b601454613df484613de6601154600260009054906101000a900473ffffffffffffffffffffffffffffffffffffffff1673ffffffffffffffffffffffffffffffffffffffff166370a08231306040518263ffffffff1660e01b8152600401808273ffffffffffffffffffffffffffffffffffffffff1673ffffffffffffffffffffffffffffffffffffffff16815260200191505060206040518083038186803b158015613d9d57600080fd5b505afa158015613db1573d6000803e3d6000fd5b505050506040513d6020811015613dc757600080fd5b810190808051906020019092919050505061522290919063ffffffff16565b6152f290919063ffffffff16565b1115613e68576040517f08c379a00000000000000000000000000000000000000000000000000000000081526004018080602001828103825260208152602001807f5b506f6f6c277320436c6f7365645d3a204365696c696e67207265616368656481525060200191505060405180910390fd5b600073__WUSDPoolLibrary_______________________634e69d915613e8c6149f6565b846040518363ffffffff1660e01b8152600401808381526020018281526020019250505060206040518083038186803b158015613ec857600080fd5b505af4158015613edc573d6000803e3d6000fd5b505050506040513d6020811015613ef257600080fd5b81019080805190602001909291905050509050613f44620f4240613f36613f27600b54620f424061522290919063ffffffff16565b8461526c90919063ffffffff16565b6151d890919063ffffffff16565b905080831115613fbc576040517f08c379a00000000000000000000000000000000000000000000000000000000081526004018080602001828103825260168152602001807f536c697070616765206c696d697420726561636865640000000000000000000081525060200191505060405180910390fd5b613fea600260009054906101000a900473ffffffffffffffffffffffffffffffffffffffff16333087615670565b600760009054906101000a900473ffffffffffffffffffffffffffffffffffffffff1673ffffffffffffffffffffffffffffffffffffffff1663b4f56b2633836040518363ffffffff1660e01b8152600401808373ffffffffffffffffffffffffffffffffffffffff1673ffffffffffffffffffffffffffffffffffffffff16815260200182815260200192505050600060405180830381600087803b15801561409357600080fd5b505af11580156140a7573d6000803e3d6000fd5b5050505050505050565b6000809054906101000a900473ffffffffffffffffffffffffffffffffffffffff1673ffffffffffffffffffffffffffffffffffffffff163373ffffffffffffffffffffffffffffffffffffffff161461410a57600080fd5b601860019054906101000a900460ff1615601860016101000a81548160ff0219169083151502179055507f5860c5063a65e23cea4e2e2925f1a841bb6d1bc9615bd425f8dd084980b05141601860019054906101000a900460ff16604051808215151515815260200191505060405180910390a1565b60001515601860029054906101000a900460ff16151514614209576040517f08c379a00000000000000000000000000000000000000000000000000000000081526004018080602001828103825260198152602001807f5265636f6c6c61746572616c697a65206973207061757365640000000000000081525060200191505060405180910390fd5b60007f0000000000000000000000000000000000000000000000000000000000000000600a0a830290506000600760009054906101000a900473ffffffffffffffffffffffffffffffffffffffff1673ffffffffffffffffffffffffffffffffffffffff1663ed88564c6040518163ffffffff1660e01b815260040160206040518083038186803b15801561429d57600080fd5b505afa1580156142b1573d6000803e3d6000fd5b505050506040513d60208110156142c757600080fd5b810190808051906020019092919050505090506000600760009054906101000a900473ffffffffffffffffffffffffffffffffffffffff1673ffffffffffffffffffffffffffffffffffffffff166318160ddd6040518163ffffffff1660e01b815260040160206040518083038186803b15801561434457600080fd5b505afa158015614358573d6000803e3d6000fd5b505050506040513d602081101561436e57600080fd5b810190808051906020019092919050505090506000600760009054906101000a900473ffffffffffffffffffffffffffffffffffffffff1673ffffffffffffffffffffffffffffffffffffffff16632eb9771b6040518163ffffffff1660e01b815260040160206040518083038186803b1580156143eb57600080fd5b505afa1580156143ff573d6000803e3d6000fd5b505050506040513d602081101561441557600080fd5b810190808051906020019092919050505090506000600760009054906101000a900473ffffffffffffffffffffffffffffffffffffffff1673ffffffffffffffffffffffffffffffffffffffff1663d2d97b066040518163ffffffff1660e01b815260040160206040518083038186803b15801561449257600080fd5b505afa1580156144a6573d6000803e3d6000fd5b505050506040513d60208110156144bc57600080fd5b8101908080519060200190929190505050905060008073__WUSDPoolLibrary_______________________6356697238886144f56149f6565b8689896040518663ffffffff1660e01b81526004018086815260200185815260200184815260200183815260200182815260200195505050505050604080518083038186803b15801561454757600080fd5b505af415801561455b573d6000803e3d6000fd5b505050506040513d604081101561457157600080fd5b8101908080519060200190929190805190602001909291905050509150915060006145c87f0000000000000000000000000000000000000000000000000000000000000000600a0a846151d890919063ffffffff16565b9050600061461c8861460e6145ff600e546145f1601654620f42406152f290919063ffffffff16565b61522290919063ffffffff16565b8661526c90919063ffffffff16565b6151d890919063ffffffff16565b9050808a1115614694576040517f08c379a00000000000000000000000000000000000000000000000000000000081526004018080602001828103825260168152602001807f536c697070616765206c696d697420726561636865640000000000000000000081525060200191505060405180910390fd5b6146c2600260009054906101000a900473ffffffffffffffffffffffffffffffffffffffff16333085615670565b600660009054906101000a900473ffffffffffffffffffffffffffffffffffffffff1673ffffffffffffffffffffffffffffffffffffffff1663b4f56b2633836040518363ffffffff1660e01b8152600401808373ffffffffffffffffffffffffffffffffffffffff1673ffffffffffffffffffffffffffffffffffffffff16815260200182815260200192505050600060405180830381600087803b15801561476b57600080fd5b505af115801561477f573d6000803e3d6000fd5b505050505050505050505050505050565b600080600760009054906101000a900473ffffffffffffffffffffffffffffffffffffffff1673ffffffffffffffffffffffffffffffffffffffff166318160ddd6040518163ffffffff1660e01b815260040160206040518083038186803b1580156147fb57600080fd5b505afa15801561480f573d6000803e3d6000fd5b505050506040513d602081101561482557600080fd5b810190808051906020019092919050505090506000600760009054906101000a900473ffffffffffffffffffffffffffffffffffffffff1673ffffffffffffffffffffffffffffffffffffffff16632eb9771b6040518163ffffffff1660e01b815260040160206040518083038186803b1580156148a257600080fd5b505afa1580156148b6573d6000803e3d6000fd5b505050506040513d60208110156148cc57600080fd5b810190808051906020019092919050505090506000600760009054906101000a900473ffffffffffffffffffffffffffffffffffffffff1673ffffffffffffffffffffffffffffffffffffffff1663d2d97b066040518163ffffffff1660e01b815260040160206040518083038186803b15801561494957600080fd5b505afa15801561495d573d6000803e3d6000fd5b505050506040513d602081101561497357600080fd5b81019080805190602001909291905050509050620f424082111561499857620f424091505b60006149c2620f42406149b4858761526c90919063ffffffff16565b6151d890919063ffffffff16565b9050808211156149ea576149df818361522290919063ffffffff16565b9450505050506149f3565b60009450505050505b90565b600060011515601860049054906101000a900460ff1615151415614a1e576015549050614c1c565b6000600760009054906101000a900473ffffffffffffffffffffffffffffffffffffffff1673ffffffffffffffffffffffffffffffffffffffff1663345ba24b6040518163ffffffff1660e01b815260040160206040518083038186803b158015614a8857600080fd5b505afa158015614a9c573d6000803e3d6000fd5b505050506040513d6020811015614ab257600080fd5b81019080805190602001909291905050509050614c18600860009054906101000a900473ffffffffffffffffffffffffffffffffffffffff1673ffffffffffffffffffffffffffffffffffffffff16633ddac953600a60009054906101000a900473ffffffffffffffffffffffffffffffffffffffff167f0000000000000000000000000000000000000000000000000000000000000000600a0a620f4240026040518363ffffffff1660e01b8152600401808373ffffffffffffffffffffffffffffffffffffffff1673ffffffffffffffffffffffffffffffffffffffff1681526020018281526020019250505060206040518083038186803b158015614bb957600080fd5b505afa158015614bcd573d6000803e3d6000fd5b505050506040513d6020811015614be357600080fd5b8101908080519060200190929190505050614c0a620f42408461526c90919063ffffffff16565b6151d890919063ffffffff16565b9150505b90565b600e5481565b60001515601860019054906101000a900460ff16151514614cae576040517f08c379a00000000000000000000000000000000000000000000000000000000081526004018080602001828103825260138152602001807f52656465656d696e67206973207061757365640000000000000000000000000081525060200191505060405180910390fd5b6000600760009054906101000a900473ffffffffffffffffffffffffffffffffffffffff1673ffffffffffffffffffffffffffffffffffffffff1663ed88564c6040518163ffffffff1660e01b815260040160206040518083038186803b158015614d1857600080fd5b505afa158015614d2c573d6000803e3d6000fd5b505050506040513d6020811015614d4257600080fd5b810190808051906020019092919050505090506000600760009054906101000a900473ffffffffffffffffffffffffffffffffffffffff1673ffffffffffffffffffffffffffffffffffffffff16632eb9771b6040518163ffffffff1660e01b815260040160206040518083038186803b158015614dbf57600080fd5b505afa158015614dd3573d6000803e3d6000fd5b505050506040513d6020811015614de957600080fd5b8101908080519060200190929190505050905060008114614e72576040517f08c379a000000000000000000000000000000000000000000000000000000000815260040180806020018281038252601a8152602001807f436f6c6c61746572616c20726174696f206d757374206265203000000000000081525060200191505060405180910390fd5b6000849050614eb6620f4240614ea8614e99600c54620f424061522290919063ffffffff16565b8461526c90919063ffffffff16565b6151d890919063ffffffff16565b90506000614ee284614ed4620f42408561526c90919063ffffffff16565b6151d890919063ffffffff16565b9050614f3681600f60003373ffffffffffffffffffffffffffffffffffffffff1673ffffffffffffffffffffffffffffffffffffffff168152602001908152602001600020546152f290919063ffffffff16565b600f60003373ffffffffffffffffffffffffffffffffffffffff1673ffffffffffffffffffffffffffffffffffffffff16815260200190815260200160002081905550614f8e816012546152f290919063ffffffff16565b60128190555043601360003373ffffffffffffffffffffffffffffffffffffffff1673ffffffffffffffffffffffffffffffffffffffff168152602001908152602001600020819055508085111561504e576040517f08c379a00000000000000000000000000000000000000000000000000000000081526004018080602001828103825260168152602001807f536c697070616765206c696d697420726561636865640000000000000000000081525060200191505060405180910390fd5b600760009054906101000a900473ffffffffffffffffffffffffffffffffffffffff1673ffffffffffffffffffffffffffffffffffffffff1663a8a778ae33886040518363ffffffff1660e01b8152600401808373ffffffffffffffffffffffffffffffffffffffff1673ffffffffffffffffffffffffffffffffffffffff16815260200182815260200192505050600060405180830381600087803b1580156150f757600080fd5b505af115801561510b573d6000803e3d6000fd5b50505050600660009054906101000a900473ffffffffffffffffffffffffffffffffffffffff1673ffffffffffffffffffffffffffffffffffffffff1663b4f56b2630836040518363ffffffff1660e01b8152600401808373ffffffffffffffffffffffffffffffffffffffff1673ffffffffffffffffffffffffffffffffffffffff16815260200182815260200192505050600060405180830381600087803b1580156151b857600080fd5b505af11580156151cc573d6000803e3d6000fd5b50505050505050505050565b600061521a83836040518060400160405280601a81526020017f536166654d6174683a206469766973696f6e206279207a65726f0000000000008152506159aa565b905092915050565b600061526483836040518060400160405280601e81526020017f536166654d6174683a207375627472616374696f6e206f766572666c6f770000815250615a70565b905092915050565b60008083141561527f57600090506152ec565b600082840290508284828161529057fe5b04146152e7576040517f08c379a0000000000000000000000000000000000000000000000000000000008152600401808060200182810382526021815260200180615ffc6021913960400191505060405180910390fd5b809150505b92915050565b600080828401905083811015615370576040517f08c379a000000000000000000000000000000000000000000000000000000000815260040180806020018281038252601b8152602001807f536166654d6174683a206164646974696f6e206f766572666c6f77000000000081525060200191505060405180910390fd5b8091505092915050565b600060608473ffffffffffffffffffffffffffffffffffffffff1663a9059cbb8585604051602401808373ffffffffffffffffffffffffffffffffffffffff1673ffffffffffffffffffffffffffffffffffffffff168152602001828152602001925050506040516020818303038152906040529060e01b6020820180517bffffffffffffffffffffffffffffffffffffffffffffffffffffffff83818316178352505050506040518082805190602001908083835b602083106154535780518252602082019150602081019050602083039250615430565b6001836020036101000a0380198251168184511680821785525050505050509050019150506000604051808303816000865af19150503d80600081146154b5576040519150601f19603f3d011682016040523d82523d6000602084013e6154ba565b606091505b50915091508180156154fa57506000815114806154f957508080602001905160208110156154e757600080fd5b81019080805190602001909291905050505b5b61556c576040517f08c379a000000000000000000000000000000000000000000000000000000000815260040180806020018281038252601f8152602001807f5472616e7366657248656c7065723a205452414e534645525f4641494c45440081525060200191505060405180910390fd5b5050505050565b6000806000806155a9620f424061559b87600001518860400151615b3090919063ffffffff16565b615bb690919063ffffffff16565b91506155db620f42406155cd87602001518860600151615b3090919063ffffffff16565b615bb690919063ffffffff16565b9050600061561d8261560f8860800151615601620f424087615b3090919063ffffffff16565b615bb690919063ffffffff16565b615be390919063ffffffff16565b9050600061564d876000015161563f620f424085615b3090919063ffffffff16565b615bb690919063ffffffff16565b90506156628284615c1090919063ffffffff16565b819550955050505050915091565b600060608573ffffffffffffffffffffffffffffffffffffffff166323b872dd868686604051602401808473ffffffffffffffffffffffffffffffffffffffff1673ffffffffffffffffffffffffffffffffffffffff1681526020018373ffffffffffffffffffffffffffffffffffffffff1673ffffffffffffffffffffffffffffffffffffffff16815260200182815260200193505050506040516020818303038152906040529060e01b6020820180517bffffffffffffffffffffffffffffffffffffffffffffffffffffffff83818316178352505050506040518082805190602001908083835b6020831061577d578051825260208201915060208101905060208303925061575a565b6001836020036101000a0380198251168184511680821785525050505050509050019150506000604051808303816000865af19150503d80600081146157df576040519150601f19603f3d011682016040523d82523d6000602084013e6157e4565b606091505b50915091508180156158245750600081511480615823575080806020019051602081101561581157600080fd5b81019080805190602001909291905050505b5b615879576040517f08c379a000000000000000000000000000000000000000000000000000000000815260040180806020018281038252602481526020018061608b6024913960400191505060405180910390fd5b505050505050565b6000808260000151116158df576040517f08c379a0000000000000000000000000000000000000000000000000000000008152600401808060200182810382526021815260200180615f876021913960400191505060405180910390fd5b6000615911620f424061590385602001518660600151615b3090919063ffffffff16565b615bb690919063ffffffff16565b90508260000151811115615970576040517f08c379a0000000000000000000000000000000000000000000000000000000008152600401808060200182810382526030815260200180615eba6030913960400191505060405180910390fd5b600061599e8460400151615990620f424085615b3090919063ffffffff16565b615bb690919063ffffffff16565b90508092505050919050565b60008083118290615a56576040517f08c379a00000000000000000000000000000000000000000000000000000000081526004018080602001828103825283818151815260200191508051906020019080838360005b83811015615a1b578082015181840152602081019050615a00565b50505050905090810190601f168015615a485780820380516001836020036101000a031916815260200191505b509250505060405180910390fd5b506000838581615a6257fe5b049050809150509392505050565b6000838311158290615b1d576040517f08c379a00000000000000000000000000000000000000000000000000000000081526004018080602001828103825283818151815260200191508051906020019080838360005b83811015615ae2578082015181840152602081019050615ac7565b50505050905090810190601f168015615b0f5780820380516001836020036101000a031916815260200191505b509250505060405180910390fd5b5060008385039050809150509392505050565b600080831415615b435760009050615bb0565b6000828402905082848281615b5457fe5b0414615bab576040517f08c379a000000000000000000000000000000000000000000000000000000000815260040180806020018281038252602c815260200180615e59602c913960400191505060405180910390fd5b809150505b92915050565b6000615bdb8383604051806060016040528060258152602001615fa860259139615c7b565b905092915050565b6000615c08838360405180606001604052806029815260200161606260299139615d41565b905092915050565b600080828401905083811015615c71576040517f08c379a00000000000000000000000000000000000000000000000000000000081526004018080602001828103825260268152602001806160af6026913960400191505060405180910390fd5b8091505092915050565b60008083118290615d27576040517f08c379a00000000000000000000000000000000000000000000000000000000081526004018080602001828103825283818151815260200191508051906020019080838360005b83811015615cec578082015181840152602081019050615cd1565b50505050905090810190601f168015615d195780820380516001836020036101000a031916815260200191505b509250505060405180910390fd5b506000838581615d3357fe5b049050809150509392505050565b6000838311158290615dee576040517f08c379a00000000000000000000000000000000000000000000000000000000081526004018080602001828103825283818151815260200191508051906020019080838360005b83811015615db3578082015181840152602081019050615d98565b50505050905090810190601f168015615de05780820380516001836020036101000a031916815260200191505b509250505060405180910390fd5b5060008385039050809150509392505050565b6040518060a0016040528060008152602001600081526020016000815260200160008152602001600081525090565b604051806080016040528060008152602001600081526020016000815260200160008152509056fe536166654d61746855706772616465536166653a206d756c7469706c69636174696f6e206f766572666c6f77596f75206d757374206265206e6f6d696e61746564206265666f726520796f752063616e20616363657074206f776e657273686970596f752061726520747279696e6720746f20627579206261636b206d6f7265207468616e207468652065786365737321436f6c6c61746572616c20726174696f206e6565647320746f206265206265747765656e202e30303030303120616e64202e393939393939536c697070616765206c696d69742072656163686564205b636f6c6c61746572616c5d4d757374207761697420666f7220726564656d7074696f6e5f64656c617920626c6f636b73206265666f726520636f6c6c656374696e6720726564656d7074696f6e4e6f2065786365737320636f6c6c61746572616c20746f20627579206261636b21536166654d61746855706772616465536166653a206469766973696f6e206279207a65726f4f6e6c792074686520636f6e7472616374206f776e6572206d617920706572666f726d207468697320616374696f6e536166654d6174683a206d756c7469706c69636174696f6e206f766572666c6f77506f6f6c206365696c696e6720726561636865642c206e6f206d6f726520575553442063616e206265206d696e7465642077697468207468697320636f6c6c61746572616c536166654d61746855706772616465536166653a207375627472616374696f6e206f766572666c6f775472616e7366657248656c7065723a205452414e534645525f46524f4d5f4641494c4544536166654d61746855706772616465536166653a206164646974696f6e206f766572666c6f77a26469706673582212208b45d5e447fd8e72af87e9160675e216acaf387002c7ec6fa759414092d75de564736f6c63430006060033",
  "immutableReferences": {
    "624": [
      {
        "length": 32,
        "start": 2955
      },
      {
        "length": 32,
        "start": 5316
      },
      {
        "length": 32,
        "start": 5905
      },
      {
        "length": 32,
        "start": 6168
      },
      {
        "length": 32,
        "start": 7415
      },
      {
        "length": 32,
        "start": 10926
      },
      {
        "length": 32,
        "start": 14706
      },
      {
        "length": 32,
        "start": 15280
      },
      {
        "length": 32,
        "start": 16909
      },
      {
        "length": 32,
        "start": 17815
      },
      {
        "length": 32,
        "start": 19243
      }
    ]
  },
  "source": "// SPDX-License-Identifier: GPL-2.0-or-later\r\npragma solidity =0.6.6;\r\n\r\nimport '../Uniswap/TransferHelper.sol';\r\nimport \"../We_Made_Future.sol\";\r\nimport \"../We_Made_Future_USD.sol\";\r\nimport \"../Oracle/UniswapPairOracle.sol\";\r\nimport \"./WUSDPoolLibrary.sol\";\r\nimport \"../Owned.sol\";\r\nimport \"../module/ERC20/ERC20.sol\";\r\n\r\n\r\ncontract WUSDPool is Owned {\r\n    using SafeMath for uint256;\r\n\r\n    /* ========== STATE VARIABLES ========== */\r\n\r\n    ERC20 private collateral_token;\r\n    address private collateral_address;\r\n\r\n    address private WUSD_contract_address;\r\n    address private WMF_contract_address;\r\n    We_Made_Future private WMF;\r\n    WUSDStablecoin private WUSD;\r\n\r\n    UniswapPairOracle private collatEthOracle;\r\n    address public collat_eth_oracle_address;\r\n    address private weth_address;\r\n\r\n    uint256 public minting_fee;\r\n    uint256 public redemption_fee;\r\n    uint256 public buyback_fee;\r\n    uint256 public recollat_fee;\r\n\r\n    mapping (address => uint256) public redeemWMFBalances;\r\n    mapping (address => uint256) public redeemCollateralBalances;\r\n    uint256 public unclaimedPoolCollateral;\r\n    uint256 public unclaimedPoolWMF;\r\n    mapping (address => uint256) public lastRedeemed;\r\n\r\n    // Constants for various precisions\r\n    uint256 private constant PRICE_PRECISION = 1e6;\r\n    uint256 private constant COLLATERAL_RATIO_PRECISION = 1e6;\r\n    uint256 private constant COLLATERAL_RATIO_MAX = 1e6;\r\n\r\n    // Number of decimals needed to get to 18\r\n    uint256 private immutable missing_decimals;\r\n    \r\n    // Pool_ceiling is the total units of collateral that a pool contract can hold\r\n    uint256 public pool_ceiling = 0;\r\n\r\n    // Stores price of the collateral, if price is paused\r\n    uint256 public pausedPrice = 0;\r\n\r\n    // Bonus rate on WMF minted during recollateralizeWUSD(); 6 decimals of precision, set to 0.75% on genesis\r\n    uint256 public bonus_rate = 7500;\r\n\r\n    // Number of blocks to wait before being able to collectRedemption()\r\n    uint256 public redemption_delay = 1;\r\n\r\n    // AccessControl Roles\r\n    bytes32 private constant MINT_PAUSER = keccak256(\"MINT_PAUSER\");\r\n    bytes32 private constant REDEEM_PAUSER = keccak256(\"REDEEM_PAUSER\");\r\n    bytes32 private constant BUYBACK_PAUSER = keccak256(\"BUYBACK_PAUSER\");\r\n    bytes32 private constant RECOLLATERALIZE_PAUSER = keccak256(\"RECOLLATERALIZE_PAUSER\");\r\n    bytes32 private constant COLLATERAL_PRICE_PAUSER = keccak256(\"COLLATERAL_PRICE_PAUSER\");\r\n    \r\n    // AccessControl state variables\r\n    bool public mintPaused = false;\r\n    bool public redeemPaused = false;\r\n    bool public recollateralizePaused = false;\r\n    bool public buyBackPaused = false;\r\n    bool public collateralPricePaused = false;\r\n\r\n    /* ========== MODIFIERS ========== */\r\n\r\n\r\n    modifier notRedeemPaused() {\r\n        require(redeemPaused == false, \"Redeeming is paused\");\r\n        _;\r\n    }\r\n\r\n    modifier notMintPaused() {\r\n        require(mintPaused == false, \"Minting is paused\");\r\n        _;\r\n    }\r\n \r\n    /* ========== CONSTRUCTOR ========== */\r\n    \r\n    constructor (\r\n        address _WUSD_contract_address,\r\n        address _WMF_contract_address,\r\n        address _collateral_address,\r\n        address _creator_address,\r\n        uint256 _pool_ceiling\r\n    ) public Owned(_creator_address){\r\n        require(\r\n            (_WUSD_contract_address != address(0))\r\n            && (_WMF_contract_address != address(0))\r\n            && (_collateral_address != address(0))\r\n            && (_creator_address != address(0))\r\n        , \"Zero address detected\"); \r\n        WUSD = WUSDStablecoin(_WUSD_contract_address);\r\n        WMF = We_Made_Future(_WMF_contract_address);\r\n        WUSD_contract_address = _WUSD_contract_address;\r\n        WMF_contract_address = _WMF_contract_address;\r\n        collateral_address = _collateral_address;\r\n        collateral_token = ERC20(_collateral_address);\r\n        pool_ceiling = _pool_ceiling;\r\n        missing_decimals = uint(18).sub(collateral_token.decimals());\r\n    }\r\n\r\n    /* ========== VIEWS ========== */\r\n\r\n    // Returns dollar value of collateral held in this WUSD pool\r\n    function collatDollarBalance() public view returns (uint256) {\r\n        if(collateralPricePaused == true){\r\n            return (collateral_token.balanceOf(address(this)).sub(unclaimedPoolCollateral)).mul(10 ** missing_decimals).mul(pausedPrice).div(PRICE_PRECISION);\r\n        } else {\r\n            uint256 eth_usd_price = WUSD.eth_usd_price();\r\n            uint256 eth_collat_price = collatEthOracle.consult(weth_address, (PRICE_PRECISION * (10 ** missing_decimals)));\r\n\r\n            uint256 collat_usd_price = eth_usd_price.mul(PRICE_PRECISION).div(eth_collat_price);\r\n            return (collateral_token.balanceOf(address(this)).sub(unclaimedPoolCollateral)).mul(10 ** missing_decimals).mul(collat_usd_price).div(PRICE_PRECISION); //.mul(getCollateralPrice()).div(1e6);    \r\n        }\r\n    }\r\n\r\n    // Returns the value of excess collateral held in this WUSD pool, compared to what is needed to maintain the global collateral ratio\r\n    function availableExcessCollatDV() public view returns (uint256) {\r\n        uint256 total_supply = WUSD.totalSupply();\r\n        uint256 global_collateral_ratio = WUSD.global_collateral_ratio();\r\n        uint256 global_collat_value = WUSD.globalCollateralValue();\r\n\r\n        if (global_collateral_ratio > COLLATERAL_RATIO_PRECISION) global_collateral_ratio = COLLATERAL_RATIO_PRECISION; // Handles an overcollateralized contract with CR > 1\r\n        uint256 required_collat_dollar_value_d18 = (total_supply.mul(global_collateral_ratio)).div(COLLATERAL_RATIO_PRECISION); // Calculates collateral needed to back each 1 WUSD with $1 of collateral at current collat ratio\r\n        if (global_collat_value > required_collat_dollar_value_d18) return global_collat_value.sub(required_collat_dollar_value_d18);\r\n        else return 0;\r\n    }\r\n\r\n    /* ========== PUBLIC FUNCTIONS ========== */\r\n    \r\n    // Returns the price of the pool collateral in USD\r\n    function getCollateralPrice() public view returns (uint256) {\r\n        if(collateralPricePaused == true){\r\n            return pausedPrice;\r\n        } else {\r\n            uint256 eth_usd_price = WUSD.eth_usd_price();\r\n            return eth_usd_price.mul(PRICE_PRECISION).div(collatEthOracle.consult(weth_address, PRICE_PRECISION * (10 ** missing_decimals)));\r\n        }\r\n    }\r\n\r\n    function setCollatETHOracle(address _collateral_weth_oracle_address, address _weth_address) external onlyOwner {\r\n        collat_eth_oracle_address = _collateral_weth_oracle_address;\r\n        collatEthOracle = UniswapPairOracle(_collateral_weth_oracle_address);\r\n        weth_address = _weth_address;\r\n    }\r\n\r\n    // We separate out the 1t1, fractional and algorithmic minting functions for gas efficiency \r\n    function mint1t1WUSD(uint256 collateral_amount, uint256 WUSD_out_min) external notMintPaused {\r\n        uint256 collateral_amount_d18 = collateral_amount * (10 ** missing_decimals);\r\n\r\n        require(WUSD.global_collateral_ratio() >= COLLATERAL_RATIO_MAX, \"Collateral ratio must be >= 1\");\r\n        require((collateral_token.balanceOf(address(this))).sub(unclaimedPoolCollateral).add(collateral_amount) <= pool_ceiling, \"[Pool's Closed]: Ceiling reached\");\r\n        \r\n        (uint256 WUSD_amount_d18) = WUSDPoolLibrary.calcMint1t1WUSD(\r\n            getCollateralPrice(),\r\n            collateral_amount_d18\r\n        ); //1 WUSD for each $1 worth of collateral\r\n\r\n        WUSD_amount_d18 = (WUSD_amount_d18.mul(uint(1e6).sub(minting_fee))).div(1e6); //remove precision at the end\r\n        require(WUSD_out_min <= WUSD_amount_d18, \"Slippage limit reached\");\r\n\r\n        TransferHelper.safeTransferFrom(address(collateral_token), msg.sender, address(this), collateral_amount);\r\n        WUSD.pool_mint(msg.sender, WUSD_amount_d18);\r\n    }\r\n\r\n    // 0% collateral-backed\r\n    function mintAlgorithmicWUSD(uint256 WMF_amount_d18, uint256 WUSD_out_min) external notMintPaused {\r\n        uint256 WMF_price = WUSD.WMF_price();\r\n        require(WUSD.global_collateral_ratio() == 0, \"Collateral ratio must be 0\");\r\n        \r\n        (uint256 WUSD_amount_d18) = WUSDPoolLibrary.calcMintAlgorithmicWUSD(\r\n            WMF_price, // X WMF / 1 USD\r\n            WMF_amount_d18\r\n        );\r\n\r\n        WUSD_amount_d18 = (WUSD_amount_d18.mul(uint(1e6).sub(minting_fee))).div(1e6);\r\n        require(WUSD_out_min <= WUSD_amount_d18, \"Slippage limit reached\");\r\n\r\n        WMF.pool_burn_from(msg.sender, WMF_amount_d18);\r\n        WUSD.pool_mint(msg.sender, WUSD_amount_d18);\r\n    }\r\n\r\n    // Will fail if fully collateralized or fully algorithmic\r\n    // > 0% and < 100% collateral-backed\r\n    function mintFractionalWUSD(uint256 collateral_amount, uint256 WMF_amount, uint256 WUSD_out_min) external notMintPaused {\r\n        uint256 WMF_price = WUSD.WMF_price();\r\n        uint256 global_collateral_ratio = WUSD.global_collateral_ratio();\r\n\r\n        require(global_collateral_ratio < COLLATERAL_RATIO_MAX && global_collateral_ratio > 0, \"Collateral ratio needs to be between .000001 and .999999\");\r\n        require(collateral_token.balanceOf(address(this)).sub(unclaimedPoolCollateral).add(collateral_amount) <= pool_ceiling, \"Pool ceiling reached, no more WUSD can be minted with this collateral\");\r\n\r\n        uint256 collateral_amount_d18 = collateral_amount * (10 ** missing_decimals);\r\n        WUSDPoolLibrary.MintFF_Params memory input_params = WUSDPoolLibrary.MintFF_Params(\r\n            WMF_price,\r\n            getCollateralPrice(),\r\n            WMF_amount,\r\n            collateral_amount_d18,\r\n            global_collateral_ratio\r\n        );\r\n\r\n        (uint256 mint_amount, uint256 WMF_needed) = WUSDPoolLibrary.calcMintFractionalWUSD(input_params);\r\n\r\n        mint_amount = (mint_amount.mul(uint(1e6).sub(minting_fee))).div(1e6);\r\n        require(WUSD_out_min <= mint_amount, \"Slippage limit reached\");\r\n        require(WMF_needed <= WMF_amount, \"Not enough WMF inputted\");\r\n\r\n        WMF.pool_burn_from(msg.sender, WMF_needed);\r\n        TransferHelper.safeTransferFrom(address(collateral_token), msg.sender, address(this), collateral_amount);\r\n        WUSD.pool_mint(msg.sender, mint_amount);\r\n    }\r\n\r\n    // Redeem collateral. 100% collateral-backed\r\n    function redeem1t1WUSD(uint256 WUSD_amount, uint256 COLLATERAL_out_min) external notRedeemPaused {\r\n        require(WUSD.global_collateral_ratio() == COLLATERAL_RATIO_MAX, \"Collateral ratio must be == 1\");\r\n\r\n        // Need to adjust for decimals of collateral\r\n        uint256 WUSD_amount_precision = WUSD_amount.div(10 ** missing_decimals);\r\n        (uint256 collateral_needed) = WUSDPoolLibrary.calcRedeem1t1WUSD(\r\n            getCollateralPrice(),\r\n            WUSD_amount_precision\r\n        );\r\n\r\n        collateral_needed = (collateral_needed.mul(uint(1e6).sub(redemption_fee))).div(1e6);\r\n        require(collateral_needed <= collateral_token.balanceOf(address(this)).sub(unclaimedPoolCollateral), \"Not enough collateral in pool\");\r\n        require(COLLATERAL_out_min <= collateral_needed, \"Slippage limit reached\");\r\n\r\n        redeemCollateralBalances[msg.sender] = redeemCollateralBalances[msg.sender].add(collateral_needed);\r\n        unclaimedPoolCollateral = unclaimedPoolCollateral.add(collateral_needed);\r\n        lastRedeemed[msg.sender] = block.number;\r\n        \r\n        // Move all external functions to the end\r\n        WUSD.pool_burn_from(msg.sender, WUSD_amount);\r\n    }\r\n\r\n    // Will fail if fully collateralized or algorithmic\r\n    // Redeem WUSD for collateral and WMF. > 0% and < 100% collateral-backed\r\n    function redeemFractionalWUSD(uint256 WUSD_amount, uint256 WMF_out_min, uint256 COLLATERAL_out_min) external notRedeemPaused {\r\n        uint256 WMF_price = WUSD.WMF_price();\r\n        uint256 global_collateral_ratio = WUSD.global_collateral_ratio();\r\n\r\n        require(global_collateral_ratio < COLLATERAL_RATIO_MAX && global_collateral_ratio > 0, \"Collateral ratio needs to be between .000001 and .999999\");\r\n        uint256 col_price_usd = getCollateralPrice();\r\n\r\n        uint256 WUSD_amount_post_fee = (WUSD_amount.mul(uint(1e6).sub(redemption_fee))).div(PRICE_PRECISION);\r\n\r\n        uint256 WMF_dollar_value_d18 = WUSD_amount_post_fee.sub(WUSD_amount_post_fee.mul(global_collateral_ratio).div(PRICE_PRECISION));\r\n        uint256 WMF_amount = WMF_dollar_value_d18.mul(PRICE_PRECISION).div(WMF_price);\r\n\r\n        // Need to adjust for decimals of collateral\r\n        uint256 WUSD_amount_precision = WUSD_amount_post_fee.div(10 ** missing_decimals);\r\n        uint256 collateral_dollar_value = WUSD_amount_precision.mul(global_collateral_ratio).div(PRICE_PRECISION);\r\n        uint256 collateral_amount = collateral_dollar_value.mul(PRICE_PRECISION).div(col_price_usd);\r\n\r\n\r\n        require(collateral_amount <= collateral_token.balanceOf(address(this)).sub(unclaimedPoolCollateral), \"Not enough collateral in pool\");\r\n        require(COLLATERAL_out_min <= collateral_amount, \"Slippage limit reached [collateral]\");\r\n        require(WMF_out_min <= WMF_amount, \"Slippage limit reached [WMF]\");\r\n\r\n        redeemCollateralBalances[msg.sender] = redeemCollateralBalances[msg.sender].add(collateral_amount);\r\n        unclaimedPoolCollateral = unclaimedPoolCollateral.add(collateral_amount);\r\n\r\n        redeemWMFBalances[msg.sender] = redeemWMFBalances[msg.sender].add(WMF_amount);\r\n        unclaimedPoolWMF = unclaimedPoolWMF.add(WMF_amount);\r\n\r\n        lastRedeemed[msg.sender] = block.number;\r\n        \r\n        // Move all external functions to the end\r\n        WUSD.pool_burn_from(msg.sender, WUSD_amount);\r\n        WMF.pool_mint(address(this), WMF_amount);\r\n    }\r\n\r\n    // Redeem WUSD for WMF. 0% collateral-backed\r\n    function redeemAlgorithmicWUSD(uint256 WUSD_amount, uint256 WMF_out_min) external notRedeemPaused {\r\n        uint256 WMF_price = WUSD.WMF_price();\r\n        uint256 global_collateral_ratio = WUSD.global_collateral_ratio();\r\n\r\n        require(global_collateral_ratio == 0, \"Collateral ratio must be 0\"); \r\n        uint256 WMF_dollar_value_d18 = WUSD_amount;\r\n\r\n        WMF_dollar_value_d18 = (WMF_dollar_value_d18.mul(uint(1e6).sub(redemption_fee))).div(PRICE_PRECISION); //apply fees\r\n\r\n        uint256 WMF_amount = WMF_dollar_value_d18.mul(PRICE_PRECISION).div(WMF_price);\r\n        \r\n        redeemWMFBalances[msg.sender] = redeemWMFBalances[msg.sender].add(WMF_amount);\r\n        unclaimedPoolWMF = unclaimedPoolWMF.add(WMF_amount);\r\n        \r\n        lastRedeemed[msg.sender] = block.number;\r\n        \r\n        require(WMF_out_min <= WMF_amount, \"Slippage limit reached\");\r\n        // Move all external functions to the end\r\n        WUSD.pool_burn_from(msg.sender, WUSD_amount);\r\n        WMF.pool_mint(address(this), WMF_amount);\r\n    }\r\n\r\n    // After a redemption happens, transfer the newly minted WMF and owed collateral from this pool\r\n    // contract to the user. Redemption is split into two functions to prevent flash loans from being able\r\n    // to take out WUSD/collateral from the system, use an AMM to trade the new price, and then mint back into the system.\r\n    function collectRedemption() external {\r\n        require((lastRedeemed[msg.sender].add(redemption_delay)) <= block.number, \"Must wait for redemption_delay blocks before collecting redemption\");\r\n        bool sendWMF = false;\r\n        bool sendCollateral = false;\r\n        uint WMFAmount = 0;\r\n        uint CollateralAmount = 0;\r\n\r\n        // Use Checks-Effects-Interactions pattern\r\n        if(redeemWMFBalances[msg.sender] > 0){\r\n            WMFAmount = redeemWMFBalances[msg.sender];\r\n            redeemWMFBalances[msg.sender] = 0;\r\n            unclaimedPoolWMF = unclaimedPoolWMF.sub(WMFAmount);\r\n\r\n            sendWMF = true;\r\n        }\r\n        \r\n        if(redeemCollateralBalances[msg.sender] > 0){\r\n            CollateralAmount = redeemCollateralBalances[msg.sender];\r\n            redeemCollateralBalances[msg.sender] = 0;\r\n            unclaimedPoolCollateral = unclaimedPoolCollateral.sub(CollateralAmount);\r\n\r\n            sendCollateral = true;\r\n        }\r\n\r\n        if(sendWMF){\r\n            TransferHelper.safeTransfer(address(WMF), msg.sender, WMFAmount);\r\n        }\r\n        if(sendCollateral){\r\n            TransferHelper.safeTransfer(address(collateral_token), msg.sender, CollateralAmount);\r\n        }\r\n    }\r\n\r\n\r\n    // When the protocol is recollateralizing, we need to give a discount of WMF to hit the new CR target\r\n    // Thus, if the target collateral ratio is higher than the actual value of collateral, minters get WMF for adding collateral\r\n    // This function simply rewards anyone that sends collateral to a pool with the same amount of WMF + the bonus rate\r\n    // Anyone can call this function to recollateralize the protocol and take the extra WMF value from the bonus rate as an arb opportunity\r\n    function recollateralizeWUSD(uint256 collateral_amount, uint256 WMF_out_min) external {\r\n        require(recollateralizePaused == false, \"Recollateralize is paused\");\r\n        uint256 collateral_amount_d18 = collateral_amount * (10 ** missing_decimals);\r\n        uint256 WMF_price = WUSD.WMF_price();\r\n        uint256 WUSD_total_supply = WUSD.totalSupply();\r\n        uint256 global_collateral_ratio = WUSD.global_collateral_ratio();\r\n        uint256 global_collat_value = WUSD.globalCollateralValue();\r\n\r\n        (uint256 collateral_units, uint256 amount_to_recollat) = WUSDPoolLibrary.calcRecollateralizeWUSDInner(\r\n            collateral_amount_d18,\r\n            getCollateralPrice(),\r\n            global_collat_value,\r\n            WUSD_total_supply,\r\n            global_collateral_ratio\r\n        ); \r\n\r\n        uint256 collateral_units_precision = collateral_units.div(10 ** missing_decimals);\r\n\r\n        uint256 WMF_paid_back = amount_to_recollat.mul(uint(1e6).add(bonus_rate).sub(recollat_fee)).div(WMF_price);\r\n\r\n        require(WMF_out_min <= WMF_paid_back, \"Slippage limit reached\");\r\n        TransferHelper.safeTransferFrom(address(collateral_token), msg.sender, address(this), collateral_units_precision);\r\n        WMF.pool_mint(msg.sender, WMF_paid_back);\r\n        \r\n    }\r\n\r\n    // Function can be called by an WMF holder to have the protocol buy back WMF with excess collateral value from a desired collateral pool\r\n    // This can also happen if the collateral ratio > 1\r\n    function buyBackWMF(uint256 WMF_amount, uint256 COLLATERAL_out_min) external {\r\n        require(buyBackPaused == false, \"Buyback is paused\");\r\n        uint256 WMF_price = WUSD.WMF_price();\r\n    \r\n        WUSDPoolLibrary.BuybackWMF_Params memory input_params = WUSDPoolLibrary.BuybackWMF_Params(\r\n            availableExcessCollatDV(),\r\n            WMF_price,\r\n            getCollateralPrice(),\r\n            WMF_amount\r\n        );\r\n\r\n        (uint256 collateral_equivalent_d18) = (WUSDPoolLibrary.calcBuyBackWMF(input_params)).mul(uint(1e6).sub(buyback_fee)).div(1e6);\r\n        uint256 collateral_precision = collateral_equivalent_d18.div(10 ** missing_decimals);\r\n\r\n        require(COLLATERAL_out_min <= collateral_precision, \"Slippage limit reached\");\r\n        // Give the sender their desired collateral and burn the WMF\r\n        WMF.pool_burn_from(msg.sender, WMF_amount);\r\n        TransferHelper.safeTransfer(address(collateral_token), msg.sender, collateral_precision);\r\n    }\r\n\r\n    /* ========== RESTRICTED FUNCTIONS ========== */\r\n\r\n    function toggleMinting() external {\r\n        require(msg.sender == owner);\r\n        mintPaused = !mintPaused;\r\n\r\n        emit MintingToggled(mintPaused);\r\n    }\r\n\r\n    function toggleRedeeming() external {\r\n        require(msg.sender == owner);\r\n        redeemPaused = !redeemPaused;\r\n\r\n        emit RedeemingToggled(redeemPaused);\r\n    }\r\n\r\n    function toggleRecollateralize() external {\r\n        require(msg.sender == owner);\r\n        recollateralizePaused = !recollateralizePaused;\r\n\r\n        emit RecollateralizeToggled(recollateralizePaused);\r\n    }\r\n    \r\n    function toggleBuyBack() external {\r\n        require(msg.sender == owner);\r\n        buyBackPaused = !buyBackPaused;\r\n\r\n        emit BuybackToggled(buyBackPaused);\r\n    }\r\n\r\n    function toggleCollateralPrice(uint256 _new_price) external {\r\n        require(msg.sender == owner);\r\n        // If pausing, set paused price; else if unpausing, clear pausedPrice\r\n        if(collateralPricePaused == false){\r\n            pausedPrice = _new_price;\r\n        } else {\r\n            pausedPrice = 0;\r\n        }\r\n        collateralPricePaused = !collateralPricePaused;\r\n\r\n        emit CollateralPriceToggled(collateralPricePaused);\r\n    }\r\n\r\n    // Combined into one function due to 24KiB contract memory limit\r\n    function setPoolParameters(uint256 new_ceiling, uint256 new_bonus_rate, uint256 new_redemption_delay, uint256 new_mint_fee, uint256 new_redeem_fee, uint256 new_buyback_fee, uint256 new_recollat_fee) external onlyOwner {\r\n        pool_ceiling = new_ceiling;\r\n        bonus_rate = new_bonus_rate;\r\n        redemption_delay = new_redemption_delay;\r\n        minting_fee = new_mint_fee;\r\n        redemption_fee = new_redeem_fee;\r\n        buyback_fee = new_buyback_fee;\r\n        recollat_fee = new_recollat_fee;\r\n\r\n        emit PoolParametersSet(new_ceiling, new_bonus_rate, new_redemption_delay, new_mint_fee, new_redeem_fee, new_buyback_fee, new_recollat_fee);\r\n    }\r\n\r\n    /* ========== EVENTS ========== */\r\n\r\n    event PoolParametersSet(uint256 new_ceiling, uint256 new_bonus_rate, uint256 new_redemption_delay, uint256 new_mint_fee, uint256 new_redeem_fee, uint256 new_buyback_fee, uint256 new_recollat_fee);\r\n    event MintingToggled(bool toggled);\r\n    event RedeemingToggled(bool toggled);\r\n    event RecollateralizeToggled(bool toggled);\r\n    event BuybackToggled(bool toggled);\r\n    event CollateralPriceToggled(bool toggled);\r\n\r\n}",
  "sourcePath": "C:\\Users\\82102\\Desktop\\WUSD, WMF\\contracts\\Token\\Pools\\WUSDPool.sol",
  "compiler": {
    "name": "solc",
    "version": "0.6.6+commit.6c089d02.Emscripten.clang"
  },
  "schemaVersion": "3.4.4",
  "updatedAt": "2022-01-12T11:14:15.761Z",
  "devdoc": {
    "methods": {}
  },
  "userdoc": {
    "methods": {}
  }
}