{
  "contractName": "WUSDStablecoin",
  "abi": [
    {
      "inputs": [
        {
          "internalType": "string",
          "name": "_name",
          "type": "string"
        },
        {
          "internalType": "string",
          "name": "_symbol",
          "type": "string"
        },
        {
          "internalType": "address",
          "name": "_creator_address",
          "type": "address"
        }
      ],
      "stateMutability": "nonpayable",
      "type": "constructor"
    },
    {
      "anonymous": false,
      "inputs": [
        {
          "indexed": true,
          "internalType": "address",
          "name": "owner",
          "type": "address"
        },
        {
          "indexed": true,
          "internalType": "address",
          "name": "spender",
          "type": "address"
        },
        {
          "indexed": false,
          "internalType": "uint256",
          "name": "value",
          "type": "uint256"
        }
      ],
      "name": "Approval",
      "type": "event"
    },
    {
      "anonymous": false,
      "inputs": [
        {
          "indexed": false,
          "internalType": "uint256",
          "name": "global_collateral_ratio",
          "type": "uint256"
        }
      ],
      "name": "CollateralRatioRefreshed",
      "type": "event"
    },
    {
      "anonymous": false,
      "inputs": [
        {
          "indexed": false,
          "internalType": "bool",
          "name": "collateral_ratio_paused",
          "type": "bool"
        }
      ],
      "name": "CollateralRatioToggled",
      "type": "event"
    },
    {
      "anonymous": false,
      "inputs": [
        {
          "indexed": false,
          "internalType": "address",
          "name": "controller_address",
          "type": "address"
        }
      ],
      "name": "ControllerSet",
      "type": "event"
    },
    {
      "anonymous": false,
      "inputs": [
        {
          "indexed": false,
          "internalType": "address",
          "name": "eth_usd_consumer_address",
          "type": "address"
        }
      ],
      "name": "ETHUSDOracleSet",
      "type": "event"
    },
    {
      "anonymous": false,
      "inputs": [
        {
          "indexed": false,
          "internalType": "uint256",
          "name": "min_fee",
          "type": "uint256"
        }
      ],
      "name": "MintingFeeSet",
      "type": "event"
    },
    {
      "anonymous": false,
      "inputs": [
        {
          "indexed": false,
          "internalType": "address",
          "name": "oldOwner",
          "type": "address"
        },
        {
          "indexed": false,
          "internalType": "address",
          "name": "newOwner",
          "type": "address"
        }
      ],
      "name": "OwnerChanged",
      "type": "event"
    },
    {
      "anonymous": false,
      "inputs": [
        {
          "indexed": false,
          "internalType": "address",
          "name": "newOwner",
          "type": "address"
        }
      ],
      "name": "OwnerNominated",
      "type": "event"
    },
    {
      "anonymous": false,
      "inputs": [
        {
          "indexed": false,
          "internalType": "address",
          "name": "pool_address",
          "type": "address"
        }
      ],
      "name": "PoolAdded",
      "type": "event"
    },
    {
      "anonymous": false,
      "inputs": [
        {
          "indexed": false,
          "internalType": "address",
          "name": "pool_address",
          "type": "address"
        }
      ],
      "name": "PoolRemoved",
      "type": "event"
    },
    {
      "anonymous": false,
      "inputs": [
        {
          "indexed": false,
          "internalType": "uint256",
          "name": "price_band",
          "type": "uint256"
        }
      ],
      "name": "PriceBandSet",
      "type": "event"
    },
    {
      "anonymous": false,
      "inputs": [
        {
          "indexed": false,
          "internalType": "uint256",
          "name": "new_price_target",
          "type": "uint256"
        }
      ],
      "name": "PriceTargetSet",
      "type": "event"
    },
    {
      "anonymous": false,
      "inputs": [
        {
          "indexed": false,
          "internalType": "uint256",
          "name": "red_fee",
          "type": "uint256"
        }
      ],
      "name": "RedemptionFeeSet",
      "type": "event"
    },
    {
      "anonymous": false,
      "inputs": [
        {
          "indexed": false,
          "internalType": "uint256",
          "name": "new_cooldown",
          "type": "uint256"
        }
      ],
      "name": "RefreshCooldownSet",
      "type": "event"
    },
    {
      "anonymous": false,
      "inputs": [
        {
          "indexed": true,
          "internalType": "address",
          "name": "from",
          "type": "address"
        },
        {
          "indexed": true,
          "internalType": "address",
          "name": "to",
          "type": "address"
        },
        {
          "indexed": false,
          "internalType": "uint256",
          "name": "value",
          "type": "uint256"
        }
      ],
      "name": "Transfer",
      "type": "event"
    },
    {
      "anonymous": false,
      "inputs": [
        {
          "indexed": false,
          "internalType": "address",
          "name": "_WMF_address",
          "type": "address"
        }
      ],
      "name": "WMFAddressSet",
      "type": "event"
    },
    {
      "anonymous": false,
      "inputs": [
        {
          "indexed": false,
          "internalType": "address",
          "name": "WMF_oracle_addr",
          "type": "address"
        },
        {
          "indexed": false,
          "internalType": "address",
          "name": "weth_address",
          "type": "address"
        }
      ],
      "name": "WMFEthOracleSet",
      "type": "event"
    },
    {
      "anonymous": false,
      "inputs": [
        {
          "indexed": true,
          "internalType": "address",
          "name": "from",
          "type": "address"
        },
        {
          "indexed": true,
          "internalType": "address",
          "name": "to",
          "type": "address"
        },
        {
          "indexed": false,
          "internalType": "uint256",
          "name": "amount",
          "type": "uint256"
        }
      ],
      "name": "WUSDBurned",
      "type": "event"
    },
    {
      "anonymous": false,
      "inputs": [
        {
          "indexed": false,
          "internalType": "address",
          "name": "WUSD_oracle_addr",
          "type": "address"
        },
        {
          "indexed": false,
          "internalType": "address",
          "name": "weth_address",
          "type": "address"
        }
      ],
      "name": "WUSDETHOracleSet",
      "type": "event"
    },
    {
      "anonymous": false,
      "inputs": [
        {
          "indexed": true,
          "internalType": "address",
          "name": "from",
          "type": "address"
        },
        {
          "indexed": true,
          "internalType": "address",
          "name": "to",
          "type": "address"
        },
        {
          "indexed": false,
          "internalType": "uint256",
          "name": "amount",
          "type": "uint256"
        }
      ],
      "name": "WUSDMinted",
      "type": "event"
    },
    {
      "anonymous": false,
      "inputs": [
        {
          "indexed": false,
          "internalType": "uint256",
          "name": "new_step",
          "type": "uint256"
        }
      ],
      "name": "WUSDStepSet",
      "type": "event"
    },
    {
      "inputs": [],
      "name": "DEFAULT_ADMIN_ADDRESS",
      "outputs": [
        {
          "internalType": "address",
          "name": "",
          "type": "address"
        }
      ],
      "stateMutability": "view",
      "type": "function",
      "constant": true
    },
    {
      "inputs": [],
      "name": "WMF_address",
      "outputs": [
        {
          "internalType": "address",
          "name": "",
          "type": "address"
        }
      ],
      "stateMutability": "view",
      "type": "function",
      "constant": true
    },
    {
      "inputs": [],
      "name": "WMF_eth_oracle_address",
      "outputs": [
        {
          "internalType": "address",
          "name": "",
          "type": "address"
        }
      ],
      "stateMutability": "view",
      "type": "function",
      "constant": true
    },
    {
      "inputs": [],
      "name": "WUSD_eth_oracle_address",
      "outputs": [
        {
          "internalType": "address",
          "name": "",
          "type": "address"
        }
      ],
      "stateMutability": "view",
      "type": "function",
      "constant": true
    },
    {
      "inputs": [
        {
          "internalType": "address",
          "name": "",
          "type": "address"
        }
      ],
      "name": "WUSD_pools",
      "outputs": [
        {
          "internalType": "bool",
          "name": "",
          "type": "bool"
        }
      ],
      "stateMutability": "view",
      "type": "function",
      "constant": true
    },
    {
      "inputs": [
        {
          "internalType": "uint256",
          "name": "",
          "type": "uint256"
        }
      ],
      "name": "WUSD_pools_array",
      "outputs": [
        {
          "internalType": "address",
          "name": "",
          "type": "address"
        }
      ],
      "stateMutability": "view",
      "type": "function",
      "constant": true
    },
    {
      "inputs": [],
      "name": "WUSD_step",
      "outputs": [
        {
          "internalType": "uint256",
          "name": "",
          "type": "uint256"
        }
      ],
      "stateMutability": "view",
      "type": "function",
      "constant": true
    },
    {
      "inputs": [],
      "name": "acceptOwnership",
      "outputs": [],
      "stateMutability": "nonpayable",
      "type": "function"
    },
    {
      "inputs": [
        {
          "internalType": "address",
          "name": "owner",
          "type": "address"
        },
        {
          "internalType": "address",
          "name": "spender",
          "type": "address"
        }
      ],
      "name": "allowance",
      "outputs": [
        {
          "internalType": "uint256",
          "name": "",
          "type": "uint256"
        }
      ],
      "stateMutability": "view",
      "type": "function",
      "constant": true
    },
    {
      "inputs": [
        {
          "internalType": "address",
          "name": "spender",
          "type": "address"
        },
        {
          "internalType": "uint256",
          "name": "amount",
          "type": "uint256"
        }
      ],
      "name": "approve",
      "outputs": [
        {
          "internalType": "bool",
          "name": "",
          "type": "bool"
        }
      ],
      "stateMutability": "nonpayable",
      "type": "function"
    },
    {
      "inputs": [
        {
          "internalType": "address",
          "name": "account",
          "type": "address"
        }
      ],
      "name": "balanceOf",
      "outputs": [
        {
          "internalType": "uint256",
          "name": "",
          "type": "uint256"
        }
      ],
      "stateMutability": "view",
      "type": "function",
      "constant": true
    },
    {
      "inputs": [
        {
          "internalType": "uint256",
          "name": "amount",
          "type": "uint256"
        }
      ],
      "name": "burn",
      "outputs": [],
      "stateMutability": "nonpayable",
      "type": "function"
    },
    {
      "inputs": [
        {
          "internalType": "address",
          "name": "account",
          "type": "address"
        },
        {
          "internalType": "uint256",
          "name": "amount",
          "type": "uint256"
        }
      ],
      "name": "burnFrom",
      "outputs": [],
      "stateMutability": "nonpayable",
      "type": "function"
    },
    {
      "inputs": [],
      "name": "collateral_ratio_paused",
      "outputs": [
        {
          "internalType": "bool",
          "name": "",
          "type": "bool"
        }
      ],
      "stateMutability": "view",
      "type": "function",
      "constant": true
    },
    {
      "inputs": [],
      "name": "controller_address",
      "outputs": [
        {
          "internalType": "address",
          "name": "",
          "type": "address"
        }
      ],
      "stateMutability": "view",
      "type": "function",
      "constant": true
    },
    {
      "inputs": [],
      "name": "creator_address",
      "outputs": [
        {
          "internalType": "address",
          "name": "",
          "type": "address"
        }
      ],
      "stateMutability": "view",
      "type": "function",
      "constant": true
    },
    {
      "inputs": [],
      "name": "decimals",
      "outputs": [
        {
          "internalType": "uint8",
          "name": "",
          "type": "uint8"
        }
      ],
      "stateMutability": "view",
      "type": "function",
      "constant": true
    },
    {
      "inputs": [
        {
          "internalType": "address",
          "name": "spender",
          "type": "address"
        },
        {
          "internalType": "uint256",
          "name": "subtractedValue",
          "type": "uint256"
        }
      ],
      "name": "decreaseAllowance",
      "outputs": [
        {
          "internalType": "bool",
          "name": "",
          "type": "bool"
        }
      ],
      "stateMutability": "nonpayable",
      "type": "function"
    },
    {
      "inputs": [],
      "name": "eth_usd_consumer_address",
      "outputs": [
        {
          "internalType": "address",
          "name": "",
          "type": "address"
        }
      ],
      "stateMutability": "view",
      "type": "function",
      "constant": true
    },
    {
      "inputs": [],
      "name": "genesis_supply",
      "outputs": [
        {
          "internalType": "uint256",
          "name": "",
          "type": "uint256"
        }
      ],
      "stateMutability": "view",
      "type": "function",
      "constant": true
    },
    {
      "inputs": [],
      "name": "global_collateral_ratio",
      "outputs": [
        {
          "internalType": "uint256",
          "name": "",
          "type": "uint256"
        }
      ],
      "stateMutability": "view",
      "type": "function",
      "constant": true
    },
    {
      "inputs": [
        {
          "internalType": "address",
          "name": "spender",
          "type": "address"
        },
        {
          "internalType": "uint256",
          "name": "addedValue",
          "type": "uint256"
        }
      ],
      "name": "increaseAllowance",
      "outputs": [
        {
          "internalType": "bool",
          "name": "",
          "type": "bool"
        }
      ],
      "stateMutability": "nonpayable",
      "type": "function"
    },
    {
      "inputs": [],
      "name": "last_call_time",
      "outputs": [
        {
          "internalType": "uint256",
          "name": "",
          "type": "uint256"
        }
      ],
      "stateMutability": "view",
      "type": "function",
      "constant": true
    },
    {
      "inputs": [],
      "name": "minting_fee",
      "outputs": [
        {
          "internalType": "uint256",
          "name": "",
          "type": "uint256"
        }
      ],
      "stateMutability": "view",
      "type": "function",
      "constant": true
    },
    {
      "inputs": [],
      "name": "name",
      "outputs": [
        {
          "internalType": "string",
          "name": "",
          "type": "string"
        }
      ],
      "stateMutability": "view",
      "type": "function",
      "constant": true
    },
    {
      "inputs": [
        {
          "internalType": "address",
          "name": "_owner",
          "type": "address"
        }
      ],
      "name": "nominateNewOwner",
      "outputs": [],
      "stateMutability": "nonpayable",
      "type": "function"
    },
    {
      "inputs": [],
      "name": "nominatedOwner",
      "outputs": [
        {
          "internalType": "address",
          "name": "",
          "type": "address"
        }
      ],
      "stateMutability": "view",
      "type": "function",
      "constant": true
    },
    {
      "inputs": [],
      "name": "owner",
      "outputs": [
        {
          "internalType": "address",
          "name": "",
          "type": "address"
        }
      ],
      "stateMutability": "view",
      "type": "function",
      "constant": true
    },
    {
      "inputs": [],
      "name": "price_band",
      "outputs": [
        {
          "internalType": "uint256",
          "name": "",
          "type": "uint256"
        }
      ],
      "stateMutability": "view",
      "type": "function",
      "constant": true
    },
    {
      "inputs": [],
      "name": "price_target",
      "outputs": [
        {
          "internalType": "uint256",
          "name": "",
          "type": "uint256"
        }
      ],
      "stateMutability": "view",
      "type": "function",
      "constant": true
    },
    {
      "inputs": [],
      "name": "redemption_fee",
      "outputs": [
        {
          "internalType": "uint256",
          "name": "",
          "type": "uint256"
        }
      ],
      "stateMutability": "view",
      "type": "function",
      "constant": true
    },
    {
      "inputs": [],
      "name": "refresh_cooldown",
      "outputs": [
        {
          "internalType": "uint256",
          "name": "",
          "type": "uint256"
        }
      ],
      "stateMutability": "view",
      "type": "function",
      "constant": true
    },
    {
      "inputs": [],
      "name": "symbol",
      "outputs": [
        {
          "internalType": "string",
          "name": "",
          "type": "string"
        }
      ],
      "stateMutability": "view",
      "type": "function",
      "constant": true
    },
    {
      "inputs": [],
      "name": "totalSupply",
      "outputs": [
        {
          "internalType": "uint256",
          "name": "",
          "type": "uint256"
        }
      ],
      "stateMutability": "view",
      "type": "function",
      "constant": true
    },
    {
      "inputs": [
        {
          "internalType": "address",
          "name": "recipient",
          "type": "address"
        },
        {
          "internalType": "uint256",
          "name": "amount",
          "type": "uint256"
        }
      ],
      "name": "transfer",
      "outputs": [
        {
          "internalType": "bool",
          "name": "",
          "type": "bool"
        }
      ],
      "stateMutability": "nonpayable",
      "type": "function"
    },
    {
      "inputs": [
        {
          "internalType": "address",
          "name": "sender",
          "type": "address"
        },
        {
          "internalType": "address",
          "name": "recipient",
          "type": "address"
        },
        {
          "internalType": "uint256",
          "name": "amount",
          "type": "uint256"
        }
      ],
      "name": "transferFrom",
      "outputs": [
        {
          "internalType": "bool",
          "name": "",
          "type": "bool"
        }
      ],
      "stateMutability": "nonpayable",
      "type": "function"
    },
    {
      "inputs": [],
      "name": "weth_address",
      "outputs": [
        {
          "internalType": "address",
          "name": "",
          "type": "address"
        }
      ],
      "stateMutability": "view",
      "type": "function",
      "constant": true
    },
    {
      "inputs": [],
      "name": "WUSD_price",
      "outputs": [
        {
          "internalType": "uint256",
          "name": "",
          "type": "uint256"
        }
      ],
      "stateMutability": "view",
      "type": "function",
      "constant": true
    },
    {
      "inputs": [],
      "name": "WMF_price",
      "outputs": [
        {
          "internalType": "uint256",
          "name": "",
          "type": "uint256"
        }
      ],
      "stateMutability": "view",
      "type": "function",
      "constant": true
    },
    {
      "inputs": [],
      "name": "eth_usd_price",
      "outputs": [
        {
          "internalType": "uint256",
          "name": "",
          "type": "uint256"
        }
      ],
      "stateMutability": "view",
      "type": "function",
      "constant": true
    },
    {
      "inputs": [],
      "name": "WUSD_info",
      "outputs": [
        {
          "internalType": "uint256",
          "name": "",
          "type": "uint256"
        },
        {
          "internalType": "uint256",
          "name": "",
          "type": "uint256"
        },
        {
          "internalType": "uint256",
          "name": "",
          "type": "uint256"
        },
        {
          "internalType": "uint256",
          "name": "",
          "type": "uint256"
        },
        {
          "internalType": "uint256",
          "name": "",
          "type": "uint256"
        },
        {
          "internalType": "uint256",
          "name": "",
          "type": "uint256"
        },
        {
          "internalType": "uint256",
          "name": "",
          "type": "uint256"
        },
        {
          "internalType": "uint256",
          "name": "",
          "type": "uint256"
        }
      ],
      "stateMutability": "view",
      "type": "function",
      "constant": true
    },
    {
      "inputs": [],
      "name": "globalCollateralValue",
      "outputs": [
        {
          "internalType": "uint256",
          "name": "",
          "type": "uint256"
        }
      ],
      "stateMutability": "view",
      "type": "function",
      "constant": true
    },
    {
      "inputs": [],
      "name": "refreshCollateralRatio",
      "outputs": [],
      "stateMutability": "nonpayable",
      "type": "function"
    },
    {
      "inputs": [
        {
          "internalType": "address",
          "name": "b_address",
          "type": "address"
        },
        {
          "internalType": "uint256",
          "name": "b_amount",
          "type": "uint256"
        }
      ],
      "name": "pool_burn_from",
      "outputs": [],
      "stateMutability": "nonpayable",
      "type": "function"
    },
    {
      "inputs": [
        {
          "internalType": "address",
          "name": "m_address",
          "type": "address"
        },
        {
          "internalType": "uint256",
          "name": "m_amount",
          "type": "uint256"
        }
      ],
      "name": "pool_mint",
      "outputs": [],
      "stateMutability": "nonpayable",
      "type": "function"
    },
    {
      "inputs": [
        {
          "internalType": "address",
          "name": "pool_address",
          "type": "address"
        }
      ],
      "name": "addPool",
      "outputs": [],
      "stateMutability": "nonpayable",
      "type": "function"
    },
    {
      "inputs": [
        {
          "internalType": "address",
          "name": "pool_address",
          "type": "address"
        }
      ],
      "name": "removePool",
      "outputs": [],
      "stateMutability": "nonpayable",
      "type": "function"
    },
    {
      "inputs": [
        {
          "internalType": "uint256",
          "name": "red_fee",
          "type": "uint256"
        }
      ],
      "name": "setRedemptionFee",
      "outputs": [],
      "stateMutability": "nonpayable",
      "type": "function"
    },
    {
      "inputs": [
        {
          "internalType": "uint256",
          "name": "min_fee",
          "type": "uint256"
        }
      ],
      "name": "setMintingFee",
      "outputs": [],
      "stateMutability": "nonpayable",
      "type": "function"
    },
    {
      "inputs": [
        {
          "internalType": "uint256",
          "name": "_new_step",
          "type": "uint256"
        }
      ],
      "name": "setWUSDStep",
      "outputs": [],
      "stateMutability": "nonpayable",
      "type": "function"
    },
    {
      "inputs": [
        {
          "internalType": "uint256",
          "name": "_new_price_target",
          "type": "uint256"
        }
      ],
      "name": "setPriceTarget",
      "outputs": [],
      "stateMutability": "nonpayable",
      "type": "function"
    },
    {
      "inputs": [
        {
          "internalType": "uint256",
          "name": "_new_cooldown",
          "type": "uint256"
        }
      ],
      "name": "setRefreshCooldown",
      "outputs": [],
      "stateMutability": "nonpayable",
      "type": "function"
    },
    {
      "inputs": [
        {
          "internalType": "address",
          "name": "_WMF_address",
          "type": "address"
        }
      ],
      "name": "setWMFAddress",
      "outputs": [],
      "stateMutability": "nonpayable",
      "type": "function"
    },
    {
      "inputs": [
        {
          "internalType": "address",
          "name": "_eth_usd_consumer_address",
          "type": "address"
        }
      ],
      "name": "setETHUSDOracle",
      "outputs": [],
      "stateMutability": "nonpayable",
      "type": "function"
    },
    {
      "inputs": [
        {
          "internalType": "address",
          "name": "_controller_address",
          "type": "address"
        }
      ],
      "name": "setController",
      "outputs": [],
      "stateMutability": "nonpayable",
      "type": "function"
    },
    {
      "inputs": [
        {
          "internalType": "uint256",
          "name": "_price_band",
          "type": "uint256"
        }
      ],
      "name": "setPriceBand",
      "outputs": [],
      "stateMutability": "nonpayable",
      "type": "function"
    },
    {
      "inputs": [
        {
          "internalType": "address",
          "name": "_WUSD_oracle_addr",
          "type": "address"
        },
        {
          "internalType": "address",
          "name": "_weth_address",
          "type": "address"
        }
      ],
      "name": "setWUSDEthOracle",
      "outputs": [],
      "stateMutability": "nonpayable",
      "type": "function"
    },
    {
      "inputs": [
        {
          "internalType": "address",
          "name": "_WMF_oracle_addr",
          "type": "address"
        },
        {
          "internalType": "address",
          "name": "_weth_address",
          "type": "address"
        }
      ],
      "name": "setWMFEthOracle",
      "outputs": [],
      "stateMutability": "nonpayable",
      "type": "function"
    },
    {
      "inputs": [],
      "name": "toggleCollateralRatio",
      "outputs": [],
      "stateMutability": "nonpayable",
      "type": "function"
    }
  ],
  "bytecode": "0x60806040526000601a60146101000a81548160ff0219169083151502179055503480156200002c57600080fd5b5060405162005f6c38038062005f6c833981810160405260608110156200005257600080fd5b81019080805160405193929190846401000000008211156200007357600080fd5b838201915060208201858111156200008a57600080fd5b8251866001820283011164010000000082111715620000a857600080fd5b8083526020830192505050908051906020019080838360005b83811015620000de578082015181840152602081019050620000c1565b50505050905090810190601f1680156200010c5780820380516001836020036101000a031916815260200191505b50604052602001805160405193929190846401000000008211156200013057600080fd5b838201915060208201858111156200014757600080fd5b82518660018202830111640100000000821117156200016557600080fd5b8083526020830192505050908051906020019080838360005b838110156200019b5780820151818401526020810190506200017e565b50505050905090810190601f168015620001c95780820380516001836020036101000a031916815260200191505b506040526020018051906020019092919050505080600073ffffffffffffffffffffffffffffffffffffffff168173ffffffffffffffffffffffffffffffffffffffff16141562000282576040517f08c379a00000000000000000000000000000000000000000000000000000000081526004018080602001828103825260198152602001807f4f776e657220616464726573732063616e6e6f7420626520300000000000000081525060200191505060405180910390fd5b80600360006101000a81548173ffffffffffffffffffffffffffffffffffffffff021916908373ffffffffffffffffffffffffffffffffffffffff1602179055507fb532073b38c83145e3e5135377a08bf9aab55bc0fd7c1179cd4fb995d2a5159c600082604051808373ffffffffffffffffffffffffffffffffffffffff1673ffffffffffffffffffffffffffffffffffffffff1681526020018273ffffffffffffffffffffffffffffffffffffffff1673ffffffffffffffffffffffffffffffffffffffff1681526020019250505060405180910390a1508260099080519060200190620003749291906200070a565b5081600890805190602001906200038d9291906200070a565b5080600a60006101000a81548173ffffffffffffffffffffffffffffffffffffffff021916908373ffffffffffffffffffffffffffffffffffffffff160217905550620003df6200049660201b60201c565b601a60006101000a81548173ffffffffffffffffffffffffffffffffffffffff021916908373ffffffffffffffffffffffffffffffffffffffff1602179055506200045e600a60009054906101000a900473ffffffffffffffffffffffffffffffffffffffff166a01a784379d99db420000006200049e60201b60201c565b6109c4601681905550620f4240601381905550610e10601781905550620f4240601881905550611388601981905550505050620007b9565b600033905090565b600073ffffffffffffffffffffffffffffffffffffffff168273ffffffffffffffffffffffffffffffffffffffff16141562000542576040517f08c379a000000000000000000000000000000000000000000000000000000000815260040180806020018281038252601f8152602001807f45524332303a206d696e7420746f20746865207a65726f20616464726573730081525060200191505060405180910390fd5b62000556600083836200067c60201b60201c565b62000572816002546200068160201b62004b2d1790919060201c565b600281905550620005d0816000808573ffffffffffffffffffffffffffffffffffffffff1673ffffffffffffffffffffffffffffffffffffffff168152602001908152602001600020546200068160201b62004b2d1790919060201c565b6000808473ffffffffffffffffffffffffffffffffffffffff1673ffffffffffffffffffffffffffffffffffffffff168152602001908152602001600020819055508173ffffffffffffffffffffffffffffffffffffffff16600073ffffffffffffffffffffffffffffffffffffffff167fddf252ad1be2c89b69c2b068fc378daa952ba7f163c4a11628f55a4df523b3ef836040518082815260200191505060405180910390a35050565b505050565b60008082840190508381101562000700576040517f08c379a000000000000000000000000000000000000000000000000000000000815260040180806020018281038252601b8152602001807f536166654d6174683a206164646974696f6e206f766572666c6f77000000000081525060200191505060405180910390fd5b8091505092915050565b828054600181600116156101000203166002900490600052602060002090601f016020900481019282601f106200074d57805160ff19168380011785556200077e565b828001600101855582156200077e579182015b828111156200077d57825182559160200191906001019062000760565b5b5090506200078d919062000791565b5090565b620007b691905b80821115620007b257600081600090555060010162000798565b5090565b90565b6157a380620007c96000396000f3fe608060405234801561001057600080fd5b50600436106103995760003560e01c806367feda3e116101e9578063a8a778ae1161010f578063c3355b8d116100ad578063dd62ed3e1161007c578063dd62ed3e14611101578063e0c7814314611179578063e4808af3146111e7578063ed88564c1461120557610399565b8063c3355b8d14611063578063cb73999f14611081578063d2d97b061461109f578063d914cd4b146110bd57610399565b8063b0fc69ce116100e9578063b0fc69ce14610fa3578063b4f56b2614610fed578063bef40ec81461103b578063c03f7be31461104557610399565b8063a8a778ae14610ea0578063a9059cbb14610eee578063af47e24b14610f5457610399565b806387a140c31161018757806395d89b411161015657806395d89b4114610d55578063a198f39714610dd8578063a457c2d714610e1c578063a6dbd64814610e8257610399565b806387a140c314610c415780638da5cb5b14610c635780639053111f14610cad57806392eefe9b14610d1157610399565b806379ba5097116101c357806379ba509714610b8d57806379cc679014610b975780637b38c66014610be55780637dbc1df014610c1357610399565b806367feda3e14610aa757806370a0823114610af1578063741d3c1814610b4957610399565b806335467d5d116102ce57806342966c681161026c578063590ff1df1161023b578063590ff1df1461096f5780635b578d97146109cb5780636140133b14610a1557806367d69d8814610a4357610399565b806342966c681461088f5780634bd0be23146108bd57806351e238e31461090757806353a47bb71461092557610399565b80633b7d0946116102a85780633b7d0946146107c95780633cad05281461080d5780634013124a14610857578063408ab10f1461086157610399565b806335467d5d146106cf57806338681ac914610719578063395093511461076357610399565b806323b872dd1161033b5780632cb4f63e116103155780632cb4f63e146106515780632eb9771b1461066f578063313ce5671461068d578063345ba24b146106b157610399565b806323b872dd14610563578063246126bd146105e95780632853fb101461063357610399565b806318160ddd1161037757806318160ddd146104cb5780631c5df1e5146104e95780632258750a14610517578063238a47091461053557610399565b806306fdde031461039e578063095ea7b3146104215780631627540c14610487575b600080fd5b6103a6611223565b6040518080602001828103825283818151815260200191508051906020019080838360005b838110156103e65780820151818401526020810190506103cb565b50505050905090810190601f1680156104135780820380516001836020036101000a031916815260200191505b509250505060405180910390f35b61046d6004803603604081101561043757600080fd5b81019080803573ffffffffffffffffffffffffffffffffffffffff169060200190929190803590602001909291905050506112c1565b604051808215151515815260200191505060405180910390f35b6104c96004803603602081101561049d57600080fd5b81019080803573ffffffffffffffffffffffffffffffffffffffff1690602001909291905050506112df565b005b6104d361142c565b6040518082815260200191505060405180910390f35b610515600480360360208110156104ff57600080fd5b8101908080359060200190929190505050611436565b005b61051f611592565b6040518082815260200191505060405180910390f35b6105616004803603602081101561054b57600080fd5b8101908080359060200190929190505050611598565b005b6105cf6004803603606081101561057957600080fd5b81019080803573ffffffffffffffffffffffffffffffffffffffff169060200190929190803573ffffffffffffffffffffffffffffffffffffffff169060200190929190803590602001909291905050506116f4565b604051808215151515815260200191505060405180910390f35b6105f16117cd565b604051808273ffffffffffffffffffffffffffffffffffffffff1673ffffffffffffffffffffffffffffffffffffffff16815260200191505060405180910390f35b61063b6117f3565b6040518082815260200191505060405180910390f35b6106596117f9565b6040518082815260200191505060405180910390f35b6106776117ff565b6040518082815260200191505060405180910390f35b610695611805565b604051808260ff1660ff16815260200191505060405180910390f35b6106b961180a565b6040518082815260200191505060405180910390f35b6106d76118f0565b604051808273ffffffffffffffffffffffffffffffffffffffff1673ffffffffffffffffffffffffffffffffffffffff16815260200191505060405180910390f35b610721611916565b604051808273ffffffffffffffffffffffffffffffffffffffff1673ffffffffffffffffffffffffffffffffffffffff16815260200191505060405180910390f35b6107af6004803603604081101561077957600080fd5b81019080803573ffffffffffffffffffffffffffffffffffffffff1690602001909291908035906020019092919050505061193c565b604051808215151515815260200191505060405180910390f35b61080b600480360360208110156107df57600080fd5b81019080803573ffffffffffffffffffffffffffffffffffffffff1690602001909291905050506119ef565b005b610815611e10565b604051808273ffffffffffffffffffffffffffffffffffffffff1673ffffffffffffffffffffffffffffffffffffffff16815260200191505060405180910390f35b61085f611e36565b005b61088d6004803603602081101561087757600080fd5b8101908080359060200190929190505050612033565b005b6108bb600480360360208110156108a557600080fd5b810190808035906020019092919050505061218f565b005b6108c56121a3565b604051808273ffffffffffffffffffffffffffffffffffffffff1673ffffffffffffffffffffffffffffffffffffffff16815260200191505060405180910390f35b61090f6121c9565b6040518082815260200191505060405180910390f35b61092d6121d8565b604051808273ffffffffffffffffffffffffffffffffffffffff1673ffffffffffffffffffffffffffffffffffffffff16815260200191505060405180910390f35b6109b16004803603602081101561098557600080fd5b81019080803573ffffffffffffffffffffffffffffffffffffffff1690602001909291905050506121fe565b604051808215151515815260200191505060405180910390f35b6109d361221e565b604051808273ffffffffffffffffffffffffffffffffffffffff1673ffffffffffffffffffffffffffffffffffffffff16815260200191505060405180910390f35b610a4160048036036020811015610a2b57600080fd5b8101908080359060200190929190505050612244565b005b610aa560048036036040811015610a5957600080fd5b81019080803573ffffffffffffffffffffffffffffffffffffffff169060200190929190803573ffffffffffffffffffffffffffffffffffffffff1690602001909291905050506123a0565b005b610aaf6126f5565b604051808273ffffffffffffffffffffffffffffffffffffffff1673ffffffffffffffffffffffffffffffffffffffff16815260200191505060405180910390f35b610b3360048036036020811015610b0757600080fd5b81019080803573ffffffffffffffffffffffffffffffffffffffff16906020019092919050505061271b565b6040518082815260200191505060405180910390f35b610b8b60048036036020811015610b5f57600080fd5b81019080803573ffffffffffffffffffffffffffffffffffffffff169060200190929190505050612763565b005b610b95612ae8565b005b610be360048036036040811015610bad57600080fd5b81019080803573ffffffffffffffffffffffffffffffffffffffff16906020019092919080359060200190929190505050612d10565b005b610c1160048036036020811015610bfb57600080fd5b8101908080359060200190929190505050612d72565b005b610c3f60048036036020811015610c2957600080fd5b8101908080359060200190929190505050612ece565b005b610c4961302a565b604051808215151515815260200191505060405180910390f35b610c6b61303d565b604051808273ffffffffffffffffffffffffffffffffffffffff1673ffffffffffffffffffffffffffffffffffffffff16815260200191505060405180910390f35b610d0f60048036036040811015610cc357600080fd5b81019080803573ffffffffffffffffffffffffffffffffffffffff169060200190929190803573ffffffffffffffffffffffffffffffffffffffff169060200190929190505050613063565b005b610d5360048036036020811015610d2757600080fd5b81019080803573ffffffffffffffffffffffffffffffffffffffff1690602001909291905050506133b8565b005b610d5d61361d565b6040518080602001828103825283818151815260200191508051906020019080838360005b83811015610d9d578082015181840152602081019050610d82565b50505050905090810190601f168015610dca5780820380516001836020036101000a031916815260200191505b509250505060405180910390f35b610e1a60048036036020811015610dee57600080fd5b81019080803573ffffffffffffffffffffffffffffffffffffffff1690602001909291905050506136bb565b005b610e6860048036036040811015610e3257600080fd5b81019080803573ffffffffffffffffffffffffffffffffffffffff16906020019092919080359060200190929190505050613920565b604051808215151515815260200191505060405180910390f35b610e8a6139ed565b6040518082815260200191505060405180910390f35b610eec60048036036040811015610eb657600080fd5b81019080803573ffffffffffffffffffffffffffffffffffffffff169060200190929190803590602001909291905050506139f3565b005b610f3a60048036036040811015610f0457600080fd5b81019080803573ffffffffffffffffffffffffffffffffffffffff16906020019092919080359060200190929190505050613b0f565b604051808215151515815260200191505060405180910390f35b610f5c613b2d565b604051808981526020018881526020018781526020018681526020018581526020018481526020018381526020018281526020019850505050505050505060405180910390f35b610fab613c5f565b604051808273ffffffffffffffffffffffffffffffffffffffff1673ffffffffffffffffffffffffffffffffffffffff16815260200191505060405180910390f35b6110396004803603604081101561100357600080fd5b81019080803573ffffffffffffffffffffffffffffffffffffffff16906020019092919080359060200190929190505050613c85565b005b611043613da1565b005b61104d613eda565b6040518082815260200191505060405180910390f35b61106b613ee0565b6040518082815260200191505060405180910390f35b611089613ee6565b6040518082815260200191505060405180910390f35b6110a7613eec565b6040518082815260200191505060405180910390f35b6110ff600480360360208110156110d357600080fd5b81019080803573ffffffffffffffffffffffffffffffffffffffff169060200190929190505050614053565b005b6111636004803603604081101561111757600080fd5b81019080803573ffffffffffffffffffffffffffffffffffffffff169060200190929190803573ffffffffffffffffffffffffffffffffffffffff1690602001909291905050506143f8565b6040518082815260200191505060405180910390f35b6111a56004803603602081101561118f57600080fd5b810190808035906020019092919050505061447f565b604051808273ffffffffffffffffffffffffffffffffffffffff1673ffffffffffffffffffffffffffffffffffffffff16815260200191505060405180910390f35b6111ef6144bb565b6040518082815260200191505060405180910390f35b61120d6144cc565b6040518082815260200191505060405180910390f35b60098054600181600116156101000203166002900480601f0160208091040260200160405190810160405280929190818152602001828054600181600116156101000203166002900480156112b95780601f1061128e576101008083540402835291602001916112b9565b820191906000526020600020905b81548152906001019060200180831161129c57829003601f168201915b505050505081565b60006112d56112ce6144dd565b84846144e5565b6001905092915050565b600360009054906101000a900473ffffffffffffffffffffffffffffffffffffffff1673ffffffffffffffffffffffffffffffffffffffff163373ffffffffffffffffffffffffffffffffffffffff1614611385576040517f08c379a000000000000000000000000000000000000000000000000000000000815260040180806020018281038252602f8152602001806155d2602f913960400191505060405180910390fd5b80600460006101000a81548173ffffffffffffffffffffffffffffffffffffffff021916908373ffffffffffffffffffffffffffffffffffffffff1602179055507f906a1c6bd7e3091ea86693dd029a831c19049ce77f1dce2ce0bab1cacbabce2281604051808273ffffffffffffffffffffffffffffffffffffffff1673ffffffffffffffffffffffffffffffffffffffff16815260200191505060405180910390a150565b6000600254905090565b600360009054906101000a900473ffffffffffffffffffffffffffffffffffffffff1673ffffffffffffffffffffffffffffffffffffffff163373ffffffffffffffffffffffffffffffffffffffff1614806114df5750600b60009054906101000a900473ffffffffffffffffffffffffffffffffffffffff1673ffffffffffffffffffffffffffffffffffffffff163373ffffffffffffffffffffffffffffffffffffffff16145b611551576040517f08c379a00000000000000000000000000000000000000000000000000000000081526004018080602001828103825260198152602001807f4e6f7420746865206f776e65722c20636f6e74726f6c6c65720000000000000081525060200191505060405180910390fd5b806017819055507fc7443059c2ed485e2c9efe4e766bef9432a6f0ed6695741ab4afdffab3b92157816040518082815260200191505060405180910390a150565b601b5481565b600360009054906101000a900473ffffffffffffffffffffffffffffffffffffffff1673ffffffffffffffffffffffffffffffffffffffff163373ffffffffffffffffffffffffffffffffffffffff1614806116415750600b60009054906101000a900473ffffffffffffffffffffffffffffffffffffffff1673ffffffffffffffffffffffffffffffffffffffff163373ffffffffffffffffffffffffffffffffffffffff16145b6116b3576040517f08c379a00000000000000000000000000000000000000000000000000000000081526004018080602001828103825260198152602001807f4e6f7420746865206f776e65722c20636f6e74726f6c6c65720000000000000081525060200191505060405180910390fd5b806015819055507f07aefbcc0d8cdf34e241279c78d93d1df9540b5a60d320437958df12ef59e463816040518082815260200191505060405180910390a150565b60006117018484846146dc565b6117c28461170d6144dd565b6117bd8560405180606001604052806028815260200161562260289139600160008b73ffffffffffffffffffffffffffffffffffffffff1673ffffffffffffffffffffffffffffffffffffffff16815260200190815260200160002060006117736144dd565b73ffffffffffffffffffffffffffffffffffffffff1673ffffffffffffffffffffffffffffffffffffffff1681526020019081526020016000205461499d9092919063ffffffff16565b6144e5565b600190509392505050565b600f60009054906101000a900473ffffffffffffffffffffffffffffffffffffffff1681565b60195481565b60185481565b60135481565b601281565b60006118eb600560149054906101000a900460ff1660ff16600a0a6118dd620f4240600560009054906101000a900473ffffffffffffffffffffffffffffffffffffffff1673ffffffffffffffffffffffffffffffffffffffff16638e15f4736040518163ffffffff1660e01b815260040160206040518083038186803b15801561189457600080fd5b505afa1580156118a8573d6000803e3d6000fd5b505050506040513d60208110156118be57600080fd5b8101908080519060200190929190505050614a5d90919063ffffffff16565b614ae390919063ffffffff16565b905090565b601a60009054906101000a900473ffffffffffffffffffffffffffffffffffffffff1681565b600c60009054906101000a900473ffffffffffffffffffffffffffffffffffffffff1681565b60006119e56119496144dd565b846119e0856001600061195a6144dd565b73ffffffffffffffffffffffffffffffffffffffff1673ffffffffffffffffffffffffffffffffffffffff16815260200190815260200160002060008973ffffffffffffffffffffffffffffffffffffffff1673ffffffffffffffffffffffffffffffffffffffff16815260200190815260200160002054614b2d90919063ffffffff16565b6144e5565b6001905092915050565b600360009054906101000a900473ffffffffffffffffffffffffffffffffffffffff1673ffffffffffffffffffffffffffffffffffffffff163373ffffffffffffffffffffffffffffffffffffffff161480611a985750600b60009054906101000a900473ffffffffffffffffffffffffffffffffffffffff1673ffffffffffffffffffffffffffffffffffffffff163373ffffffffffffffffffffffffffffffffffffffff16145b611b0a576040517f08c379a00000000000000000000000000000000000000000000000000000000081526004018080602001828103825260198152602001807f4e6f7420746865206f776e65722c20636f6e74726f6c6c65720000000000000081525060200191505060405180910390fd5b600073ffffffffffffffffffffffffffffffffffffffff168173ffffffffffffffffffffffffffffffffffffffff161415611bad576040517f08c379a00000000000000000000000000000000000000000000000000000000081526004018080602001828103825260158152602001807f5a65726f2061646472657373206465746563746564000000000000000000000081525060200191505060405180910390fd5b60011515601260008373ffffffffffffffffffffffffffffffffffffffff1673ffffffffffffffffffffffffffffffffffffffff16815260200190815260200160002060009054906101000a900460ff16151514611c73576040517f08c379a00000000000000000000000000000000000000000000000000000000081526004018080602001828103825260138152602001807f41646472657373206e6f6e6578697374616e740000000000000000000000000081525060200191505060405180910390fd5b601260008273ffffffffffffffffffffffffffffffffffffffff1673ffffffffffffffffffffffffffffffffffffffff16815260200190815260200160002060006101000a81549060ff021916905560008090505b601180549050811015611da9578173ffffffffffffffffffffffffffffffffffffffff1660118281548110611cf957fe5b9060005260206000200160009054906101000a900473ffffffffffffffffffffffffffffffffffffffff1673ffffffffffffffffffffffffffffffffffffffff161415611d9c57600060118281548110611d4f57fe5b9060005260206000200160006101000a81548173ffffffffffffffffffffffffffffffffffffffff021916908373ffffffffffffffffffffffffffffffffffffffff160217905550611da9565b8080600101915050611cc8565b507f4106dfdaa577573db51c0ca93f766dbedfa0758faa2e7f5bcdb7c142be803c3f81604051808273ffffffffffffffffffffffffffffffffffffffff1673ffffffffffffffffffffffffffffffffffffffff16815260200191505060405180910390a150565b600e60009054906101000a900473ffffffffffffffffffffffffffffffffffffffff1681565b60001515601a60149054906101000a900460ff16151514611ebf576040517f08c379a00000000000000000000000000000000000000000000000000000000081526004018080602001828103825260208152602001807f436f6c6c61746572616c20526174696f20686173206265656e2070617573656481525060200191505060405180910390fd5b6000611ec96144bb565b9050601754601b5442031015611f2a576040517f08c379a00000000000000000000000000000000000000000000000000000000081526004018080602001828103825260358152602001806157146035913960400191505060405180910390fd5b611f41601954601854614b2d90919063ffffffff16565b811115611f835760165460135411611f60576000601381905550611f7e565b611f77601654601354614bb590919063ffffffff16565b6013819055505b611ff0565b611f9a601954601854614bb590919063ffffffff16565b811015611fef57620f4240611fbc601654601354614b2d90919063ffffffff16565b10611fd057620f4240601381905550611fee565b611fe7601654601354614b2d90919063ffffffff16565b6013819055505b5b5b42601b819055507fb1200af9b3ac4dec88c9d01e1fb7cc7fa1f0fe55bf4afac1f30cc4fc2b2d1dd26013546040518082815260200191505060405180910390a150565b600360009054906101000a900473ffffffffffffffffffffffffffffffffffffffff1673ffffffffffffffffffffffffffffffffffffffff163373ffffffffffffffffffffffffffffffffffffffff1614806120dc5750600b60009054906101000a900473ffffffffffffffffffffffffffffffffffffffff1673ffffffffffffffffffffffffffffffffffffffff163373ffffffffffffffffffffffffffffffffffffffff16145b61214e576040517f08c379a00000000000000000000000000000000000000000000000000000000081526004018080602001828103825260198152602001807f4e6f7420746865206f776e65722c20636f6e74726f6c6c65720000000000000081525060200191505060405180910390fd5b806018819055507f898a2c9df7982133daaa8cfd78b8c49c520cba03205eec6480552c19059f6e3a816040518082815260200191505060405180910390a150565b6121a061219a6144dd565b82614bff565b50565b600a60009054906101000a900473ffffffffffffffffffffffffffffffffffffffff1681565b6a01a784379d99db4200000081565b600460009054906101000a900473ffffffffffffffffffffffffffffffffffffffff1681565b60126020528060005260406000206000915054906101000a900460ff1681565b600d60009054906101000a900473ffffffffffffffffffffffffffffffffffffffff1681565b600360009054906101000a900473ffffffffffffffffffffffffffffffffffffffff1673ffffffffffffffffffffffffffffffffffffffff163373ffffffffffffffffffffffffffffffffffffffff1614806122ed5750600b60009054906101000a900473ffffffffffffffffffffffffffffffffffffffff1673ffffffffffffffffffffffffffffffffffffffff163373ffffffffffffffffffffffffffffffffffffffff16145b61235f576040517f08c379a00000000000000000000000000000000000000000000000000000000081526004018080602001828103825260198152602001807f4e6f7420746865206f776e65722c20636f6e74726f6c6c65720000000000000081525060200191505060405180910390fd5b806019819055507fe9febe6aec89ff2870eeab6d13333c59cbed275b1d9a95f527c853d99ddb7cf4816040518082815260200191505060405180910390a150565b600360009054906101000a900473ffffffffffffffffffffffffffffffffffffffff1673ffffffffffffffffffffffffffffffffffffffff163373ffffffffffffffffffffffffffffffffffffffff1614806124495750600b60009054906101000a900473ffffffffffffffffffffffffffffffffffffffff1673ffffffffffffffffffffffffffffffffffffffff163373ffffffffffffffffffffffffffffffffffffffff16145b6124bb576040517f08c379a00000000000000000000000000000000000000000000000000000000081526004018080602001828103825260198152602001807f4e6f7420746865206f776e65722c20636f6e74726f6c6c65720000000000000081525060200191505060405180910390fd5b600073ffffffffffffffffffffffffffffffffffffffff168273ffffffffffffffffffffffffffffffffffffffff16141580156125255750600073ffffffffffffffffffffffffffffffffffffffff168173ffffffffffffffffffffffffffffffffffffffff1614155b612597576040517f08c379a00000000000000000000000000000000000000000000000000000000081526004018080602001828103825260158152602001807f5a65726f2061646472657373206465746563746564000000000000000000000081525060200191505060405180910390fd5b81600d60006101000a81548173ffffffffffffffffffffffffffffffffffffffff021916908373ffffffffffffffffffffffffffffffffffffffff16021790555081600660006101000a81548173ffffffffffffffffffffffffffffffffffffffff021916908373ffffffffffffffffffffffffffffffffffffffff16021790555080600f60006101000a81548173ffffffffffffffffffffffffffffffffffffffff021916908373ffffffffffffffffffffffffffffffffffffffff1602179055507fc47650162f8ed4b9d23dc7b8b7cbc195bb967f7192851dbdc916a7c13620bd288282604051808373ffffffffffffffffffffffffffffffffffffffff1673ffffffffffffffffffffffffffffffffffffffff1681526020018273ffffffffffffffffffffffffffffffffffffffff1673ffffffffffffffffffffffffffffffffffffffff1681526020019250505060405180910390a15050565b600b60009054906101000a900473ffffffffffffffffffffffffffffffffffffffff1681565b60008060008373ffffffffffffffffffffffffffffffffffffffff1673ffffffffffffffffffffffffffffffffffffffff168152602001908152602001600020549050919050565b600360009054906101000a900473ffffffffffffffffffffffffffffffffffffffff1673ffffffffffffffffffffffffffffffffffffffff163373ffffffffffffffffffffffffffffffffffffffff16148061280c5750600b60009054906101000a900473ffffffffffffffffffffffffffffffffffffffff1673ffffffffffffffffffffffffffffffffffffffff163373ffffffffffffffffffffffffffffffffffffffff16145b61287e576040517f08c379a00000000000000000000000000000000000000000000000000000000081526004018080602001828103825260198152602001807f4e6f7420746865206f776e65722c20636f6e74726f6c6c65720000000000000081525060200191505060405180910390fd5b600073ffffffffffffffffffffffffffffffffffffffff168173ffffffffffffffffffffffffffffffffffffffff161415612921576040517f08c379a00000000000000000000000000000000000000000000000000000000081526004018080602001828103825260158152602001807f5a65726f2061646472657373206465746563746564000000000000000000000081525060200191505060405180910390fd5b80601060006101000a81548173ffffffffffffffffffffffffffffffffffffffff021916908373ffffffffffffffffffffffffffffffffffffffff160217905550601060009054906101000a900473ffffffffffffffffffffffffffffffffffffffff16600560006101000a81548173ffffffffffffffffffffffffffffffffffffffff021916908373ffffffffffffffffffffffffffffffffffffffff160217905550600560009054906101000a900473ffffffffffffffffffffffffffffffffffffffff1673ffffffffffffffffffffffffffffffffffffffff1663f0141d846040518163ffffffff1660e01b815260040160206040518083038186803b158015612a2d57600080fd5b505afa158015612a41573d6000803e3d6000fd5b505050506040513d6020811015612a5757600080fd5b8101908080519060200190929190505050600560146101000a81548160ff021916908360ff1602179055507f4e76cd2b10c38c98ffe935e9b3e851cf6d1078a0a6f487a0636af025eded515881604051808273ffffffffffffffffffffffffffffffffffffffff1673ffffffffffffffffffffffffffffffffffffffff16815260200191505060405180910390a150565b600460009054906101000a900473ffffffffffffffffffffffffffffffffffffffff1673ffffffffffffffffffffffffffffffffffffffff163373ffffffffffffffffffffffffffffffffffffffff1614612b8e576040517f08c379a000000000000000000000000000000000000000000000000000000000815260040180806020018281038252603581526020018061550d6035913960400191505060405180910390fd5b7fb532073b38c83145e3e5135377a08bf9aab55bc0fd7c1179cd4fb995d2a5159c600360009054906101000a900473ffffffffffffffffffffffffffffffffffffffff16600460009054906101000a900473ffffffffffffffffffffffffffffffffffffffff16604051808373ffffffffffffffffffffffffffffffffffffffff1673ffffffffffffffffffffffffffffffffffffffff1681526020018273ffffffffffffffffffffffffffffffffffffffff1673ffffffffffffffffffffffffffffffffffffffff1681526020019250505060405180910390a1600460009054906101000a900473ffffffffffffffffffffffffffffffffffffffff16600360006101000a81548173ffffffffffffffffffffffffffffffffffffffff021916908373ffffffffffffffffffffffffffffffffffffffff1602179055506000600460006101000a81548173ffffffffffffffffffffffffffffffffffffffff021916908373ffffffffffffffffffffffffffffffffffffffff160217905550565b6000612d4f8260405180606001604052806024815260200161564a60249139612d4086612d3b6144dd565b6143f8565b61499d9092919063ffffffff16565b9050612d6383612d5d6144dd565b836144e5565b612d6d8383614bff565b505050565b600360009054906101000a900473ffffffffffffffffffffffffffffffffffffffff1673ffffffffffffffffffffffffffffffffffffffff163373ffffffffffffffffffffffffffffffffffffffff161480612e1b5750600b60009054906101000a900473ffffffffffffffffffffffffffffffffffffffff1673ffffffffffffffffffffffffffffffffffffffff163373ffffffffffffffffffffffffffffffffffffffff16145b612e8d576040517f08c379a00000000000000000000000000000000000000000000000000000000081526004018080602001828103825260198152602001807f4e6f7420746865206f776e65722c20636f6e74726f6c6c65720000000000000081525060200191505060405180910390fd5b806016819055507ffb4c2c213bf41ea46fd63a2322c8549229187b7a8facd4fa3d85fca5f8660793816040518082815260200191505060405180910390a150565b600360009054906101000a900473ffffffffffffffffffffffffffffffffffffffff1673ffffffffffffffffffffffffffffffffffffffff163373ffffffffffffffffffffffffffffffffffffffff161480612f775750600b60009054906101000a900473ffffffffffffffffffffffffffffffffffffffff1673ffffffffffffffffffffffffffffffffffffffff163373ffffffffffffffffffffffffffffffffffffffff16145b612fe9576040517f08c379a00000000000000000000000000000000000000000000000000000000081526004018080602001828103825260198152602001807f4e6f7420746865206f776e65722c20636f6e74726f6c6c65720000000000000081525060200191505060405180910390fd5b806014819055507f91cc643d187eb250905520d3dae0b1017edd16961d27ab9a4a61fea5e38f717d816040518082815260200191505060405180910390a150565b601a60149054906101000a900460ff1681565b600360009054906101000a900473ffffffffffffffffffffffffffffffffffffffff1681565b600360009054906101000a900473ffffffffffffffffffffffffffffffffffffffff1673ffffffffffffffffffffffffffffffffffffffff163373ffffffffffffffffffffffffffffffffffffffff16148061310c5750600b60009054906101000a900473ffffffffffffffffffffffffffffffffffffffff1673ffffffffffffffffffffffffffffffffffffffff163373ffffffffffffffffffffffffffffffffffffffff16145b61317e576040517f08c379a00000000000000000000000000000000000000000000000000000000081526004018080602001828103825260198152602001807f4e6f7420746865206f776e65722c20636f6e74726f6c6c65720000000000000081525060200191505060405180910390fd5b600073ffffffffffffffffffffffffffffffffffffffff168273ffffffffffffffffffffffffffffffffffffffff16141580156131e85750600073ffffffffffffffffffffffffffffffffffffffff168173ffffffffffffffffffffffffffffffffffffffff1614155b61325a576040517f08c379a00000000000000000000000000000000000000000000000000000000081526004018080602001828103825260158152602001807f5a65726f2061646472657373206465746563746564000000000000000000000081525060200191505060405180910390fd5b81600e60006101000a81548173ffffffffffffffffffffffffffffffffffffffff021916908373ffffffffffffffffffffffffffffffffffffffff16021790555081600760006101000a81548173ffffffffffffffffffffffffffffffffffffffff021916908373ffffffffffffffffffffffffffffffffffffffff16021790555080600f60006101000a81548173ffffffffffffffffffffffffffffffffffffffff021916908373ffffffffffffffffffffffffffffffffffffffff1602179055507faad0f7c23e9a8a082619b13eb5eaad0d25d199e377053c1154c3e793825b984d8282604051808373ffffffffffffffffffffffffffffffffffffffff1673ffffffffffffffffffffffffffffffffffffffff1681526020018273ffffffffffffffffffffffffffffffffffffffff1673ffffffffffffffffffffffffffffffffffffffff1681526020019250505060405180910390a15050565b600360009054906101000a900473ffffffffffffffffffffffffffffffffffffffff1673ffffffffffffffffffffffffffffffffffffffff163373ffffffffffffffffffffffffffffffffffffffff1614806134615750600b60009054906101000a900473ffffffffffffffffffffffffffffffffffffffff1673ffffffffffffffffffffffffffffffffffffffff163373ffffffffffffffffffffffffffffffffffffffff16145b6134d3576040517f08c379a00000000000000000000000000000000000000000000000000000000081526004018080602001828103825260198152602001807f4e6f7420746865206f776e65722c20636f6e74726f6c6c65720000000000000081525060200191505060405180910390fd5b600073ffffffffffffffffffffffffffffffffffffffff168173ffffffffffffffffffffffffffffffffffffffff161415613576576040517f08c379a00000000000000000000000000000000000000000000000000000000081526004018080602001828103825260158152602001807f5a65726f2061646472657373206465746563746564000000000000000000000081525060200191505060405180910390fd5b80600b60006101000a81548173ffffffffffffffffffffffffffffffffffffffff021916908373ffffffffffffffffffffffffffffffffffffffff1602179055507f79f74fd5964b6943d8a1865abfb7f668c92fa3f32c0a2e3195da7d0946703ad781604051808273ffffffffffffffffffffffffffffffffffffffff1673ffffffffffffffffffffffffffffffffffffffff16815260200191505060405180910390a150565b60088054600181600116156101000203166002900480601f0160208091040260200160405190810160405280929190818152602001828054600181600116156101000203166002900480156136b35780601f10613688576101008083540402835291602001916136b3565b820191906000526020600020905b81548152906001019060200180831161369657829003601f168201915b505050505081565b600360009054906101000a900473ffffffffffffffffffffffffffffffffffffffff1673ffffffffffffffffffffffffffffffffffffffff163373ffffffffffffffffffffffffffffffffffffffff1614806137645750600b60009054906101000a900473ffffffffffffffffffffffffffffffffffffffff1673ffffffffffffffffffffffffffffffffffffffff163373ffffffffffffffffffffffffffffffffffffffff16145b6137d6576040517f08c379a00000000000000000000000000000000000000000000000000000000081526004018080602001828103825260198152602001807f4e6f7420746865206f776e65722c20636f6e74726f6c6c65720000000000000081525060200191505060405180910390fd5b600073ffffffffffffffffffffffffffffffffffffffff168173ffffffffffffffffffffffffffffffffffffffff161415613879576040517f08c379a00000000000000000000000000000000000000000000000000000000081526004018080602001828103825260158152602001807f5a65726f2061646472657373206465746563746564000000000000000000000081525060200191505060405180910390fd5b80600c60006101000a81548173ffffffffffffffffffffffffffffffffffffffff021916908373ffffffffffffffffffffffffffffffffffffffff1602179055507f586c73624ba38ea0abbb474342809764e472e18f02a3792d5913bacd46c1edff81604051808273ffffffffffffffffffffffffffffffffffffffff1673ffffffffffffffffffffffffffffffffffffffff16815260200191505060405180910390a150565b60006139e361392d6144dd565b846139de8560405180606001604052806025815260200161574960259139600160006139576144dd565b73ffffffffffffffffffffffffffffffffffffffff1673ffffffffffffffffffffffffffffffffffffffff16815260200190815260200160002060008a73ffffffffffffffffffffffffffffffffffffffff1673ffffffffffffffffffffffffffffffffffffffff1681526020019081526020016000205461499d9092919063ffffffff16565b6144e5565b6001905092915050565b60165481565b60011515601260003373ffffffffffffffffffffffffffffffffffffffff1673ffffffffffffffffffffffffffffffffffffffff16815260200190815260200160002060009054906101000a900460ff16151514613a9c576040517f08c379a00000000000000000000000000000000000000000000000000000000081526004018080602001828103825260268152602001806155ac6026913960400191505060405180910390fd5b613aa68282614dc3565b3373ffffffffffffffffffffffffffffffffffffffff168273ffffffffffffffffffffffffffffffffffffffff167ff486f476364fe774f32599b16785fa3be13b70365927d67eaa3f07f8ac207188836040518082815260200191505060405180910390a35050565b6000613b23613b1c6144dd565b84846146dc565b6001905092915050565b600080600080600080600080613b436000614e92565b613b4d6001614e92565b613b5561142c565b601354613b60613eec565b601554601454613c45600560149054906101000a900460ff1660ff16600a0a613c37620f4240600560009054906101000a900473ffffffffffffffffffffffffffffffffffffffff1673ffffffffffffffffffffffffffffffffffffffff16638e15f4736040518163ffffffff1660e01b815260040160206040518083038186803b158015613bee57600080fd5b505afa158015613c02573d6000803e3d6000fd5b505050506040513d6020811015613c1857600080fd5b8101908080519060200190929190505050614a5d90919063ffffffff16565b614ae390919063ffffffff16565b975097509750975097509750975097509091929394959697565b601060009054906101000a900473ffffffffffffffffffffffffffffffffffffffff1681565b60011515601260003373ffffffffffffffffffffffffffffffffffffffff1673ffffffffffffffffffffffffffffffffffffffff16815260200190815260200160002060009054906101000a900460ff16151514613d2e576040517f08c379a00000000000000000000000000000000000000000000000000000000081526004018080602001828103825260268152602001806155ac6026913960400191505060405180910390fd5b613d388282615257565b8173ffffffffffffffffffffffffffffffffffffffff163373ffffffffffffffffffffffffffffffffffffffff167f1a471309306d71ae742215725a6ab5c62c19f720298f0f834b973627d738ab23836040518082815260200191505060405180910390a35050565b600360009054906101000a900473ffffffffffffffffffffffffffffffffffffffff1673ffffffffffffffffffffffffffffffffffffffff163373ffffffffffffffffffffffffffffffffffffffff1614613e64576040517f08c379a000000000000000000000000000000000000000000000000000000000815260040180806020018281038252600d8152602001807f4e6f7420746865206f776e65720000000000000000000000000000000000000081525060200191505060405180910390fd5b601a60149054906101000a900460ff1615601a60146101000a81548160ff0219169083151502179055507f209068f7bed5a02fb7695c3e3b61bb8324d1facb25523c6422bfd2105ec44d92601a60149054906101000a900460ff16604051808215151515815260200191505060405180910390a1565b60175481565b60155481565b60145481565b6000806000905060008090505b60118054905081101561404b57600073ffffffffffffffffffffffffffffffffffffffff1660118281548110613f2b57fe5b9060005260206000200160009054906101000a900473ffffffffffffffffffffffffffffffffffffffff1673ffffffffffffffffffffffffffffffffffffffff161461403e5761403b60118281548110613f8157fe5b9060005260206000200160009054906101000a900473ffffffffffffffffffffffffffffffffffffffff1673ffffffffffffffffffffffffffffffffffffffff166317284c946040518163ffffffff1660e01b815260040160206040518083038186803b158015613ff157600080fd5b505afa158015614005573d6000803e3d6000fd5b505050506040513d602081101561401b57600080fd5b810190808051906020019092919050505083614b2d90919063ffffffff16565b91505b8080600101915050613ef9565b508091505090565b600360009054906101000a900473ffffffffffffffffffffffffffffffffffffffff1673ffffffffffffffffffffffffffffffffffffffff163373ffffffffffffffffffffffffffffffffffffffff1614806140fc5750600b60009054906101000a900473ffffffffffffffffffffffffffffffffffffffff1673ffffffffffffffffffffffffffffffffffffffff163373ffffffffffffffffffffffffffffffffffffffff16145b61416e576040517f08c379a00000000000000000000000000000000000000000000000000000000081526004018080602001828103825260198152602001807f4e6f7420746865206f776e65722c20636f6e74726f6c6c65720000000000000081525060200191505060405180910390fd5b600073ffffffffffffffffffffffffffffffffffffffff168173ffffffffffffffffffffffffffffffffffffffff161415614211576040517f08c379a00000000000000000000000000000000000000000000000000000000081526004018080602001828103825260158152602001807f5a65726f2061646472657373206465746563746564000000000000000000000081525060200191505060405180910390fd5b60001515601260008373ffffffffffffffffffffffffffffffffffffffff1673ffffffffffffffffffffffffffffffffffffffff16815260200190815260200160002060009054906101000a900460ff161515146142d7576040517f08c379a00000000000000000000000000000000000000000000000000000000081526004018080602001828103825260168152602001807f4164647265737320616c7265616479206578697374730000000000000000000081525060200191505060405180910390fd5b6001601260008373ffffffffffffffffffffffffffffffffffffffff1673ffffffffffffffffffffffffffffffffffffffff16815260200190815260200160002060006101000a81548160ff0219169083151502179055506011819080600181540180825580915050600190039060005260206000200160009091909190916101000a81548173ffffffffffffffffffffffffffffffffffffffff021916908373ffffffffffffffffffffffffffffffffffffffff1602179055507f73cca62ab1b520c9715bf4e6c71e3e518c754e7148f65102f43289a7df0efea681604051808273ffffffffffffffffffffffffffffffffffffffff1673ffffffffffffffffffffffffffffffffffffffff16815260200191505060405180910390a150565b6000600160008473ffffffffffffffffffffffffffffffffffffffff1673ffffffffffffffffffffffffffffffffffffffff16815260200190815260200160002060008373ffffffffffffffffffffffffffffffffffffffff1673ffffffffffffffffffffffffffffffffffffffff16815260200190815260200160002054905092915050565b6011818154811061448c57fe5b906000526020600020016000915054906101000a900473ffffffffffffffffffffffffffffffffffffffff1681565b60006144c76000614e92565b905090565b60006144d86001614e92565b905090565b600033905090565b600073ffffffffffffffffffffffffffffffffffffffff168373ffffffffffffffffffffffffffffffffffffffff16141561456b576040517f08c379a00000000000000000000000000000000000000000000000000000000081526004018080602001828103825260248152602001806156f06024913960400191505060405180910390fd5b600073ffffffffffffffffffffffffffffffffffffffff168273ffffffffffffffffffffffffffffffffffffffff1614156145f1576040517f08c379a00000000000000000000000000000000000000000000000000000000081526004018080602001828103825260228152602001806155646022913960400191505060405180910390fd5b80600160008573ffffffffffffffffffffffffffffffffffffffff1673ffffffffffffffffffffffffffffffffffffffff16815260200190815260200160002060008473ffffffffffffffffffffffffffffffffffffffff1673ffffffffffffffffffffffffffffffffffffffff168152602001908152602001600020819055508173ffffffffffffffffffffffffffffffffffffffff168373ffffffffffffffffffffffffffffffffffffffff167f8c5be1e5ebec7d5bd14f71427d1e84f3dd0314c0f7b2291e5b200ac8c7c3b925836040518082815260200191505060405180910390a3505050565b600073ffffffffffffffffffffffffffffffffffffffff168373ffffffffffffffffffffffffffffffffffffffff161415614762576040517f08c379a00000000000000000000000000000000000000000000000000000000081526004018080602001828103825260258152602001806156cb6025913960400191505060405180910390fd5b600073ffffffffffffffffffffffffffffffffffffffff168273ffffffffffffffffffffffffffffffffffffffff1614156147e8576040517f08c379a00000000000000000000000000000000000000000000000000000000081526004018080602001828103825260238152602001806154ea6023913960400191505060405180910390fd5b6147f383838361541e565b61485e81604051806060016040528060268152602001615586602691396000808773ffffffffffffffffffffffffffffffffffffffff1673ffffffffffffffffffffffffffffffffffffffff1681526020019081526020016000205461499d9092919063ffffffff16565b6000808573ffffffffffffffffffffffffffffffffffffffff1673ffffffffffffffffffffffffffffffffffffffff168152602001908152602001600020819055506148f1816000808573ffffffffffffffffffffffffffffffffffffffff1673ffffffffffffffffffffffffffffffffffffffff16815260200190815260200160002054614b2d90919063ffffffff16565b6000808473ffffffffffffffffffffffffffffffffffffffff1673ffffffffffffffffffffffffffffffffffffffff168152602001908152602001600020819055508173ffffffffffffffffffffffffffffffffffffffff168373ffffffffffffffffffffffffffffffffffffffff167fddf252ad1be2c89b69c2b068fc378daa952ba7f163c4a11628f55a4df523b3ef836040518082815260200191505060405180910390a3505050565b6000838311158290614a4a576040517f08c379a00000000000000000000000000000000000000000000000000000000081526004018080602001828103825283818151815260200191508051906020019080838360005b83811015614a0f5780820151818401526020810190506149f4565b50505050905090810190601f168015614a3c5780820380516001836020036101000a031916815260200191505b509250505060405180910390fd5b5060008385039050809150509392505050565b600080831415614a705760009050614add565b6000828402905082848281614a8157fe5b0414614ad8576040517f08c379a00000000000000000000000000000000000000000000000000000000081526004018080602001828103825260218152602001806156016021913960400191505060405180910390fd5b809150505b92915050565b6000614b2583836040518060400160405280601a81526020017f536166654d6174683a206469766973696f6e206279207a65726f000000000000815250615423565b905092915050565b600080828401905083811015614bab576040517f08c379a000000000000000000000000000000000000000000000000000000000815260040180806020018281038252601b8152602001807f536166654d6174683a206164646974696f6e206f766572666c6f77000000000081525060200191505060405180910390fd5b8091505092915050565b6000614bf783836040518060400160405280601e81526020017f536166654d6174683a207375627472616374696f6e206f766572666c6f77000081525061499d565b905092915050565b600073ffffffffffffffffffffffffffffffffffffffff168273ffffffffffffffffffffffffffffffffffffffff161415614c85576040517f08c379a00000000000000000000000000000000000000000000000000000000081526004018080602001828103825260218152602001806156aa6021913960400191505060405180910390fd5b614c918260008361541e565b614cfc81604051806060016040528060228152602001615542602291396000808673ffffffffffffffffffffffffffffffffffffffff1673ffffffffffffffffffffffffffffffffffffffff1681526020019081526020016000205461499d9092919063ffffffff16565b6000808473ffffffffffffffffffffffffffffffffffffffff1673ffffffffffffffffffffffffffffffffffffffff16815260200190815260200160002081905550614d5381600254614bb590919063ffffffff16565b600281905550600073ffffffffffffffffffffffffffffffffffffffff168273ffffffffffffffffffffffffffffffffffffffff167fddf252ad1be2c89b69c2b068fc378daa952ba7f163c4a11628f55a4df523b3ef836040518082815260200191505060405180910390a35050565b614dcd8282614bff565b614e8e82614dd96144dd565b614e898460405180606001604052806024815260200161564a60249139600160008973ffffffffffffffffffffffffffffffffffffffff1673ffffffffffffffffffffffffffffffffffffffff1681526020019081526020016000206000614e3f6144dd565b73ffffffffffffffffffffffffffffffffffffffff1673ffffffffffffffffffffffffffffffffffffffff1681526020019081526020016000205461499d9092919063ffffffff16565b6144e5565b5050565b600080614f74600560149054906101000a900460ff1660ff16600a0a614f66620f4240600560009054906101000a900473ffffffffffffffffffffffffffffffffffffffff1673ffffffffffffffffffffffffffffffffffffffff16638e15f4736040518163ffffffff1660e01b815260040160206040518083038186803b158015614f1d57600080fd5b505afa158015614f31573d6000803e3d6000fd5b505050506040513d6020811015614f4757600080fd5b8101908080519060200190929190505050614a5d90919063ffffffff16565b614ae390919063ffffffff16565b9050600080905060006001811115614f8857fe5b846001811115614f9457fe5b14156150a857600660009054906101000a900473ffffffffffffffffffffffffffffffffffffffff1673ffffffffffffffffffffffffffffffffffffffff16633ddac953600f60009054906101000a900473ffffffffffffffffffffffffffffffffffffffff16620f42406040518363ffffffff1660e01b8152600401808373ffffffffffffffffffffffffffffffffffffffff1673ffffffffffffffffffffffffffffffffffffffff1681526020018281526020019250505060206040518083038186803b15801561506657600080fd5b505afa15801561507a573d6000803e3d6000fd5b505050506040513d602081101561509057600080fd5b81019080805190602001909291905050509050615226565b6001808111156150b457fe5b8460018111156150c057fe5b14156151d457600760009054906101000a900473ffffffffffffffffffffffffffffffffffffffff1673ffffffffffffffffffffffffffffffffffffffff16633ddac953600f60009054906101000a900473ffffffffffffffffffffffffffffffffffffffff16620f42406040518363ffffffff1660e01b8152600401808373ffffffffffffffffffffffffffffffffffffffff1673ffffffffffffffffffffffffffffffffffffffff1681526020018281526020019250505060206040518083038186803b15801561519257600080fd5b505afa1580156151a6573d6000803e3d6000fd5b505050506040513d60208110156151bc57600080fd5b81019080805190602001909291905050509050615225565b6040517f08c379a000000000000000000000000000000000000000000000000000000000815260040180806020018281038252603c81526020018061566e603c913960400191505060405180910390fd5b5b61524e81615240620f424085614a5d90919063ffffffff16565b614ae390919063ffffffff16565b92505050919050565b600073ffffffffffffffffffffffffffffffffffffffff168273ffffffffffffffffffffffffffffffffffffffff1614156152fa576040517f08c379a000000000000000000000000000000000000000000000000000000000815260040180806020018281038252601f8152602001807f45524332303a206d696e7420746f20746865207a65726f20616464726573730081525060200191505060405180910390fd5b6153066000838361541e565b61531b81600254614b2d90919063ffffffff16565b600281905550615372816000808573ffffffffffffffffffffffffffffffffffffffff1673ffffffffffffffffffffffffffffffffffffffff16815260200190815260200160002054614b2d90919063ffffffff16565b6000808473ffffffffffffffffffffffffffffffffffffffff1673ffffffffffffffffffffffffffffffffffffffff168152602001908152602001600020819055508173ffffffffffffffffffffffffffffffffffffffff16600073ffffffffffffffffffffffffffffffffffffffff167fddf252ad1be2c89b69c2b068fc378daa952ba7f163c4a11628f55a4df523b3ef836040518082815260200191505060405180910390a35050565b505050565b600080831182906154cf576040517f08c379a00000000000000000000000000000000000000000000000000000000081526004018080602001828103825283818151815260200191508051906020019080838360005b83811015615494578082015181840152602081019050615479565b50505050905090810190601f1680156154c15780820380516001836020036101000a031916815260200191505b509250505060405180910390fd5b5060008385816154db57fe5b04905080915050939250505056fe45524332303a207472616e7366657220746f20746865207a65726f2061646472657373596f75206d757374206265206e6f6d696e61746564206265666f726520796f752063616e20616363657074206f776e65727368697045524332303a206275726e20616d6f756e7420657863656564732062616c616e636545524332303a20617070726f766520746f20746865207a65726f206164647265737345524332303a207472616e7366657220616d6f756e7420657863656564732062616c616e63654f6e6c79205755534420706f6f6c732063616e2063616c6c20746869732066756e6374696f6e4f6e6c792074686520636f6e7472616374206f776e6572206d617920706572666f726d207468697320616374696f6e536166654d6174683a206d756c7469706c69636174696f6e206f766572666c6f7745524332303a207472616e7366657220616d6f756e74206578636565647320616c6c6f77616e636545524332303a206275726e20616d6f756e74206578636565647320616c6c6f77616e6365494e56414c49442050524943452043484f4943452e204e6565647320746f20626520656974686572203020285755534429206f7220312028574d462945524332303a206275726e2066726f6d20746865207a65726f206164647265737345524332303a207472616e736665722066726f6d20746865207a65726f206164647265737345524332303a20617070726f76652066726f6d20746865207a65726f20616464726573734d757374207761697420666f7220746865207265667265736820636f6f6c646f776e2073696e6365206c617374207265667265736845524332303a2064656372656173656420616c6c6f77616e63652062656c6f77207a65726fa26469706673582212206e4562fc7b19f14dc2ca058a9f76b5498e72f57dd35482e23469d290ecf0f3f464736f6c63430006060033",
  "immutableReferences": {},
  "source": "// SPDX-License-Identifier: MIT\r\npragma solidity =0.6.6;\r\n\r\nimport \"./module/Common/Context.sol\";\r\nimport \"./module/ERC20/IERC20.sol\";\r\nimport \"./module/ERC20/ERC20Custom.sol\";\r\nimport \"./Owned.sol\";\r\nimport \"./We_Made_Future.sol\";\r\nimport \"./Pools/WUSDPool.sol\";\r\nimport \"./Oracle/UniswapPairOracle.sol\";\r\nimport \"./Oracle/ChainlinkETHUSDPriceConsumer.sol\";\r\n\r\n\r\ncontract WUSDStablecoin is ERC20Custom, Owned {\r\n    using SafeMath for uint256;\r\n\r\n    // ========== STATE VARIABLES ========== \r\n    enum PriceChoice { WUSD, WMF }\r\n    ChainlinkETHUSDPriceConsumer private eth_usd_pricer;\r\n    uint8 private eth_usd_pricer_decimals;\r\n    UniswapPairOracle private WUSDEthOracle;\r\n    UniswapPairOracle private WMFEthOracle;\r\n    string public symbol;\r\n    string public name;\r\n    uint8 public constant decimals = 18;\r\n    address public creator_address;\r\n    address public controller_address; // Controller contract to dynamically adjust system parameters automatically\r\n    address public WMF_address;\r\n    address public WUSD_eth_oracle_address;\r\n    address public WMF_eth_oracle_address;\r\n    address public weth_address;\r\n    address public eth_usd_consumer_address;\r\n    uint256 public constant genesis_supply = 2000000e18; // 2M WUSD (only for testing, genesis supply will be 5k on Mainnet). This is to help with establishing the Uniswap pools, as they need liquidity\r\n\r\n    // The addresses in this array are added by the oracle and these contracts are able to mint WUSD\r\n    address[] public WUSD_pools_array;\r\n\r\n    // Mapping is also used for faster verification\r\n    mapping(address => bool) public WUSD_pools; \r\n\r\n    // Constants for various precisions\r\n    uint256 private constant PRICE_PRECISION = 1e6;\r\n    \r\n    uint256 public global_collateral_ratio; // 6 decimals of precision, e.g. 924102 = 0.924102\r\n    uint256 public redemption_fee; // 6 decimals of precision, divide by 1000000 in calculations for feeredemption_fee\r\n    uint256 public minting_fee; // 6 decimals of precision, divide by 1000000 in calculations for fee\r\n    uint256 public WUSD_step; // Amount to change the collateralization ratio by upon refreshCollateralRatio()\r\n    uint256 public refresh_cooldown; // Seconds to wait before being able to run refreshCollateralRatio() again\r\n    uint256 public price_target; // The price of WUSD at which the collateral ratio will respond to; this value is only used for the collateral ratio mechanism and not for minting and redeeming which are hardcoded at $1\r\n    uint256 public price_band; // The bound above and below the price target at which the refreshCollateralRatio() will not change the collateral ratio\r\n\r\n    address public DEFAULT_ADMIN_ADDRESS;\r\n    bool public collateral_ratio_paused = false;\r\n\r\n    /* ========== MODIFIERS ========== */\r\n\r\n    modifier onlyCollateralRatioPauser() {\r\n        require(msg.sender == owner, \"Not the owner\");\r\n        _;\r\n    }\r\n\r\n    modifier onlyPools() {\r\n       require(WUSD_pools[msg.sender] == true, \"Only WUSD pools can call this function\");\r\n        _;\r\n    } \r\n    \r\n    modifier onlyByOwnOrcontroller() {\r\n        require(msg.sender == owner || msg.sender == controller_address, \"Not the owner, controller\");\r\n        _;\r\n    }\r\n\r\n    modifier onlyByOwnOrpool() {\r\n        require(\r\n            msg.sender == owner \r\n            || WUSD_pools[msg.sender] == true, \r\n            \"Not the owner, or a pool\");\r\n        _;\r\n    }\r\n\r\n    /* ========== CONSTRUCTOR ========== */\r\n\r\n    constructor (\r\n        string memory _name,\r\n        string memory _symbol,\r\n        address _creator_address\r\n    ) public Owned(_creator_address){\r\n        name = _name;\r\n        symbol = _symbol;\r\n        creator_address = _creator_address;\r\n        DEFAULT_ADMIN_ADDRESS = _msgSender();\r\n        _mint(creator_address, genesis_supply);\r\n        WUSD_step = 2500; // 6 decimals of precision, equal to 0.25%\r\n        global_collateral_ratio = 1000000; // WUSD system starts off fully collateralized (6 decimals of precision)\r\n        refresh_cooldown = 3600; // Refresh cooldown period is set to 1 hour (3600 seconds) at genesis\r\n        price_target = 1000000; // Collateral ratio will adjust according to the $1 price target at genesis\r\n        price_band = 5000; // Collateral ratio will not adjust if between $0.995 and $1.005 at genesis\r\n    }\r\n\r\n    /* ========== VIEWS ========== */\r\n\r\n    // Choice = 'WUSD' or 'WMF' for now\r\n    function oracle_price(PriceChoice choice) internal view returns (uint256) {\r\n        // Get the ETH / USD price first, and cut it down to 1e6 precision\r\n        uint256 __eth_usd_price = uint256(eth_usd_pricer.getLatestPrice()).mul(PRICE_PRECISION).div(uint256(10) ** eth_usd_pricer_decimals);\r\n        uint256 price_vs_eth = 0;\r\n\r\n        if (choice == PriceChoice.WUSD) {\r\n            price_vs_eth = uint256(WUSDEthOracle.consult(weth_address, PRICE_PRECISION)); // How much WUSD if you put in PRICE_PRECISION WETH\r\n        }\r\n        else if (choice == PriceChoice.WMF) {\r\n            price_vs_eth = uint256(WMFEthOracle.consult(weth_address, PRICE_PRECISION)); // How much WMF if you put in PRICE_PRECISION WETH\r\n        }\r\n        else revert(\"INVALID PRICE CHOICE. Needs to be either 0 (WUSD) or 1 (WMF)\");\r\n\r\n        // Will be in 1e6 format\r\n        return __eth_usd_price.mul(PRICE_PRECISION).div(price_vs_eth);\r\n    }\r\n\r\n    // Returns X WUSD = 1 USD\r\n    function WUSD_price() public view returns (uint256) {\r\n        return oracle_price(PriceChoice.WUSD);\r\n    }\r\n\r\n    // Returns X WMF = 1 USD\r\n    function WMF_price()  public view returns (uint256) {\r\n        return oracle_price(PriceChoice.WMF);\r\n    }\r\n\r\n    function eth_usd_price() public view returns (uint256) {\r\n        return uint256(eth_usd_pricer.getLatestPrice()).mul(PRICE_PRECISION).div(uint256(10) ** eth_usd_pricer_decimals);\r\n    }\r\n\r\n    // This is needed to avoid costly repeat calls to different getter functions\r\n    // It is cheaper gas-wise to just dump everything and only use some of the info\r\n    function WUSD_info() public view returns (uint256, uint256, uint256, uint256, uint256, uint256, uint256, uint256) {\r\n        return (\r\n            oracle_price(PriceChoice.WUSD), // WUSD_price()\r\n            oracle_price(PriceChoice.WMF), // WMF_price()\r\n            totalSupply(), // totalSupply()\r\n            global_collateral_ratio, // global_collateral_ratio()\r\n            globalCollateralValue(), // globalCollateralValue\r\n            minting_fee, // minting_fee()\r\n            redemption_fee, // redemption_fee()\r\n            uint256(eth_usd_pricer.getLatestPrice()).mul(PRICE_PRECISION).div(uint256(10) ** eth_usd_pricer_decimals) //eth_usd_price\r\n        );\r\n    }\r\n\r\n    // Iterate through all WUSD pools and calculate all value of collateral in all pools globally \r\n    function globalCollateralValue() public view returns (uint256) {\r\n        uint256 total_collateral_value_d18 = 0; \r\n\r\n        for (uint i = 0; i < WUSD_pools_array.length; i++){ \r\n            // Exclude null addresses\r\n            if (WUSD_pools_array[i] != address(0)){\r\n                total_collateral_value_d18 = total_collateral_value_d18.add(WUSDPool(WUSD_pools_array[i]).collatDollarBalance());\r\n            }\r\n\r\n        }\r\n        return total_collateral_value_d18;\r\n    }\r\n    /* ========== PUBLIC FUNCTIONS ========== */\r\n    \r\n    // There needs to be a time interval that this can be called. Otherwise it can be called multiple times per expansion.\r\n    uint256 public last_call_time; // Last time the refreshCollateralRatio function was called\r\n    function refreshCollateralRatio() public {\r\n        require(collateral_ratio_paused == false, \"Collateral Ratio has been paused\");\r\n        uint256 WUSD_price_cur = WUSD_price();\r\n        require(block.timestamp - last_call_time >= refresh_cooldown, \"Must wait for the refresh cooldown since last refresh\");\r\n\r\n        // Step increments are 0.25% (upon genesis, changable by setWUSDStep()) \r\n        \r\n        if (WUSD_price_cur > price_target.add(price_band)) { //decrease collateral ratio\r\n            if(global_collateral_ratio <= WUSD_step){ //if within a step of 0, go to 0\r\n                global_collateral_ratio = 0;\r\n            } else {\r\n                global_collateral_ratio = global_collateral_ratio.sub(WUSD_step);\r\n            }\r\n        } else if (WUSD_price_cur < price_target.sub(price_band)) { //increase collateral ratio\r\n            if(global_collateral_ratio.add(WUSD_step) >= 1000000){\r\n                global_collateral_ratio = 1000000; // cap collateral ratio at 1.000000\r\n            } else {\r\n                global_collateral_ratio = global_collateral_ratio.add(WUSD_step);\r\n            }\r\n        }\r\n\r\n        last_call_time = block.timestamp; // Set the time of the last expansion\r\n\r\n        emit CollateralRatioRefreshed(global_collateral_ratio);\r\n    }\r\n\r\n    /* ========== RESTRICTED FUNCTIONS ========== */\r\n\r\n    // Used by pools when user redeems\r\n    function pool_burn_from(address b_address, uint256 b_amount) public onlyPools {\r\n        super._burnFrom(b_address, b_amount);\r\n        emit WUSDBurned(b_address, msg.sender, b_amount);\r\n    }\r\n\r\n    // This function is what other WUSD pools will call to mint new WUSD \r\n    function pool_mint(address m_address, uint256 m_amount) public onlyPools {\r\n        super._mint(m_address, m_amount);\r\n        emit WUSDMinted(msg.sender, m_address, m_amount);\r\n    }\r\n\r\n    // Adds collateral addresses supported, such as tether and busd, must be ERC20 \r\n    function addPool(address pool_address) public onlyByOwnOrcontroller {\r\n        require(pool_address != address(0), \"Zero address detected\");\r\n\r\n        require(WUSD_pools[pool_address] == false, \"Address already exists\");\r\n        WUSD_pools[pool_address] = true; \r\n        WUSD_pools_array.push(pool_address);\r\n\r\n        emit PoolAdded(pool_address);\r\n    }\r\n\r\n    // Remove a pool \r\n    function removePool(address pool_address) public onlyByOwnOrcontroller {\r\n        require(pool_address != address(0), \"Zero address detected\");\r\n        require(WUSD_pools[pool_address] == true, \"Address nonexistant\");\r\n        \r\n        // Delete from the mapping\r\n        delete WUSD_pools[pool_address];\r\n\r\n        // 'Delete' from the array by setting the address to 0x0\r\n        for (uint i = 0; i < WUSD_pools_array.length; i++){ \r\n            if (WUSD_pools_array[i] == pool_address) {\r\n                WUSD_pools_array[i] = address(0); // This will leave a null in the array and keep the indices the same\r\n                break;\r\n            }\r\n        }\r\n\r\n        emit PoolRemoved(pool_address);\r\n    }\r\n\r\n    function setRedemptionFee(uint256 red_fee) public onlyByOwnOrcontroller {\r\n        redemption_fee = red_fee;\r\n\r\n        emit RedemptionFeeSet(red_fee);\r\n    }\r\n\r\n    function setMintingFee(uint256 min_fee) public onlyByOwnOrcontroller {\r\n        minting_fee = min_fee;\r\n\r\n        emit MintingFeeSet(min_fee);\r\n    }  \r\n\r\n    function setWUSDStep(uint256 _new_step) public onlyByOwnOrcontroller {\r\n        WUSD_step = _new_step;\r\n\r\n        emit WUSDStepSet(_new_step);\r\n    }  \r\n\r\n    function setPriceTarget (uint256 _new_price_target) public onlyByOwnOrcontroller {\r\n        price_target = _new_price_target;\r\n\r\n        emit PriceTargetSet(_new_price_target);\r\n    }\r\n\r\n    function setRefreshCooldown(uint256 _new_cooldown) public onlyByOwnOrcontroller {\r\n        refresh_cooldown = _new_cooldown;\r\n\r\n        emit RefreshCooldownSet(_new_cooldown);\r\n    }\r\n\r\n    function setWMFAddress(address _WMF_address) public onlyByOwnOrcontroller {\r\n        require(_WMF_address != address(0), \"Zero address detected\");\r\n\r\n        WMF_address = _WMF_address;\r\n\r\n        emit WMFAddressSet(_WMF_address);\r\n    }\r\n\r\n    function setETHUSDOracle(address _eth_usd_consumer_address) public onlyByOwnOrcontroller {\r\n        require(_eth_usd_consumer_address != address(0), \"Zero address detected\");\r\n\r\n        eth_usd_consumer_address = _eth_usd_consumer_address;\r\n        eth_usd_pricer = ChainlinkETHUSDPriceConsumer(eth_usd_consumer_address);\r\n        eth_usd_pricer_decimals = eth_usd_pricer.getDecimals();\r\n\r\n        emit ETHUSDOracleSet(_eth_usd_consumer_address);\r\n    }\r\n\r\n\r\n    function setController(address _controller_address) external onlyByOwnOrcontroller {\r\n        require(_controller_address != address(0), \"Zero address detected\");\r\n\r\n        controller_address = _controller_address;\r\n\r\n        emit ControllerSet(_controller_address);\r\n    }\r\n\r\n    function setPriceBand(uint256 _price_band) external onlyByOwnOrcontroller {\r\n        price_band = _price_band;\r\n\r\n        emit PriceBandSet(_price_band);\r\n    }\r\n\r\n    // Sets the WUSD_ETH Uniswap oracle address \r\n    function setWUSDEthOracle(address _WUSD_oracle_addr, address _weth_address) public onlyByOwnOrcontroller {\r\n        require((_WUSD_oracle_addr != address(0)) && (_weth_address != address(0)), \"Zero address detected\");\r\n        WUSD_eth_oracle_address = _WUSD_oracle_addr;\r\n        WUSDEthOracle = UniswapPairOracle(_WUSD_oracle_addr); \r\n        weth_address = _weth_address;\r\n\r\n        emit WUSDETHOracleSet(_WUSD_oracle_addr, _weth_address);\r\n    }\r\n\r\n    // Sets the WMF_ETH Uniswap oracle address \r\n    function setWMFEthOracle(address _WMF_oracle_addr, address _weth_address) public onlyByOwnOrcontroller {\r\n        require((_WMF_oracle_addr != address(0)) && (_weth_address != address(0)), \"Zero address detected\");\r\n\r\n        WMF_eth_oracle_address = _WMF_oracle_addr;\r\n        WMFEthOracle = UniswapPairOracle(_WMF_oracle_addr);\r\n        weth_address = _weth_address;\r\n\r\n        emit WMFEthOracleSet(_WMF_oracle_addr, _weth_address);\r\n    }\r\n\r\n    function toggleCollateralRatio() public onlyCollateralRatioPauser {\r\n        collateral_ratio_paused = !collateral_ratio_paused;\r\n\r\n        emit CollateralRatioToggled(collateral_ratio_paused);\r\n    }\r\n\r\n    /* ========== EVENTS ========== */\r\n\r\n    // Track WUSD burned\r\n    event WUSDBurned(address indexed from, address indexed to, uint256 amount);\r\n\r\n    // Track WUSD minted\r\n    event WUSDMinted(address indexed from, address indexed to, uint256 amount);\r\n\r\n    event CollateralRatioRefreshed(uint256 global_collateral_ratio);\r\n    event PoolAdded(address pool_address);\r\n    event PoolRemoved(address pool_address);\r\n    event RedemptionFeeSet(uint256 red_fee);\r\n    event MintingFeeSet(uint256 min_fee);\r\n    event WUSDStepSet(uint256 new_step);\r\n    event PriceTargetSet(uint256 new_price_target);\r\n    event RefreshCooldownSet(uint256 new_cooldown);\r\n    event WMFAddressSet(address _WMF_address);\r\n    event ETHUSDOracleSet(address eth_usd_consumer_address);\r\n    event ControllerSet(address controller_address);\r\n    event PriceBandSet(uint256 price_band);\r\n    event WUSDETHOracleSet(address WUSD_oracle_addr, address weth_address);\r\n    event WMFEthOracleSet(address WMF_oracle_addr, address weth_address);\r\n    event CollateralRatioToggled(bool collateral_ratio_paused);\r\n}",
  "sourcePath": "C:\\Users\\82102\\Desktop\\WUSD, WMF\\contracts\\Token\\We_Made_Future_USD.sol",
  "compiler": {
    "name": "solc",
    "version": "0.6.6+commit.6c089d02.Emscripten.clang"
  },
  "schemaVersion": "3.4.4",
  "updatedAt": "2022-01-12T11:14:22.967Z",
  "networkType": "ethereum",
  "devdoc": {
    "methods": {
      "allowance(address,address)": {
        "details": "See {IERC20-allowance}."
      },
      "approve(address,uint256)": {
        "details": "See {IERC20-approve}.     * Requirements:     * - `spender` cannot be the zero address.approve(address spender, uint256 amount)"
      },
      "balanceOf(address)": {
        "details": "See {IERC20-balanceOf}."
      },
      "burn(uint256)": {
        "details": "Destroys `amount` tokens from the caller.     * See {ERC20-_burn}."
      },
      "burnFrom(address,uint256)": {
        "details": "Destroys `amount` tokens from `account`, deducting from the caller's allowance.     * See {ERC20-_burn} and {ERC20-allowance}.     * Requirements:     * - the caller must have allowance for `accounts`'s tokens of at least `amount`."
      },
      "decreaseAllowance(address,uint256)": {
        "details": "Atomically decreases the allowance granted to `spender` by the caller.     * This is an alternative to {approve} that can be used as a mitigation for problems described in {IERC20-approve}.     * Emits an {Approval} event indicating the updated allowance.     * Requirements:     * - `spender` cannot be the zero address. - `spender` must have allowance for the caller of at least `subtractedValue`."
      },
      "increaseAllowance(address,uint256)": {
        "details": "Atomically increases the allowance granted to `spender` by the caller.     * This is an alternative to {approve} that can be used as a mitigation for problems described in {IERC20-approve}.     * Emits an {Approval} event indicating the updated allowance.     * Requirements:     * - `spender` cannot be the zero address."
      },
      "totalSupply()": {
        "details": "See {IERC20-totalSupply}."
      },
      "transfer(address,uint256)": {
        "details": "See {IERC20-transfer}.     * Requirements:     * - `recipient` cannot be the zero address. - the caller must have a balance of at least `amount`."
      },
      "transferFrom(address,address,uint256)": {
        "details": "See {IERC20-transferFrom}.     * Emits an {Approval} event indicating the updated allowance. This is not required by the EIP. See the note at the beginning of {ERC20};     * Requirements: - `sender` and `recipient` cannot be the zero address. - `sender` must have a balance of at least `amount`. - the caller must have allowance for `sender`'s tokens of at least `amount`."
      }
    }
  },
  "userdoc": {
    "methods": {}
  }
}